{
  "contractName": "BaseDocumentStore",
  "abi": [
    {
      "anonymous": false,
      "inputs": [
        {
          "indexed": true,
          "internalType": "bytes",
          "name": "document",
          "type": "bytes"
        }
      ],
      "name": "DocumentIssued",
      "type": "event"
    },
    {
      "anonymous": false,
      "inputs": [
        {
          "indexed": true,
          "internalType": "bytes",
          "name": "document",
          "type": "bytes"
        }
      ],
      "name": "DocumentRevoked",
      "type": "event"
    },
    {
      "inputs": [
        {
          "internalType": "bytes",
          "name": "",
          "type": "bytes"
        }
      ],
      "name": "documentIssued",
      "outputs": [
        {
          "internalType": "uint256",
          "name": "",
          "type": "uint256"
        }
      ],
      "stateMutability": "view",
      "type": "function"
    },
    {
      "inputs": [
        {
          "internalType": "bytes",
          "name": "",
          "type": "bytes"
        }
      ],
      "name": "documentRevoked",
      "outputs": [
        {
          "internalType": "uint256",
          "name": "",
          "type": "uint256"
        }
      ],
      "stateMutability": "view",
      "type": "function"
    },
    {
      "inputs": [],
      "name": "name",
      "outputs": [
        {
          "internalType": "string",
          "name": "",
          "type": "string"
        }
      ],
      "stateMutability": "view",
      "type": "function"
    },
    {
      "inputs": [],
      "name": "version",
      "outputs": [
        {
          "internalType": "string",
          "name": "",
          "type": "string"
        }
      ],
      "stateMutability": "view",
      "type": "function"
    },
    {
      "inputs": [
        {
          "internalType": "string",
          "name": "_name",
          "type": "string"
        }
      ],
      "name": "initialize",
      "outputs": [],
      "stateMutability": "nonpayable",
      "type": "function"
    },
    {
      "inputs": [
        {
          "internalType": "bytes",
          "name": "document",
          "type": "bytes"
        }
      ],
      "name": "isIssued",
      "outputs": [
        {
          "internalType": "bool",
          "name": "",
          "type": "bool"
        }
      ],
      "stateMutability": "view",
      "type": "function"
    },
    {
      "inputs": [
        {
          "internalType": "bytes",
          "name": "document",
          "type": "bytes"
        }
      ],
      "name": "isRevoked",
      "outputs": [
        {
          "internalType": "bool",
          "name": "",
          "type": "bool"
        }
      ],
      "stateMutability": "view",
      "type": "function"
    }
  ],
  "bytecode": "0x608060405234801561001057600080fd5b50610992806100206000396000f3fe608060405234801561001057600080fd5b506004361061007d5760003560e01c806388e3ac151161005b57806388e3ac15146100ee578063a91a3f3c1461011e578063f62d18881461014e578063fad280f71461016a5761007d565b806305acc7a71461008257806306fdde03146100b257806354fd4d50146100d0575b600080fd5b61009c6004803603810190610097919061063d565b61019a565b6040516100a99190610821565b60405180910390f35b6100ba6101c8565b6040516100c791906107df565b60405180910390f35b6100d8610266565b6040516100e591906107df565b60405180910390f35b6101086004803603810190610103919061063d565b610304565b60405161011591906107c4565b60405180910390f35b6101386004803603810190610133919061063d565b61032f565b6040516101459190610821565b60405180910390f35b6101686004803603810190610163919061067e565b61035d565b005b610184600480360381019061017f919061063d565b6104a9565b60405161019191906107c4565b60405180910390f35b6004818051602081018201805184825260208301602085012081835280955050505050506000915090505481565b60018054600181600116156101000203166002900480601f01602080910402602001604051908101604052809291908181526020018280546001816001161561010002031660029004801561025e5780601f106102335761010080835404028352916020019161025e565b820191906000526020600020905b81548152906001019060200180831161024157829003601f168201915b505050505081565b60028054600181600116156101000203166002900480601f0160208091040260200160405190810160405280929190818152602001828054600181600116156101000203166002900480156102fc5780601f106102d1576101008083540402835291602001916102fc565b820191906000526020600020905b8154815290600101906020018083116102df57829003601f168201915b505050505081565b60008060048360405161031791906107ad565b90815260200160405180910390205414159050919050565b6003818051602081018201805184825260208301602085012081835280955050505050506000915090505481565b600060019054906101000a900460ff168061037c575061037b6104d4565b5b80610392575060008054906101000a900460ff16155b6103d1576040517f08c379a00000000000000000000000000000000000000000000000000000000081526004016103c890610801565b60405180910390fd5b60008060019054906101000a900460ff161590508015610421576001600060016101000a81548160ff02191690831515021790555060016000806101000a81548160ff0219169083151502179055505b6040518060400160405280600581526020017f322e332e300000000000000000000000000000000000000000000000000000008152506002908051906020019061046c9291906104f8565b5081600190805190602001906104839291906104f8565b5080156104a55760008060016101000a81548160ff0219169083151502179055505b5050565b6000806003836040516104bc91906107ad565b90815260200160405180910390205414159050919050565b60006104df306104e5565b15905090565b600080823b905060008111915050919050565b828054600181600116156101000203166002900490600052602060002090601f016020900481019282601f1061053957805160ff1916838001178555610567565b82800160010185558215610567579182015b8281111561056657825182559160200191906001019061054b565b5b5090506105749190610578565b5090565b5b80821115610591576000816000905550600101610579565b5090565b600082601f8301126105a657600080fd5b81356105b96105b482610869565b61083c565b915080825260208301602083018583830111156105d557600080fd5b6105e0838284610909565b50505092915050565b600082601f8301126105fa57600080fd5b813561060d61060882610895565b61083c565b9150808252602083016020830185838301111561062957600080fd5b610634838284610909565b50505092915050565b60006020828403121561064f57600080fd5b600082013567ffffffffffffffff81111561066957600080fd5b61067584828501610595565b91505092915050565b60006020828403121561069057600080fd5b600082013567ffffffffffffffff8111156106aa57600080fd5b6106b6848285016105e9565b91505092915050565b6106c8816108f3565b82525050565b60006106d9826108c1565b6106e381856108d7565b93506106f3818560208601610918565b80840191505092915050565b600061070a826108cc565b61071481856108e2565b9350610724818560208601610918565b61072d8161094b565b840191505092915050565b6000610745602e836108e2565b91507f496e697469616c697a61626c653a20636f6e747261637420697320616c72656160008301527f647920696e697469616c697a65640000000000000000000000000000000000006020830152604082019050919050565b6107a7816108ff565b82525050565b60006107b982846106ce565b915081905092915050565b60006020820190506107d960008301846106bf565b92915050565b600060208201905081810360008301526107f981846106ff565b905092915050565b6000602082019050818103600083015261081a81610738565b9050919050565b6000602082019050610836600083018461079e565b92915050565b6000604051905081810181811067ffffffffffffffff8211171561085f57600080fd5b8060405250919050565b600067ffffffffffffffff82111561088057600080fd5b601f19601f8301169050602081019050919050565b600067ffffffffffffffff8211156108ac57600080fd5b601f19601f8301169050602081019050919050565b600081519050919050565b600081519050919050565b600081905092915050565b600082825260208201905092915050565b60008115159050919050565b6000819050919050565b82818337600083830152505050565b60005b8381101561093657808201518184015260208101905061091b565b83811115610945576000848401525b50505050565b6000601f19601f830116905091905056fea2646970667358221220b1a718c1607dd6366acd4bb35c14b26f5a32e88072389484d134023fa879f4d164736f6c634300060c0033",
  "immutableReferences": {},
  "source": "// SPDX-License-Identifier: Apache-2.0\n\npragma solidity ^0.6.10;\npragma experimental ABIEncoderV2;\n\nimport \"@openzeppelin/contracts/access/Ownable.sol\";\nimport \"@openzeppelin/contracts-upgradeable/proxy/Initializable.sol\";\n\ncontract BaseDocumentStore is Initializable {\n  string public name;\n  string public version;\n\n  /// A mapping of the document hash to the block number that was issued\n  mapping(bytes => uint) public documentIssued;\n  /// A mapping of the hash of the claim being revoked to the revocation block number\n  mapping(bytes => uint) public documentRevoked;\n\n  event DocumentIssued(bytes indexed document);\n  event DocumentRevoked(bytes indexed document);\n\n  function initialize(string memory _name) public initializer {\n    version = \"2.3.0\";\n    name = _name;\n  }\n\n  function _issue(bytes memory document) internal onlyNotIssued(document) {\n    documentIssued[document] = block.timestamp;\n    emit DocumentIssued(document);\n  }\n\n  function _bulkIssue(bytes[] memory documents) internal {\n    for (uint256 i = 0; i < documents.length; i++) {\n      _issue(documents[i]);\n    }\n  }\n\n  // function getIssuedBlock(bytes memory document) public view onlyIssued(document) returns (uint256) {\n  //   return documentIssued[document];\n  // }\n\n  function isIssued(bytes memory document) public view returns (bool) {\n    return (documentIssued[document] != 0);\n  }\n\n  // function isIssuedBefore(bytes32 document, uint256 blockNumber) public view returns (bool) {\n  //   return documentIssued[document] != 0 && documentIssued[document] <= blockNumber;\n  // }\n\n  function _revoke(bytes memory document) internal onlyNotRevoked(document) returns (bool) {\n    documentRevoked[document] = block.timestamp;\n    emit DocumentRevoked(document);\n  }\n\n  function _bulkRevoke(bytes[] memory documents) internal {\n    for (uint256 i = 0; i < documents.length; i++) {\n      _revoke(documents[i]);\n    }\n  }\n\n  function isRevoked(bytes memory document) public view returns (bool) {\n    return documentRevoked[document] != 0;\n  }\n\n  // function isRevokedBefore(bytes32 document, uint256 blockNumber) public view returns (bool) {\n  //   return documentRevoked[document] <= blockNumber && documentRevoked[document] != 0;\n  // }\n\n  // modifier onlyIssued(bytes memory document) {\n  //   require(isIssued(document), \"Error: Only issued document hashes can be revoked\");\n  //   _;\n  // }\n\n  modifier onlyNotIssued(bytes memory document) {\n    require(!isIssued(document), \"Error: Only hashes that have not been issued can be issued\");\n    _;\n  }\n\n  modifier onlyNotRevoked(bytes memory claim) {\n    require(!isRevoked(claim), \"Error: Hash has been revoked previously\");\n    _;\n  }\n}\n",
  "sourcePath": "D:\\工作文档\\4.IMDA\\2.hedera\\TradeTrust\\hedera-document-store\\contracts\\BaseDocumentStore.sol",
  "compiler": {
    "name": "solc",
    "version": "0.6.12+commit.27d51765.Emscripten.clang"
  },
  "schemaVersion": "3.4.0",
  "updatedAt": "2022-02-24T08:47:52.622Z",
  "devdoc": {
    "kind": "dev",
    "methods": {},
    "version": 1
  },
  "userdoc": {
    "kind": "user",
    "methods": {
      "documentIssued(bytes)": {
        "notice": "A mapping of the document hash to the block number that was issued"
      },
      "documentRevoked(bytes)": {
        "notice": "A mapping of the hash of the claim being revoked to the revocation block number"
      }
    },
    "version": 1
  }
}