{
  "contractName": "CalculateGsnCapableSelector",
  "abi": [
    {
      "inputs": [],
      "name": "calculateSelector",
      "outputs": [
        {
          "internalType": "bytes4",
          "name": "",
          "type": "bytes4"
        }
      ],
      "stateMutability": "pure",
      "type": "function"
    }
  ],
  "bytecode": "0x6080604052348015600f57600080fd5b5060b88061001e6000396000f3fe6080604052348015600f57600080fd5b506004361060285760003560e01c8063bb71eb3b14602d575b600080fd5b60336068565b60405180827bffffffffffffffffffffffffffffffffffffffffffffffffffffffff1916815260200191505060405180910390f35b600080638f35cc3760e01b632a97fa7760e01b189150509056fea264697066735822122022c24c663fd367f65e040a4fcb322f09ea66c2585b1972b154aab27bdab9529c64736f6c634300060c0033",
  "immutableReferences": {},
  "source": "// SPDX-License-Identifier: Apache-2.0\n\npragma solidity ^0.6.10;\n\nimport \"@openzeppelin/contracts/access/Ownable.sol\";\nimport \"@openzeppelin/contracts/introspection/ERC165.sol\";\n\ncontract GsnCapable is ERC165, Ownable {\n  address public paymaster;\n  bytes4 private constant _INTERFACE_ID_GSN_CAPABLE = 0xa5a23640;\n\n  event PaymasterSet(address indexed target);\n\n  constructor() public {\n    // register the supported interface to conform to TradeTrustERC721 via ERC165\n    _registerInterface(_INTERFACE_ID_GSN_CAPABLE);\n  }\n\n  function setPaymaster(address target) external onlyOwner {\n    paymaster = target;\n    emit PaymasterSet(target);\n  }\n\n  function getPaymaster() external view returns (address) {\n    return paymaster;\n  }\n}\n\ncontract CalculateGsnCapableSelector {\n  function calculateSelector() public pure returns (bytes4) {\n    GsnCapable i;\n    return i.setPaymaster.selector ^ i.getPaymaster.selector;\n  }\n}\n",
  "sourcePath": "D:\\工作文档\\4.IMDA\\2.hedera\\TradeTrust\\hedera-document-store\\contracts\\GsnCapable.sol",
  "compiler": {
    "name": "solc",
    "version": "0.6.12+commit.27d51765.Emscripten.clang"
  },
  "schemaVersion": "3.4.0",
  "updatedAt": "2022-02-24T08:47:52.641Z",
  "devdoc": {
    "kind": "dev",
    "methods": {},
    "version": 1
  },
  "userdoc": {
    "kind": "user",
    "methods": {},
    "version": 1
  }
}