{
  "contractName": "ConfigurableTrustForwarder",
  "abi": [
    {
      "inputs": [
        {
          "internalType": "bytes",
          "name": "data",
          "type": "bytes"
        },
        {
          "internalType": "address",
          "name": "from",
          "type": "address"
        },
        {
          "internalType": "address",
          "name": "to",
          "type": "address"
        }
      ],
      "name": "execute",
      "outputs": [
        {
          "internalType": "bool",
          "name": "success",
          "type": "bool"
        },
        {
          "internalType": "bytes",
          "name": "ret",
          "type": "bytes"
        }
      ],
      "stateMutability": "nonpayable",
      "type": "function"
    }
  ],
  "bytecode": "0x608060405234801561001057600080fd5b506102bc806100206000396000f3fe608060405234801561001057600080fd5b506004361061002b5760003560e01c806398c0fc3414610030575b600080fd5b6100e76004803603606081101561004657600080fd5b810190808035906020019064010000000081111561006357600080fd5b82018360208201111561007557600080fd5b8035906020019184600183028401116401000000008311171561009757600080fd5b9091929391929390803573ffffffffffffffffffffffffffffffffffffffff169060200190929190803573ffffffffffffffffffffffffffffffffffffffff16906020019092919050505061016b565b60405180831515815260200180602001828103825283818151815260200191508051906020019080838360005b8381101561012f578082015181840152602081019050610114565b50505050905090810190601f16801561015c5780820380516001836020036101000a031916815260200191505b50935050505060405180910390f35b600060608273ffffffffffffffffffffffffffffffffffffffff1686868660405160200180848480828437808301925050508273ffffffffffffffffffffffffffffffffffffffff1660601b815260140193505050506040516020818303038152906040526040518082805190602001908083835b6020831061020357805182526020820191506020810190506020830392506101e0565b6001836020036101000a0380198251168184511680821785525050505050509050019150506000604051808303816000865af19150503d8060008114610265576040519150601f19603f3d011682016040523d82523d6000602084013e61026a565b606091505b5080925081935050508161027d57600080fd5b9450949250505056fea26469706673582212205c2b41605230e013747d6931ad3c6754a42470e913176fcebf2b6876fe72278264736f6c634300060c0033",
  "immutableReferences": {},
  "source": "// SPDX-License-Identifier: Apache-2.0\n\npragma solidity ^0.6.10;\n\ncontract ConfigurableTrustForwarder {\n  function execute(\n    bytes calldata data,\n    address from,\n    address to\n  ) public returns (bool success, bytes memory ret) {\n    (success, ret) = to.call(abi.encodePacked(data, from));\n    require(success);\n    return (success, ret);\n  }\n}\n",
  "sourcePath": "D:/工作文档/4.IMDA/2.hedera/TradeTrust/hedera-document-store/contracts/test/ConfigurableTrustForwarder.sol",
  "compiler": {
    "name": "solc",
    "version": "0.6.12+commit.27d51765.Emscripten.clang"
  },
  "schemaVersion": "3.4.0",
  "updatedAt": "2022-02-24T08:47:52.664Z",
  "devdoc": {
    "kind": "dev",
    "methods": {},
    "version": 1
  },
  "userdoc": {
    "kind": "user",
    "methods": {},
    "version": 1
  }
}