{
  "contractName": "DocumentStore",
  "abi": [
    {
      "inputs": [
        {
          "internalType": "string",
          "name": "_name",
          "type": "string"
        }
      ],
      "stateMutability": "nonpayable",
      "type": "constructor"
    },
    {
      "anonymous": false,
      "inputs": [
        {
          "indexed": true,
          "internalType": "bytes",
          "name": "document",
          "type": "bytes"
        }
      ],
      "name": "DocumentIssued",
      "type": "event"
    },
    {
      "anonymous": false,
      "inputs": [
        {
          "indexed": true,
          "internalType": "bytes",
          "name": "document",
          "type": "bytes"
        }
      ],
      "name": "DocumentRevoked",
      "type": "event"
    },
    {
      "anonymous": false,
      "inputs": [
        {
          "indexed": true,
          "internalType": "address",
          "name": "previousOwner",
          "type": "address"
        },
        {
          "indexed": true,
          "internalType": "address",
          "name": "newOwner",
          "type": "address"
        }
      ],
      "name": "OwnershipTransferred",
      "type": "event"
    },
    {
      "inputs": [
        {
          "internalType": "bytes",
          "name": "",
          "type": "bytes"
        }
      ],
      "name": "documentIssued",
      "outputs": [
        {
          "internalType": "uint256",
          "name": "",
          "type": "uint256"
        }
      ],
      "stateMutability": "view",
      "type": "function"
    },
    {
      "inputs": [
        {
          "internalType": "bytes",
          "name": "",
          "type": "bytes"
        }
      ],
      "name": "documentRevoked",
      "outputs": [
        {
          "internalType": "uint256",
          "name": "",
          "type": "uint256"
        }
      ],
      "stateMutability": "view",
      "type": "function"
    },
    {
      "inputs": [],
      "name": "name",
      "outputs": [
        {
          "internalType": "string",
          "name": "",
          "type": "string"
        }
      ],
      "stateMutability": "view",
      "type": "function"
    },
    {
      "inputs": [],
      "name": "owner",
      "outputs": [
        {
          "internalType": "address",
          "name": "",
          "type": "address"
        }
      ],
      "stateMutability": "view",
      "type": "function"
    },
    {
      "inputs": [],
      "name": "renounceOwnership",
      "outputs": [],
      "stateMutability": "nonpayable",
      "type": "function"
    },
    {
      "inputs": [
        {
          "internalType": "address",
          "name": "newOwner",
          "type": "address"
        }
      ],
      "name": "transferOwnership",
      "outputs": [],
      "stateMutability": "nonpayable",
      "type": "function"
    },
    {
      "inputs": [],
      "name": "version",
      "outputs": [
        {
          "internalType": "string",
          "name": "",
          "type": "string"
        }
      ],
      "stateMutability": "view",
      "type": "function"
    },
    {
      "inputs": [
        {
          "internalType": "bytes",
          "name": "document",
          "type": "bytes"
        }
      ],
      "name": "issue",
      "outputs": [],
      "stateMutability": "nonpayable",
      "type": "function"
    },
    {
      "inputs": [
        {
          "internalType": "bytes[]",
          "name": "documents",
          "type": "bytes[]"
        }
      ],
      "name": "bulkIssue",
      "outputs": [],
      "stateMutability": "nonpayable",
      "type": "function"
    },
    {
      "inputs": [
        {
          "internalType": "bytes",
          "name": "document",
          "type": "bytes"
        }
      ],
      "name": "isIssued",
      "outputs": [
        {
          "internalType": "bool",
          "name": "",
          "type": "bool"
        }
      ],
      "stateMutability": "view",
      "type": "function"
    },
    {
      "inputs": [
        {
          "internalType": "bytes",
          "name": "document",
          "type": "bytes"
        }
      ],
      "name": "revoke",
      "outputs": [
        {
          "internalType": "bool",
          "name": "",
          "type": "bool"
        }
      ],
      "stateMutability": "nonpayable",
      "type": "function"
    },
    {
      "inputs": [
        {
          "internalType": "bytes[]",
          "name": "documents",
          "type": "bytes[]"
        }
      ],
      "name": "bulkRevoke",
      "outputs": [],
      "stateMutability": "nonpayable",
      "type": "function"
    },
    {
      "inputs": [
        {
          "internalType": "bytes",
          "name": "document",
          "type": "bytes"
        }
      ],
      "name": "isRevoked",
      "outputs": [
        {
          "internalType": "bool",
          "name": "",
          "type": "bool"
        }
      ],
      "stateMutability": "view",
      "type": "function"
    }
  ],
  "bytecode": "0x60806040526040518060400160405280600581526020017f322e332e3000000000000000000000000000000000000000000000000000000081525060029080519060200190620000519291906200015d565b503480156200005f57600080fd5b50604051620013ea380380620013ea83398181016040528101906200008591906200025f565b6000620000976200015560201b60201c565b9050806000806101000a81548173ffffffffffffffffffffffffffffffffffffffff021916908373ffffffffffffffffffffffffffffffffffffffff1602179055508073ffffffffffffffffffffffffffffffffffffffff16600073ffffffffffffffffffffffffffffffffffffffff167f8be0079c531659141344cd1fd0a4f28419497f9722a3daafe3b4186f6b6457e060405160405180910390a35080600190805190602001906200014d9291906200015d565b505062000335565b600033905090565b828054600181600116156101000203166002900490600052602060002090601f016020900481019282601f10620001a057805160ff1916838001178555620001d1565b82800160010185558215620001d1579182015b82811115620001d0578251825591602001919060010190620001b3565b5b509050620001e09190620001e4565b5090565b5b80821115620001ff576000816000905550600101620001e5565b5090565b600082601f8301126200021557600080fd5b81516200022c6200022682620002d2565b620002a4565b915080825260208301602083018583830111156200024957600080fd5b62000256838284620002ff565b50505092915050565b6000602082840312156200027257600080fd5b600082015167ffffffffffffffff8111156200028d57600080fd5b6200029b8482850162000203565b91505092915050565b6000604051905081810181811067ffffffffffffffff82111715620002c857600080fd5b8060405250919050565b600067ffffffffffffffff821115620002ea57600080fd5b601f19601f8301169050602081019050919050565b60005b838110156200031f57808201518184015260208101905062000302565b838111156200032f576000848401525b50505050565b6110a580620003456000396000f3fe608060405234801561001057600080fd5b50600436106100cf5760003560e01c806388e3ac151161008c578063b613823d11610066578063b613823d14610214578063d1d03d4214610230578063f2fde38b1461024c578063fad280f714610268576100cf565b806388e3ac15146101965780638da5cb5b146101c6578063a91a3f3c146101e4576100cf565b806305acc7a7146100d457806306fdde03146101045780630b467b9b14610122578063318868221461015257806354fd4d501461016e578063715018a61461018c575b600080fd5b6100ee60048036038101906100e99190610bb6565b610298565b6040516100fb9190610eef565b60405180910390f35b61010c6102c6565b6040516101199190610e4d565b60405180910390f35b61013c60048036038101906101379190610bb6565b610364565b6040516101499190610e32565b60405180910390f35b61016c60048036038101906101679190610bb6565b610497565b005b6101766105c6565b6040516101839190610e4d565b60405180910390f35b610194610664565b005b6101b060048036038101906101ab9190610bb6565b61079e565b6040516101bd9190610e32565b60405180910390f35b6101ce6107c9565b6040516101db9190610e17565b60405180910390f35b6101fe60048036038101906101f99190610bb6565b6107f2565b60405161020b9190610eef565b60405180910390f35b61022e60048036038101906102299190610b75565b610820565b005b61024a60048036038101906102459190610b75565b61085a565b005b61026660048036038101906102619190610b4c565b610893565b005b610282600480360381019061027d9190610bb6565b610a3c565b60405161028f9190610e32565b60405180910390f35b6004818051602081018201805184825260208301602085012081835280955050505050506000915090505481565b60018054600181600116156101000203166002900480601f01602080910402602001604051908101604052809291908181526020018280546001816001161561010002031660029004801561035c5780601f106103315761010080835404028352916020019161035c565b820191906000526020600020905b81548152906001019060200180831161033f57829003601f168201915b505050505081565b600061036e610a67565b73ffffffffffffffffffffffffffffffffffffffff1661038c6107c9565b73ffffffffffffffffffffffffffffffffffffffff16146103e2576040517f08c379a00000000000000000000000000000000000000000000000000000000081526004016103d990610ecf565b60405180910390fd5b816103ec8161079e565b1561042c576040517f08c379a000000000000000000000000000000000000000000000000000000000815260040161042390610e6f565b60405180910390fd5b4260048460405161043d9190610e00565b9081526020016040518091039020819055508260405161045d9190610e00565b60405180910390207fd06026efabefaf58d0e4209dab86e740de514d8862953f10a22f1af8c2f2909460405160405180910390a250919050565b61049f610a67565b73ffffffffffffffffffffffffffffffffffffffff166104bd6107c9565b73ffffffffffffffffffffffffffffffffffffffff1614610513576040517f08c379a000000000000000000000000000000000000000000000000000000000815260040161050a90610ecf565b60405180910390fd5b8061051d81610a3c565b1561055d576040517f08c379a000000000000000000000000000000000000000000000000000000000815260040161055490610eaf565b60405180910390fd5b4260038360405161056e9190610e00565b9081526020016040518091039020819055508160405161058e9190610e00565b60405180910390207fe733eb2ec0cbe632113b39e823b85fd4f8853b0de59757070e894c5cd983ef9f60405160405180910390a25050565b60028054600181600116156101000203166002900480601f01602080910402602001604051908101604052809291908181526020018280546001816001161561010002031660029004801561065c5780601f106106315761010080835404028352916020019161065c565b820191906000526020600020905b81548152906001019060200180831161063f57829003601f168201915b505050505081565b61066c610a67565b73ffffffffffffffffffffffffffffffffffffffff1661068a6107c9565b73ffffffffffffffffffffffffffffffffffffffff16146106e0576040517f08c379a00000000000000000000000000000000000000000000000000000000081526004016106d790610ecf565b60405180910390fd5b600073ffffffffffffffffffffffffffffffffffffffff1660008054906101000a900473ffffffffffffffffffffffffffffffffffffffff1673ffffffffffffffffffffffffffffffffffffffff167f8be0079c531659141344cd1fd0a4f28419497f9722a3daafe3b4186f6b6457e060405160405180910390a360008060006101000a81548173ffffffffffffffffffffffffffffffffffffffff021916908373ffffffffffffffffffffffffffffffffffffffff160217905550565b6000806004836040516107b19190610e00565b90815260200160405180910390205414159050919050565b60008060009054906101000a900473ffffffffffffffffffffffffffffffffffffffff16905090565b6003818051602081018201805184825260208301602085012081835280955050505050506000915090505481565b60005b81518110156108565761084882828151811061083b57fe5b6020026020010151610364565b508080600101915050610823565b5050565b60005b815181101561088f5761088282828151811061087557fe5b6020026020010151610497565b808060010191505061085d565b5050565b61089b610a67565b73ffffffffffffffffffffffffffffffffffffffff166108b96107c9565b73ffffffffffffffffffffffffffffffffffffffff161461090f576040517f08c379a000000000000000000000000000000000000000000000000000000000815260040161090690610ecf565b60405180910390fd5b600073ffffffffffffffffffffffffffffffffffffffff168173ffffffffffffffffffffffffffffffffffffffff16141561097f576040517f08c379a000000000000000000000000000000000000000000000000000000000815260040161097690610e8f565b60405180910390fd5b8073ffffffffffffffffffffffffffffffffffffffff1660008054906101000a900473ffffffffffffffffffffffffffffffffffffffff1673ffffffffffffffffffffffffffffffffffffffff167f8be0079c531659141344cd1fd0a4f28419497f9722a3daafe3b4186f6b6457e060405160405180910390a3806000806101000a81548173ffffffffffffffffffffffffffffffffffffffff021916908373ffffffffffffffffffffffffffffffffffffffff16021790555050565b600080600383604051610a4f9190610e00565b90815260200160405180910390205414159050919050565b600033905090565b600081359050610a7e81611058565b92915050565b600082601f830112610a9557600080fd5b8135610aa8610aa382610f37565b610f0a565b9150818183526020840193506020810190508360005b83811015610aee5781358601610ad48882610af8565b845260208401935060208301925050600181019050610abe565b5050505092915050565b600082601f830112610b0957600080fd5b8135610b1c610b1782610f5f565b610f0a565b91508082526020830160208301858383011115610b3857600080fd5b610b43838284611005565b50505092915050565b600060208284031215610b5e57600080fd5b6000610b6c84828501610a6f565b91505092915050565b600060208284031215610b8757600080fd5b600082013567ffffffffffffffff811115610ba157600080fd5b610bad84828501610a84565b91505092915050565b600060208284031215610bc857600080fd5b600082013567ffffffffffffffff811115610be257600080fd5b610bee84828501610af8565b91505092915050565b610c0081610fbd565b82525050565b610c0f81610fcf565b82525050565b6000610c2082610f8b565b610c2a8185610fa1565b9350610c3a818560208601611014565b80840191505092915050565b6000610c5182610f96565b610c5b8185610fac565b9350610c6b818560208601611014565b610c7481611047565b840191505092915050565b6000610c8c602783610fac565b91507f4572726f723a204861736820686173206265656e207265766f6b65642070726560008301527f76696f75736c79000000000000000000000000000000000000000000000000006020830152604082019050919050565b6000610cf2602683610fac565b91507f4f776e61626c653a206e6577206f776e657220697320746865207a65726f206160008301527f64647265737300000000000000000000000000000000000000000000000000006020830152604082019050919050565b6000610d58603a83610fac565b91507f4572726f723a204f6e6c792068617368657320746861742068617665206e6f7460008301527f206265656e206973737565642063616e206265206973737565640000000000006020830152604082019050919050565b6000610dbe602083610fac565b91507f4f776e61626c653a2063616c6c6572206973206e6f7420746865206f776e65726000830152602082019050919050565b610dfa81610ffb565b82525050565b6000610e0c8284610c15565b915081905092915050565b6000602082019050610e2c6000830184610bf7565b92915050565b6000602082019050610e476000830184610c06565b92915050565b60006020820190508181036000830152610e678184610c46565b905092915050565b60006020820190508181036000830152610e8881610c7f565b9050919050565b60006020820190508181036000830152610ea881610ce5565b9050919050565b60006020820190508181036000830152610ec881610d4b565b9050919050565b60006020820190508181036000830152610ee881610db1565b9050919050565b6000602082019050610f046000830184610df1565b92915050565b6000604051905081810181811067ffffffffffffffff82111715610f2d57600080fd5b8060405250919050565b600067ffffffffffffffff821115610f4e57600080fd5b602082029050602081019050919050565b600067ffffffffffffffff821115610f7657600080fd5b601f19601f8301169050602081019050919050565b600081519050919050565b600081519050919050565b600081905092915050565b600082825260208201905092915050565b6000610fc882610fdb565b9050919050565b60008115159050919050565b600073ffffffffffffffffffffffffffffffffffffffff82169050919050565b6000819050919050565b82818337600083830152505050565b60005b83811015611032578082015181840152602081019050611017565b83811115611041576000848401525b50505050565b6000601f19601f8301169050919050565b61106181610fbd565b811461106c57600080fd5b5056fea2646970667358221220d02100f328beb6410ba88ed9c5fd597fcbe5b5a08d56081ca2d72493f0948a4c64736f6c634300060c0033",
  "immutableReferences": {},
  "source": "// SPDX-License-Identifier: Apache-2.0\n\npragma solidity ^0.6.10;\npragma experimental ABIEncoderV2;\n\nimport \"@openzeppelin/contracts/access/Ownable.sol\";\n\n/*\n * Legacy version for reference and backward compatibility, similar to OwnableDocumentStore\n */\ncontract DocumentStore is Ownable {\n  string public name;\n  string public version = \"2.3.0\";\n\n  /// A mapping of the document hash to the block number that was issued\n  mapping(bytes => uint) public documentIssued;\n  /// A mapping of the hash of the claim being revoked to the revocation block number\n  mapping(bytes => uint) public documentRevoked;\n\n  event DocumentIssued(bytes indexed document);\n  event DocumentRevoked(bytes indexed document);\n\n  constructor(string memory _name) public {\n    name = _name;\n  }\n\n  function issue(bytes memory document) public onlyOwner onlyNotIssued(document) {\n    documentIssued[document] = block.timestamp;\n    emit DocumentIssued(document);\n  }\n\n  function bulkIssue(bytes[] memory documents) public {\n    for (uint256 i = 0; i < documents.length; i++) {\n      issue(documents[i]);\n    }\n  }\n\n  // function getIssuedBlock(bytes32 document) public view onlyIssued(document) returns (uint256) {\n  //   return documentIssued[document];\n  // }\n\n  function isIssued(bytes memory document) public view returns (bool) {\n    return (documentIssued[document] != 0);\n  }\n\n  // function isIssuedBefore(bytes32 document, uint256 blockNumber) public view returns (bool) {\n  //   return documentIssued[document] != 0 && documentIssued[document] <= blockNumber;\n  // }\n\n  function revoke(bytes memory document) public onlyOwner onlyNotRevoked(document) returns (bool) {\n    documentRevoked[document] = block.timestamp;\n    emit DocumentRevoked(document);\n  }\n\n  function bulkRevoke(bytes[] memory documents) public {\n    for (uint256 i = 0; i < documents.length; i++) {\n      revoke(documents[i]);\n    }\n  }\n\n  function isRevoked(bytes memory document) public view returns (bool) {\n    return documentRevoked[document] != 0;\n  }\n\n  // function isRevokedBefore(bytes32 document, uint256 blockNumber) public view returns (bool) {\n  //   return documentRevoked[document] <= blockNumber && documentRevoked[document] != 0;\n  // }\n\n  // modifier onlyIssued(bytes32 document) {\n  //   require(isIssued(document), \"Error: Only issued document hashes can be revoked\");\n  //   _;\n  // }\n\n  modifier onlyNotIssued(bytes memory document) {\n    require(!isIssued(document), \"Error: Only hashes that have not been issued can be issued\");\n    _;\n  }\n\n  modifier onlyNotRevoked(bytes memory claim) {\n    require(!isRevoked(claim), \"Error: Hash has been revoked previously\");\n    _;\n  }\n}\n",
  "sourcePath": "D:/工作文档/4.IMDA/2.hedera/TradeTrust/hedera-document-store/contracts/DocumentStore.sol",
  "compiler": {
    "name": "solc",
    "version": "0.6.12+commit.27d51765.Emscripten.clang"
  },
  "schemaVersion": "3.4.0",
  "updatedAt": "2022-02-24T08:47:52.629Z",
  "devdoc": {
    "kind": "dev",
    "methods": {
      "owner()": {
        "details": "Returns the address of the current owner."
      },
      "renounceOwnership()": {
        "details": "Leaves the contract without owner. It will not be possible to call `onlyOwner` functions anymore. Can only be called by the current owner. NOTE: Renouncing ownership will leave the contract without an owner, thereby removing any functionality that is only available to the owner."
      },
      "transferOwnership(address)": {
        "details": "Transfers ownership of the contract to a new account (`newOwner`). Can only be called by the current owner."
      }
    },
    "version": 1
  },
  "userdoc": {
    "kind": "user",
    "methods": {
      "documentIssued(bytes)": {
        "notice": "A mapping of the document hash to the block number that was issued"
      },
      "documentRevoked(bytes)": {
        "notice": "A mapping of the hash of the claim being revoked to the revocation block number"
      }
    },
    "version": 1
  }
}