{
  "contractName": "DocumentStoreWithRevokeReasons",
  "abi": [
    {
      "anonymous": false,
      "inputs": [
        {
          "indexed": true,
          "internalType": "bytes",
          "name": "document",
          "type": "bytes"
        }
      ],
      "name": "DocumentIssued",
      "type": "event"
    },
    {
      "anonymous": false,
      "inputs": [
        {
          "indexed": true,
          "internalType": "bytes",
          "name": "document",
          "type": "bytes"
        }
      ],
      "name": "DocumentRevoked",
      "type": "event"
    },
    {
      "anonymous": false,
      "inputs": [
        {
          "indexed": true,
          "internalType": "bytes",
          "name": "document",
          "type": "bytes"
        },
        {
          "indexed": false,
          "internalType": "uint256",
          "name": "reason",
          "type": "uint256"
        }
      ],
      "name": "DocumentRevokedWithReason",
      "type": "event"
    },
    {
      "anonymous": false,
      "inputs": [
        {
          "indexed": true,
          "internalType": "address",
          "name": "previousOwner",
          "type": "address"
        },
        {
          "indexed": true,
          "internalType": "address",
          "name": "newOwner",
          "type": "address"
        }
      ],
      "name": "OwnershipTransferred",
      "type": "event"
    },
    {
      "inputs": [
        {
          "internalType": "bytes[]",
          "name": "documents",
          "type": "bytes[]"
        }
      ],
      "name": "bulkIssue",
      "outputs": [],
      "stateMutability": "nonpayable",
      "type": "function"
    },
    {
      "inputs": [
        {
          "internalType": "bytes",
          "name": "",
          "type": "bytes"
        }
      ],
      "name": "documentIssued",
      "outputs": [
        {
          "internalType": "uint256",
          "name": "",
          "type": "uint256"
        }
      ],
      "stateMutability": "view",
      "type": "function"
    },
    {
      "inputs": [
        {
          "internalType": "bytes",
          "name": "",
          "type": "bytes"
        }
      ],
      "name": "documentRevoked",
      "outputs": [
        {
          "internalType": "uint256",
          "name": "",
          "type": "uint256"
        }
      ],
      "stateMutability": "view",
      "type": "function"
    },
    {
      "inputs": [
        {
          "internalType": "string",
          "name": "_name",
          "type": "string"
        },
        {
          "internalType": "address",
          "name": "owner",
          "type": "address"
        }
      ],
      "name": "initialize",
      "outputs": [],
      "stateMutability": "nonpayable",
      "type": "function"
    },
    {
      "inputs": [
        {
          "internalType": "string",
          "name": "_name",
          "type": "string"
        }
      ],
      "name": "initialize",
      "outputs": [],
      "stateMutability": "nonpayable",
      "type": "function"
    },
    {
      "inputs": [
        {
          "internalType": "bytes",
          "name": "document",
          "type": "bytes"
        }
      ],
      "name": "isIssued",
      "outputs": [
        {
          "internalType": "bool",
          "name": "",
          "type": "bool"
        }
      ],
      "stateMutability": "view",
      "type": "function"
    },
    {
      "inputs": [
        {
          "internalType": "bytes",
          "name": "document",
          "type": "bytes"
        }
      ],
      "name": "isRevoked",
      "outputs": [
        {
          "internalType": "bool",
          "name": "",
          "type": "bool"
        }
      ],
      "stateMutability": "view",
      "type": "function"
    },
    {
      "inputs": [
        {
          "internalType": "bytes",
          "name": "document",
          "type": "bytes"
        }
      ],
      "name": "issue",
      "outputs": [],
      "stateMutability": "nonpayable",
      "type": "function"
    },
    {
      "inputs": [],
      "name": "name",
      "outputs": [
        {
          "internalType": "string",
          "name": "",
          "type": "string"
        }
      ],
      "stateMutability": "view",
      "type": "function"
    },
    {
      "inputs": [],
      "name": "owner",
      "outputs": [
        {
          "internalType": "address",
          "name": "",
          "type": "address"
        }
      ],
      "stateMutability": "view",
      "type": "function"
    },
    {
      "inputs": [],
      "name": "renounceOwnership",
      "outputs": [],
      "stateMutability": "nonpayable",
      "type": "function"
    },
    {
      "inputs": [
        {
          "internalType": "bytes",
          "name": "",
          "type": "bytes"
        }
      ],
      "name": "revokeReason",
      "outputs": [
        {
          "internalType": "uint256",
          "name": "",
          "type": "uint256"
        }
      ],
      "stateMutability": "view",
      "type": "function"
    },
    {
      "inputs": [
        {
          "internalType": "address",
          "name": "newOwner",
          "type": "address"
        }
      ],
      "name": "transferOwnership",
      "outputs": [],
      "stateMutability": "nonpayable",
      "type": "function"
    },
    {
      "inputs": [],
      "name": "version",
      "outputs": [
        {
          "internalType": "string",
          "name": "",
          "type": "string"
        }
      ],
      "stateMutability": "view",
      "type": "function"
    },
    {
      "inputs": [
        {
          "internalType": "bytes",
          "name": "document",
          "type": "bytes"
        }
      ],
      "name": "revoke",
      "outputs": [
        {
          "internalType": "bool",
          "name": "",
          "type": "bool"
        }
      ],
      "stateMutability": "nonpayable",
      "type": "function"
    },
    {
      "inputs": [
        {
          "internalType": "bytes",
          "name": "document",
          "type": "bytes"
        },
        {
          "internalType": "uint256",
          "name": "reason",
          "type": "uint256"
        }
      ],
      "name": "revoke",
      "outputs": [
        {
          "internalType": "bool",
          "name": "",
          "type": "bool"
        }
      ],
      "stateMutability": "nonpayable",
      "type": "function"
    },
    {
      "inputs": [
        {
          "internalType": "bytes[]",
          "name": "documents",
          "type": "bytes[]"
        }
      ],
      "name": "bulkRevoke",
      "outputs": [],
      "stateMutability": "nonpayable",
      "type": "function"
    },
    {
      "inputs": [
        {
          "internalType": "bytes[]",
          "name": "documents",
          "type": "bytes[]"
        },
        {
          "internalType": "uint256",
          "name": "reason",
          "type": "uint256"
        }
      ],
      "name": "bulkRevoke",
      "outputs": [],
      "stateMutability": "nonpayable",
      "type": "function"
    }
  ],
  "bytecode": "0x608060405234801561001057600080fd5b50611ea4806100206000396000f3fe608060405234801561001057600080fd5b50600436106101165760003560e01c80638da5cb5b116100a2578063d1d03d4211610071578063d1d03d42146102f3578063f2fde38b1461030f578063f5f012c91461032b578063f62d188814610347578063fad280f71461036357610116565b80638da5cb5b14610259578063a91a3f3c14610277578063b41c9679146102a7578063b613823d146102d757610116565b806354fd4d50116100e957806354fd4d50146101b5578063715018a6146101d3578063755c835d146101dd5780637ab4339d1461020d57806388e3ac151461022957610116565b806305acc7a71461011b57806306fdde031461014b5780630b467b9b146101695780633188682214610199575b600080fd5b61013560048036038101906101309190611803565b610393565b6040516101429190611cab565b60405180910390f35b6101536103c1565b6040516101609190611be9565b60405180910390f35b610183600480360381019061017e9190611803565b61045f565b6040516101909190611bce565b60405180910390f35b6101b360048036038101906101ae9190611803565b610538565b005b6101bd61060b565b6040516101ca9190611be9565b60405180910390f35b6101db6106a9565b005b6101f760048036038101906101f29190611844565b6107e6565b6040516102049190611bce565b60405180910390f35b610227600480360381019061022291906118d9565b61092f565b005b610243600480360381019061023e9190611803565b610a33565b6040516102509190611bce565b60405180910390f35b610261610a5e565b60405161026e9190611bb3565b60405180910390f35b610291600480360381019061028c9190611803565b610a88565b60405161029e9190611cab565b60405180910390f35b6102c160048036038101906102bc9190611803565b610ab6565b6040516102ce9190611cab565b60405180910390f35b6102f160048036038101906102ec919061176e565b610ae4565b005b61030d6004803603810190610308919061176e565b610b6c565b005b61032960048036038101906103249190611745565b610bf4565b005b610345600480360381019061034091906117af565b610da0565b005b610361600480360381019061035c9190611898565b610e71565b005b61037d60048036038101906103789190611803565b610fbd565b60405161038a9190611bce565b60405180910390f35b6004818051602081018201805184825260208301602085012081835280955050505050506000915090505481565b60018054600181600116156101000203166002900480601f0160208091040260200160405190810160405280929190818152602001828054600181600116156101000203166002900480156104575780601f1061042c57610100808354040283529160200191610457565b820191906000526020600020905b81548152906001019060200180831161043a57829003601f168201915b505050505081565b6000610469610fe8565b73ffffffffffffffffffffffffffffffffffffffff16610487610a5e565b73ffffffffffffffffffffffffffffffffffffffff16146104dd576040517f08c379a00000000000000000000000000000000000000000000000000000000081526004016104d490611c8b565b60405180910390fd5b816104e781610a33565b15610527576040517f08c379a000000000000000000000000000000000000000000000000000000000815260040161051e90611c0b565b60405180910390fd5b61053083610ff0565b915050919050565b610540610fe8565b73ffffffffffffffffffffffffffffffffffffffff1661055e610a5e565b73ffffffffffffffffffffffffffffffffffffffff16146105b4576040517f08c379a00000000000000000000000000000000000000000000000000000000081526004016105ab90611c8b565b60405180910390fd5b806105be81610fbd565b156105fe576040517f08c379a00000000000000000000000000000000000000000000000000000000081526004016105f590611c4b565b60405180910390fd5b610607826110a7565b5050565b60028054600181600116156101000203166002900480601f0160208091040260200160405190810160405280929190818152602001828054600181600116156101000203166002900480156106a15780601f10610676576101008083540402835291602001916106a1565b820191906000526020600020905b81548152906001019060200180831161068457829003601f168201915b505050505081565b6106b1610fe8565b73ffffffffffffffffffffffffffffffffffffffff166106cf610a5e565b73ffffffffffffffffffffffffffffffffffffffff1614610725576040517f08c379a000000000000000000000000000000000000000000000000000000000815260040161071c90611c8b565b60405180910390fd5b600073ffffffffffffffffffffffffffffffffffffffff16603760009054906101000a900473ffffffffffffffffffffffffffffffffffffffff1673ffffffffffffffffffffffffffffffffffffffff167f8be0079c531659141344cd1fd0a4f28419497f9722a3daafe3b4186f6b6457e060405160405180910390a36000603760006101000a81548173ffffffffffffffffffffffffffffffffffffffff021916908373ffffffffffffffffffffffffffffffffffffffff160217905550565b60006107f0610fe8565b73ffffffffffffffffffffffffffffffffffffffff1661080e610a5e565b73ffffffffffffffffffffffffffffffffffffffff1614610864576040517f08c379a000000000000000000000000000000000000000000000000000000000815260040161085b90611c8b565b60405180910390fd5b8261086e81610a33565b156108ae576040517f08c379a00000000000000000000000000000000000000000000000000000000081526004016108a590611c0b565b60405180910390fd5b6108b78461045f565b50826069856040516108c99190611b9c565b908152602001604051809103902081905550836040516108e99190611b9c565b60405180910390207f48234167b5d0fdcc12a92e8d81c0bccd12f5f806a616be5ef20732ee3b4f7f5c846040516109209190611cab565b60405180910390a25092915050565b600060019054906101000a900460ff168061094e575061094d61115a565b5b80610964575060008054906101000a900460ff16155b6109a3576040517f08c379a000000000000000000000000000000000000000000000000000000000815260040161099a90611c6b565b60405180910390fd5b60008060019054906101000a900460ff1615905080156109f3576001600060016101000a81548160ff02191690831515021790555060016000806101000a81548160ff0219169083151502179055505b6109fb61116b565b610a0482610bf4565b610a0d83610e71565b8015610a2e5760008060016101000a81548160ff0219169083151502179055505b505050565b600080600483604051610a469190611b9c565b90815260200160405180910390205414159050919050565b6000603760009054906101000a900473ffffffffffffffffffffffffffffffffffffffff16905090565b6003818051602081018201805184825260208301602085012081835280955050505050506000915090505481565b6069818051602081018201805184825260208301602085012081835280955050505050506000915090505481565b610aec610fe8565b73ffffffffffffffffffffffffffffffffffffffff16610b0a610a5e565b73ffffffffffffffffffffffffffffffffffffffff1614610b60576040517f08c379a0000000000000000000000000000000000000000000000000000000008152600401610b5790611c8b565b60405180910390fd5b610b6981611263565b50565b610b74610fe8565b73ffffffffffffffffffffffffffffffffffffffff16610b92610a5e565b73ffffffffffffffffffffffffffffffffffffffff1614610be8576040517f08c379a0000000000000000000000000000000000000000000000000000000008152600401610bdf90611c8b565b60405180910390fd5b610bf18161129d565b50565b610bfc610fe8565b73ffffffffffffffffffffffffffffffffffffffff16610c1a610a5e565b73ffffffffffffffffffffffffffffffffffffffff1614610c70576040517f08c379a0000000000000000000000000000000000000000000000000000000008152600401610c6790611c8b565b60405180910390fd5b600073ffffffffffffffffffffffffffffffffffffffff168173ffffffffffffffffffffffffffffffffffffffff161415610ce0576040517f08c379a0000000000000000000000000000000000000000000000000000000008152600401610cd790611c2b565b60405180910390fd5b8073ffffffffffffffffffffffffffffffffffffffff16603760009054906101000a900473ffffffffffffffffffffffffffffffffffffffff1673ffffffffffffffffffffffffffffffffffffffff167f8be0079c531659141344cd1fd0a4f28419497f9722a3daafe3b4186f6b6457e060405160405180910390a380603760006101000a81548173ffffffffffffffffffffffffffffffffffffffff021916908373ffffffffffffffffffffffffffffffffffffffff16021790555050565b60005b8251811015610e6c57610dc8838281518110610dbb57fe5b602002602001015161045f565b50816069848381518110610dd857fe5b6020026020010151604051610ded9190611b9c565b908152602001604051809103902081905550828181518110610e0b57fe5b6020026020010151604051610e209190611b9c565b60405180910390207f48234167b5d0fdcc12a92e8d81c0bccd12f5f806a616be5ef20732ee3b4f7f5c83604051610e579190611cab565b60405180910390a28080600101915050610da3565b505050565b600060019054906101000a900460ff1680610e905750610e8f61115a565b5b80610ea6575060008054906101000a900460ff16155b610ee5576040517f08c379a0000000000000000000000000000000000000000000000000000000008152600401610edc90611c6b565b60405180910390fd5b60008060019054906101000a900460ff161590508015610f35576001600060016101000a81548160ff02191690831515021790555060016000806101000a81548160ff0219169083151502179055505b6040518060400160405280600581526020017f322e332e3000000000000000000000000000000000000000000000000000000081525060029080519060200190610f80929190611562565b508160019080519060200190610f97929190611562565b508015610fb95760008060016101000a81548160ff0219169083151502179055505b5050565b600080600383604051610fd09190611b9c565b90815260200160405180910390205414159050919050565b600033905090565b600081610ffc81610a33565b1561103c576040517f08c379a000000000000000000000000000000000000000000000000000000000815260040161103390611c0b565b60405180910390fd5b4260048460405161104d9190611b9c565b9081526020016040518091039020819055508260405161106d9190611b9c565b60405180910390207fd06026efabefaf58d0e4209dab86e740de514d8862953f10a22f1af8c2f2909460405160405180910390a250919050565b806110b181610fbd565b156110f1576040517f08c379a00000000000000000000000000000000000000000000000000000000081526004016110e890611c4b565b60405180910390fd5b426003836040516111029190611b9c565b908152602001604051809103902081905550816040516111229190611b9c565b60405180910390207fe733eb2ec0cbe632113b39e823b85fd4f8853b0de59757070e894c5cd983ef9f60405160405180910390a25050565b6000611165306112d6565b15905090565b600060019054906101000a900460ff168061118a575061118961115a565b5b806111a0575060008054906101000a900460ff16155b6111df576040517f08c379a00000000000000000000000000000000000000000000000000000000081526004016111d690611c6b565b60405180910390fd5b60008060019054906101000a900460ff16159050801561122f576001600060016101000a81548160ff02191690831515021790555060016000806101000a81548160ff0219169083151502179055505b6112376112e9565b61123f6113d1565b80156112605760008060016101000a81548160ff0219169083151502179055505b50565b60005b81518110156112995761128b82828151811061127e57fe5b6020026020010151610ff0565b508080600101915050611266565b5050565b60005b81518110156112d2576112c58282815181106112b857fe5b60200260200101516110a7565b80806001019150506112a0565b5050565b600080823b905060008111915050919050565b600060019054906101000a900460ff1680611308575061130761115a565b5b8061131e575060008054906101000a900460ff16155b61135d576040517f08c379a000000000000000000000000000000000000000000000000000000000815260040161135490611c6b565b60405180910390fd5b60008060019054906101000a900460ff1615905080156113ad576001600060016101000a81548160ff02191690831515021790555060016000806101000a81548160ff0219169083151502179055505b80156113ce5760008060016101000a81548160ff0219169083151502179055505b50565b600060019054906101000a900460ff16806113f057506113ef61115a565b5b80611406575060008054906101000a900460ff16155b611445576040517f08c379a000000000000000000000000000000000000000000000000000000000815260040161143c90611c6b565b60405180910390fd5b60008060019054906101000a900460ff161590508015611495576001600060016101000a81548160ff02191690831515021790555060016000806101000a81548160ff0219169083151502179055505b600061149f610fe8565b905080603760006101000a81548173ffffffffffffffffffffffffffffffffffffffff021916908373ffffffffffffffffffffffffffffffffffffffff1602179055508073ffffffffffffffffffffffffffffffffffffffff16600073ffffffffffffffffffffffffffffffffffffffff167f8be0079c531659141344cd1fd0a4f28419497f9722a3daafe3b4186f6b6457e060405160405180910390a350801561155f5760008060016101000a81548160ff0219169083151502179055505b50565b828054600181600116156101000203166002900490600052602060002090601f016020900481019282601f106115a357805160ff19168380011785556115d1565b828001600101855582156115d1579182015b828111156115d05782518255916020019190600101906115b5565b5b5090506115de91906115e2565b5090565b5b808211156115fb5760008160009055506001016115e3565b5090565b60008135905061160e81611e40565b92915050565b600082601f83011261162557600080fd5b813561163861163382611cf3565b611cc6565b9150818183526020840193506020810190508360005b8381101561167e57813586016116648882611688565b84526020840193506020830192505060018101905061164e565b5050505092915050565b600082601f83011261169957600080fd5b81356116ac6116a782611d1b565b611cc6565b915080825260208301602083018583830111156116c857600080fd5b6116d3838284611ded565b50505092915050565b600082601f8301126116ed57600080fd5b81356117006116fb82611d47565b611cc6565b9150808252602083016020830185838301111561171c57600080fd5b611727838284611ded565b50505092915050565b60008135905061173f81611e57565b92915050565b60006020828403121561175757600080fd5b6000611765848285016115ff565b91505092915050565b60006020828403121561178057600080fd5b600082013567ffffffffffffffff81111561179a57600080fd5b6117a684828501611614565b91505092915050565b600080604083850312156117c257600080fd5b600083013567ffffffffffffffff8111156117dc57600080fd5b6117e885828601611614565b92505060206117f985828601611730565b9150509250929050565b60006020828403121561181557600080fd5b600082013567ffffffffffffffff81111561182f57600080fd5b61183b84828501611688565b91505092915050565b6000806040838503121561185757600080fd5b600083013567ffffffffffffffff81111561187157600080fd5b61187d85828601611688565b925050602061188e85828601611730565b9150509250929050565b6000602082840312156118aa57600080fd5b600082013567ffffffffffffffff8111156118c457600080fd5b6118d0848285016116dc565b91505092915050565b600080604083850312156118ec57600080fd5b600083013567ffffffffffffffff81111561190657600080fd5b611912858286016116dc565b9250506020611923858286016115ff565b9150509250929050565b61193681611da5565b82525050565b61194581611db7565b82525050565b600061195682611d73565b6119608185611d89565b9350611970818560208601611dfc565b80840191505092915050565b600061198782611d7e565b6119918185611d94565b93506119a1818560208601611dfc565b6119aa81611e2f565b840191505092915050565b60006119c2602783611d94565b91507f4572726f723a204861736820686173206265656e207265766f6b65642070726560008301527f76696f75736c79000000000000000000000000000000000000000000000000006020830152604082019050919050565b6000611a28602683611d94565b91507f4f776e61626c653a206e6577206f776e657220697320746865207a65726f206160008301527f64647265737300000000000000000000000000000000000000000000000000006020830152604082019050919050565b6000611a8e603a83611d94565b91507f4572726f723a204f6e6c792068617368657320746861742068617665206e6f7460008301527f206265656e206973737565642063616e206265206973737565640000000000006020830152604082019050919050565b6000611af4602e83611d94565b91507f496e697469616c697a61626c653a20636f6e747261637420697320616c72656160008301527f647920696e697469616c697a65640000000000000000000000000000000000006020830152604082019050919050565b6000611b5a602083611d94565b91507f4f776e61626c653a2063616c6c6572206973206e6f7420746865206f776e65726000830152602082019050919050565b611b9681611de3565b82525050565b6000611ba8828461194b565b915081905092915050565b6000602082019050611bc8600083018461192d565b92915050565b6000602082019050611be3600083018461193c565b92915050565b60006020820190508181036000830152611c03818461197c565b905092915050565b60006020820190508181036000830152611c24816119b5565b9050919050565b60006020820190508181036000830152611c4481611a1b565b9050919050565b60006020820190508181036000830152611c6481611a81565b9050919050565b60006020820190508181036000830152611c8481611ae7565b9050919050565b60006020820190508181036000830152611ca481611b4d565b9050919050565b6000602082019050611cc06000830184611b8d565b92915050565b6000604051905081810181811067ffffffffffffffff82111715611ce957600080fd5b8060405250919050565b600067ffffffffffffffff821115611d0a57600080fd5b602082029050602081019050919050565b600067ffffffffffffffff821115611d3257600080fd5b601f19601f8301169050602081019050919050565b600067ffffffffffffffff821115611d5e57600080fd5b601f19601f8301169050602081019050919050565b600081519050919050565b600081519050919050565b600081905092915050565b600082825260208201905092915050565b6000611db082611dc3565b9050919050565b60008115159050919050565b600073ffffffffffffffffffffffffffffffffffffffff82169050919050565b6000819050919050565b82818337600083830152505050565b60005b83811015611e1a578082015181840152602081019050611dff565b83811115611e29576000848401525b50505050565b6000601f19601f8301169050919050565b611e4981611da5565b8114611e5457600080fd5b50565b611e6081611de3565b8114611e6b57600080fd5b5056fea2646970667358221220426d457ff4cb1ede281588114833662d28e2028aa0a913d01898cfd4f4de2e8164736f6c634300060c0033",
  "immutableReferences": {},
  "source": "// SPDX-License-Identifier: Apache-2.0\n\npragma solidity ^0.6.10;\npragma experimental ABIEncoderV2;\n\nimport \"./UpgradableDocumentStore.sol\";\n\ncontract DocumentStoreWithRevokeReasons is UpgradableDocumentStore {\n  /// A mapping of the document hash to the block number that was issued\n  mapping(bytes => uint256) public revokeReason;\n\n  event DocumentRevokedWithReason(bytes indexed document, uint256 reason);\n\n  function revoke(bytes memory document, uint256 reason) public onlyOwner onlyNotRevoked(document) returns (bool) {\n    revoke(document);\n    revokeReason[document] = reason;\n    emit DocumentRevokedWithReason(document, reason);\n  }\n\n  function bulkRevoke(bytes[] memory documents, uint256 reason) public {\n    for (uint256 i = 0; i < documents.length; i++) {\n      revoke(documents[i]);\n      revokeReason[documents[i]] = reason;\n      emit DocumentRevokedWithReason(documents[i], reason);\n    }\n  }\n}\n",
  "sourcePath": "D://4.IMDA/2.hedera/TradeTrust/hedera-document-store/contracts/DocumentStoreWithRevokeReasons.sol",
  "compiler": {
    "name": "solc",
    "version": "0.6.12+commit.27d51765.Emscripten.clang"
  },
  "schemaVersion": "3.4.0",
  "updatedAt": "2022-02-24T08:47:52.636Z",
  "devdoc": {
    "kind": "dev",
    "methods": {
      "owner()": {
        "details": "Returns the address of the current owner."
      },
      "renounceOwnership()": {
        "details": "Leaves the contract without owner. It will not be possible to call `onlyOwner` functions anymore. Can only be called by the current owner. NOTE: Renouncing ownership will leave the contract without an owner, thereby removing any functionality that is only available to the owner."
      },
      "transferOwnership(address)": {
        "details": "Transfers ownership of the contract to a new account (`newOwner`). Can only be called by the current owner."
      }
    },
    "version": 1
  },
  "userdoc": {
    "kind": "user",
    "methods": {
      "documentIssued(bytes)": {
        "notice": "A mapping of the document hash to the block number that was issued"
      },
      "documentRevoked(bytes)": {
        "notice": "A mapping of the hash of the claim being revoked to the revocation block number"
      },
      "revokeReason(bytes)": {
        "notice": "A mapping of the document hash to the block number that was issued"
      }
    },
    "version": 1
  }
}