{
  "contractName": "Forwarder",
  "abi": [
    {
      "inputs": [],
      "stateMutability": "nonpayable",
      "type": "constructor"
    },
    {
      "anonymous": false,
      "inputs": [
        {
          "indexed": true,
          "internalType": "bytes32",
          "name": "domainSeparator",
          "type": "bytes32"
        },
        {
          "indexed": false,
          "internalType": "bytes",
          "name": "domainValue",
          "type": "bytes"
        }
      ],
      "name": "DomainRegistered",
      "type": "event"
    },
    {
      "anonymous": false,
      "inputs": [
        {
          "indexed": true,
          "internalType": "bytes32",
          "name": "typeHash",
          "type": "bytes32"
        },
        {
          "indexed": false,
          "internalType": "string",
          "name": "typeStr",
          "type": "string"
        }
      ],
      "name": "RequestTypeRegistered",
      "type": "event"
    },
    {
      "inputs": [],
      "name": "EIP712_DOMAIN_TYPE",
      "outputs": [
        {
          "internalType": "string",
          "name": "",
          "type": "string"
        }
      ],
      "stateMutability": "view",
      "type": "function"
    },
    {
      "inputs": [],
      "name": "GENERIC_PARAMS",
      "outputs": [
        {
          "internalType": "string",
          "name": "",
          "type": "string"
        }
      ],
      "stateMutability": "view",
      "type": "function"
    },
    {
      "inputs": [
        {
          "internalType": "bytes32",
          "name": "",
          "type": "bytes32"
        }
      ],
      "name": "domains",
      "outputs": [
        {
          "internalType": "bool",
          "name": "",
          "type": "bool"
        }
      ],
      "stateMutability": "view",
      "type": "function"
    },
    {
      "inputs": [
        {
          "internalType": "bytes32",
          "name": "",
          "type": "bytes32"
        }
      ],
      "name": "typeHashes",
      "outputs": [
        {
          "internalType": "bool",
          "name": "",
          "type": "bool"
        }
      ],
      "stateMutability": "view",
      "type": "function"
    },
    {
      "stateMutability": "payable",
      "type": "receive"
    },
    {
      "inputs": [
        {
          "internalType": "address",
          "name": "from",
          "type": "address"
        }
      ],
      "name": "getNonce",
      "outputs": [
        {
          "internalType": "uint256",
          "name": "",
          "type": "uint256"
        }
      ],
      "stateMutability": "view",
      "type": "function"
    },
    {
      "inputs": [
        {
          "components": [
            {
              "internalType": "address",
              "name": "from",
              "type": "address"
            },
            {
              "internalType": "address",
              "name": "to",
              "type": "address"
            },
            {
              "internalType": "uint256",
              "name": "value",
              "type": "uint256"
            },
            {
              "internalType": "uint256",
              "name": "gas",
              "type": "uint256"
            },
            {
              "internalType": "uint256",
              "name": "nonce",
              "type": "uint256"
            },
            {
              "internalType": "bytes",
              "name": "data",
              "type": "bytes"
            }
          ],
          "internalType": "struct IForwarder.ForwardRequest",
          "name": "req",
          "type": "tuple"
        },
        {
          "internalType": "bytes32",
          "name": "domainSeparator",
          "type": "bytes32"
        },
        {
          "internalType": "bytes32",
          "name": "requestTypeHash",
          "type": "bytes32"
        },
        {
          "internalType": "bytes",
          "name": "suffixData",
          "type": "bytes"
        },
        {
          "internalType": "bytes",
          "name": "sig",
          "type": "bytes"
        }
      ],
      "name": "verify",
      "outputs": [],
      "stateMutability": "view",
      "type": "function"
    },
    {
      "inputs": [
        {
          "components": [
            {
              "internalType": "address",
              "name": "from",
              "type": "address"
            },
            {
              "internalType": "address",
              "name": "to",
              "type": "address"
            },
            {
              "internalType": "uint256",
              "name": "value",
              "type": "uint256"
            },
            {
              "internalType": "uint256",
              "name": "gas",
              "type": "uint256"
            },
            {
              "internalType": "uint256",
              "name": "nonce",
              "type": "uint256"
            },
            {
              "internalType": "bytes",
              "name": "data",
              "type": "bytes"
            }
          ],
          "internalType": "struct IForwarder.ForwardRequest",
          "name": "req",
          "type": "tuple"
        },
        {
          "internalType": "bytes32",
          "name": "domainSeparator",
          "type": "bytes32"
        },
        {
          "internalType": "bytes32",
          "name": "requestTypeHash",
          "type": "bytes32"
        },
        {
          "internalType": "bytes",
          "name": "suffixData",
          "type": "bytes"
        },
        {
          "internalType": "bytes",
          "name": "sig",
          "type": "bytes"
        }
      ],
      "name": "execute",
      "outputs": [
        {
          "internalType": "bool",
          "name": "success",
          "type": "bool"
        },
        {
          "internalType": "bytes",
          "name": "ret",
          "type": "bytes"
        }
      ],
      "stateMutability": "payable",
      "type": "function"
    },
    {
      "inputs": [
        {
          "internalType": "string",
          "name": "typeName",
          "type": "string"
        },
        {
          "internalType": "string",
          "name": "typeSuffix",
          "type": "string"
        }
      ],
      "name": "registerRequestType",
      "outputs": [],
      "stateMutability": "nonpayable",
      "type": "function"
    },
    {
      "inputs": [
        {
          "internalType": "string",
          "name": "name",
          "type": "string"
        },
        {
          "internalType": "string",
          "name": "version",
          "type": "string"
        }
      ],
      "name": "registerDomainSeparator",
      "outputs": [],
      "stateMutability": "nonpayable",
      "type": "function"
    },
    {
      "inputs": [
        {
          "components": [
            {
              "internalType": "address",
              "name": "from",
              "type": "address"
            },
            {
              "internalType": "address",
              "name": "to",
              "type": "address"
            },
            {
              "internalType": "uint256",
              "name": "value",
              "type": "uint256"
            },
            {
              "internalType": "uint256",
              "name": "gas",
              "type": "uint256"
            },
            {
              "internalType": "uint256",
              "name": "nonce",
              "type": "uint256"
            },
            {
              "internalType": "bytes",
              "name": "data",
              "type": "bytes"
            }
          ],
          "internalType": "struct IForwarder.ForwardRequest",
          "name": "req",
          "type": "tuple"
        },
        {
          "internalType": "bytes32",
          "name": "requestTypeHash",
          "type": "bytes32"
        },
        {
          "internalType": "bytes",
          "name": "suffixData",
          "type": "bytes"
        }
      ],
      "name": "_getEncoded",
      "outputs": [
        {
          "internalType": "bytes",
          "name": "",
          "type": "bytes"
        }
      ],
      "stateMutability": "pure",
      "type": "function"
    }
  ],
  "bytecode": "0x60806040523480156200001157600080fd5b5060606040518060800160405280604a815260200162001f7a604a9139604051602001620000409190620001da565b604051602081830303815290604052905062000062816200006960201b60201c565b506200029f565b600081805190602001209050600160008083815260200190815260200160002060006101000a81548160ff021916908315150217905550807f64d6bce64323458c44643c51fe45113efc882082f7b7fd5f09f0d69d2eedb20283604051620000d291906200020d565b60405180910390a25050565b6000620000eb8262000231565b620000f781856200023c565b93506200010981856020860162000258565b62000114816200028e565b840191505092915050565b60006200012c8262000231565b6200013881856200024d565b93506200014a81856020860162000258565b80840191505092915050565b600062000165600f836200024d565b91507f466f7277617264526571756573742800000000000000000000000000000000006000830152600f82019050919050565b6000620001a76001836200024d565b91507f29000000000000000000000000000000000000000000000000000000000000006000830152600182019050919050565b6000620001e78262000156565b9150620001f582846200011f565b9150620002028262000198565b915081905092915050565b60006020820190508181036000830152620002298184620000de565b905092915050565b600081519050919050565b600082825260208201905092915050565b600081905092915050565b60005b83811015620002785780820151818401526020810190506200025b565b8381111562000288576000848401525b50505050565b6000601f19601f8301169050919050565b611ccb80620002af6000396000f3fe6080604052600436106100955760003560e01c8063c3f28abd11610059578063c3f28abd14610198578063c45c2674146101c3578063c722f17714610200578063cdf5735a1461023d578063d9210be51461026e5761009c565b8063066a310c146100a157806321fe98df146100cc5780632d0335ab14610109578063992d82c3146101465780639c7b45921461016f5761009c565b3661009c57005b600080fd5b3480156100ad57600080fd5b506100b6610297565b6040516100c391906118b1565b60405180910390f35b3480156100d857600080fd5b506100f360048036038101906100ee9190610f65565b6102b3565b60405161010091906117ac565b60405180910390f35b34801561011557600080fd5b50610130600480360381019061012b9190610f3c565b6102d3565b60405161013d91906119f3565b60405180910390f35b34801561015257600080fd5b5061016d60048036038101906101689190611003565b61031c565b005b34801561017b57600080fd5b5061019660048036038101906101919190610f8e565b6103c3565b005b3480156101a457600080fd5b506101ad6104b9565b6040516101ba91906118b1565b60405180910390f35b3480156101cf57600080fd5b506101ea60048036038101906101e591906110cb565b6104d5565b6040516101f7919061188f565b60405180910390f35b34801561020c57600080fd5b5061022760048036038101906102229190610f65565b61054c565b60405161023491906117ac565b60405180910390f35b61025760048036038101906102529190611003565b61056c565b6040516102659291906117c7565b60405180910390f35b34801561027a57600080fd5b5061029560048036038101906102909190610f8e565b610720565b005b6040518060800160405280604a8152602001611bfa604a913981565b60006020528060005260406000206000915054906101000a900460ff1681565b6000600260008373ffffffffffffffffffffffffffffffffffffffff1673ffffffffffffffffffffffffffffffffffffffff168152602001908152602001600020549050919050565b6103258761087e565b6103ba87878787878080601f016020809104026020016040519081016040528093929190818152602001838380828437600081840152601f19601f8201169050808301925050505050505086868080601f016020809104026020016040519081016040528093929190818152602001838380828437600081840152601f19601f8201169050808301925050505050505061090a565b50505050505050565b60004690506060604051806080016040528060528152602001611c44605291398051906020012086866040516103fa929190611671565b60405180910390208585604051610412929190611671565b604051809103902084306040516020016104309594939291906117f7565b6040516020818303038152906040529050600081805190602001209050600180600083815260200190815260200160002060006101000a81548160ff021916908315150217905550807f4bc68689cbe89a4a6333a3ab0a70093874da3e5bfb71e93102027f3f073687d8836040516104a8919061188f565b60405180910390a250505050505050565b604051806080016040528060528152602001611c446052913981565b606082846000015185602001518660400151876060015188608001518960a00151805190602001206040516020016105129695949392919061174b565b604051602081830303815290604052836040516020016105349392919061163c565b60405160208183030381529060405290509392505050565b60016020528060005260406000206000915054906101000a900460ff1681565b600060606105798961087e565b61060e89898989898080601f016020809104026020016040519081016040528093929190818152602001838380828437600081840152601f19601f8201169050808301925050505050505088888080601f016020809104026020016040519081016040528093929190818152602001838380828437600081840152601f19601f8201169050808301925050505050505061090a565b61061789610a93565b886020015173ffffffffffffffffffffffffffffffffffffffff1689606001518a604001518b60a001518c600001516040516020016106579291906116a1565b604051602081830303815290604052604051610673919061168a565b600060405180830381858888f193505050503d80600081146106b1576040519150601f19603f3d011682016040523d82523d6000602084013e6106b6565b606091505b508092508193505050600047111561071457886000015173ffffffffffffffffffffffffffffffffffffffff166108fc479081150290604051600060405180830381858888f19350505050158015610712573d6000803e3d6000fd5b505b97509795505050505050565b60005b8484905081101561082957600085858381811061073c57fe5b9050013560f81c60f81b90507f2800000000000000000000000000000000000000000000000000000000000000817effffffffffffffffffffffffffffffffffffffffffffffffffffffffffffff1916141580156107dc57507f2900000000000000000000000000000000000000000000000000000000000000817effffffffffffffffffffffffffffffffffffffffffffffffffffffffffffff191614155b61081b576040517f08c379a000000000000000000000000000000000000000000000000000000000815260040161081290611913565b60405180910390fd5b508080600101915050610723565b50606084846040518060800160405280604a8152602001611bfa604a9139858560405160200161085d9594939291906116c9565b604051602081830303815290604052905061087781610ae9565b5050505050565b806080015160026000836000015173ffffffffffffffffffffffffffffffffffffffff1673ffffffffffffffffffffffffffffffffffffffff1681526020019081526020016000205414610907576040517f08c379a00000000000000000000000000000000000000000000000000000000081526004016108fe90611933565b60405180910390fd5b50565b6001600085815260200190815260200160002060009054906101000a900460ff1661096a576040517f08c379a000000000000000000000000000000000000000000000000000000000815260040161096190611993565b60405180910390fd5b60008084815260200190815260200160002060009054906101000a900460ff166109c9576040517f08c379a00000000000000000000000000000000000000000000000000000000081526004016109c090611973565b60405180910390fd5b6000846109d78786866104d5565b805190602001206040516020016109ef929190611714565b604051602081830303815290604052805190602001209050856000015173ffffffffffffffffffffffffffffffffffffffff16610a358383610b5c90919063ffffffff16565b73ffffffffffffffffffffffffffffffffffffffff1614610a8b576040517f08c379a0000000000000000000000000000000000000000000000000000000008152600401610a82906119d3565b60405180910390fd5b505050505050565b60026000826000015173ffffffffffffffffffffffffffffffffffffffff1673ffffffffffffffffffffffffffffffffffffffff1681526020019081526020016000206000815480929190600101919050555050565b600081805190602001209050600160008083815260200190815260200160002060006101000a81548160ff021916908315150217905550807f64d6bce64323458c44643c51fe45113efc882082f7b7fd5f09f0d69d2eedb20283604051610b5091906118b1565b60405180910390a25050565b60006041825114610ba2576040517f08c379a0000000000000000000000000000000000000000000000000000000008152600401610b99906118f3565b60405180910390fd5b60008060006020850151925060408501519150606085015160001a9050610bcb86828585610bd6565b935050505092915050565b60007f7fffffffffffffffffffffffffffffff5d576e7357a4501ddfe92f46681b20a08260001c1115610c3e576040517f08c379a0000000000000000000000000000000000000000000000000000000008152600401610c3590611953565b60405180910390fd5b601b8460ff161480610c535750601c8460ff16145b610c92576040517f08c379a0000000000000000000000000000000000000000000000000000000008152600401610c89906119b3565b60405180910390fd5b600060018686868660405160008152602001604052604051610cb7949392919061184a565b6020604051602081039080840390855afa158015610cd9573d6000803e3d6000fd5b505050602060405103519050600073ffffffffffffffffffffffffffffffffffffffff168173ffffffffffffffffffffffffffffffffffffffff161415610d55576040517f08c379a0000000000000000000000000000000000000000000000000000000008152600401610d4c906118d3565b60405180910390fd5b80915050949350505050565b600081359050610d7081611bb4565b92915050565b600081359050610d8581611bcb565b92915050565b60008083601f840112610d9d57600080fd5b8235905067ffffffffffffffff811115610db657600080fd5b602083019150836001820283011115610dce57600080fd5b9250929050565b600082601f830112610de657600080fd5b8135610df9610df482611a3b565b611a0e565b91508082526020830160208301858383011115610e1557600080fd5b610e20838284611b26565b50505092915050565b60008083601f840112610e3b57600080fd5b8235905067ffffffffffffffff811115610e5457600080fd5b602083019150836001820283011115610e6c57600080fd5b9250929050565b600060c08284031215610e8557600080fd5b610e8f60c0611a0e565b90506000610e9f84828501610d61565b6000830152506020610eb384828501610d61565b6020830152506040610ec784828501610f27565b6040830152506060610edb84828501610f27565b6060830152506080610eef84828501610f27565b60808301525060a082013567ffffffffffffffff811115610f0f57600080fd5b610f1b84828501610dd5565b60a08301525092915050565b600081359050610f3681611be2565b92915050565b600060208284031215610f4e57600080fd5b6000610f5c84828501610d61565b91505092915050565b600060208284031215610f7757600080fd5b6000610f8584828501610d76565b91505092915050565b60008060008060408587031215610fa457600080fd5b600085013567ffffffffffffffff811115610fbe57600080fd5b610fca87828801610e29565b9450945050602085013567ffffffffffffffff811115610fe957600080fd5b610ff587828801610e29565b925092505092959194509250565b600080600080600080600060a0888a03121561101e57600080fd5b600088013567ffffffffffffffff81111561103857600080fd5b6110448a828b01610e73565b97505060206110558a828b01610d76565b96505060406110668a828b01610d76565b955050606088013567ffffffffffffffff81111561108357600080fd5b61108f8a828b01610d8b565b9450945050608088013567ffffffffffffffff8111156110ae57600080fd5b6110ba8a828b01610d8b565b925092505092959891949750929550565b6000806000606084860312156110e057600080fd5b600084013567ffffffffffffffff8111156110fa57600080fd5b61110686828701610e73565b935050602061111786828701610d76565b925050604084013567ffffffffffffffff81111561113457600080fd5b61114086828701610dd5565b9150509250925092565b61115381611ac7565b82525050565b61116281611ab5565b82525050565b61117961117482611ab5565b611b68565b82525050565b61118881611ad9565b82525050565b61119781611ae5565b82525050565b6111ae6111a982611ae5565b611b7a565b82525050565b60006111c08385611a8e565b93506111cd838584611b26565b82840190509392505050565b60006111e482611a67565b6111ee8185611a7d565b93506111fe818560208601611b35565b61120781611b96565b840191505092915050565b600061121d82611a67565b6112278185611a8e565b9350611237818560208601611b35565b80840191505092915050565b600061124f8385611aaa565b935061125c838584611b26565b82840190509392505050565b600061127382611a72565b61127d8185611a99565b935061128d818560208601611b35565b61129681611b96565b840191505092915050565b60006112ac82611a72565b6112b68185611aaa565b93506112c6818560208601611b35565b80840191505092915050565b60006112df601883611a99565b91507f45434453413a20696e76616c6964207369676e617475726500000000000000006000830152602082019050919050565b600061131f601f83611a99565b91507f45434453413a20696e76616c6964207369676e6174757265206c656e677468006000830152602082019050919050565b600061135f601083611a99565b91507f696e76616c696420747970656e616d65000000000000000000000000000000006000830152602082019050919050565b600061139f600e83611a99565b91507f6e6f6e6365206d69736d617463680000000000000000000000000000000000006000830152602082019050919050565b60006113df600283611aaa565b91507f19010000000000000000000000000000000000000000000000000000000000006000830152600282019050919050565b600061141f600183611aaa565b91507f2c000000000000000000000000000000000000000000000000000000000000006000830152600182019050919050565b600061145f600183611aaa565b91507f28000000000000000000000000000000000000000000000000000000000000006000830152600182019050919050565b600061149f602283611a99565b91507f45434453413a20696e76616c6964207369676e6174757265202773272076616c60008301527f75650000000000000000000000000000000000000000000000000000000000006020830152604082019050919050565b6000611505601d83611a99565b91507f756e7265676973746572656420726571756573742074797065686173680000006000830152602082019050919050565b6000611545601d83611a99565b91507f756e7265676973746572656420646f6d61696e20736570617261746f720000006000830152602082019050919050565b6000611585602283611a99565b91507f45434453413a20696e76616c6964207369676e6174757265202776272076616c60008301527f75650000000000000000000000000000000000000000000000000000000000006020830152604082019050919050565b60006115eb601283611a99565b91507f7369676e6174757265206d69736d6174636800000000000000000000000000006000830152602082019050919050565b61162781611b0f565b82525050565b61163681611b19565b82525050565b6000611648828661119d565b6020820191506116588285611212565b91506116648284611212565b9150819050949350505050565b600061167e8284866111b4565b91508190509392505050565b60006116968284611212565b915081905092915050565b60006116ad8285611212565b91506116b98284611168565b6014820191508190509392505050565b60006116d6828789611243565b91506116e182611452565b91506116ed82866112a1565b91506116f882611412565b9150611705828486611243565b91508190509695505050505050565b600061171f826113d2565b915061172b828561119d565b60208201915061173b828461119d565b6020820191508190509392505050565b600060c0820190506117606000830189611159565b61176d6020830188611159565b61177a604083018761161e565b611787606083018661161e565b611794608083018561161e565b6117a160a083018461118e565b979650505050505050565b60006020820190506117c1600083018461117f565b92915050565b60006040820190506117dc600083018561117f565b81810360208301526117ee81846111d9565b90509392505050565b600060a08201905061180c600083018861118e565b611819602083018761118e565b611826604083018661118e565b611833606083018561161e565b611840608083018461114a565b9695505050505050565b600060808201905061185f600083018761118e565b61186c602083018661162d565b611879604083018561118e565b611886606083018461118e565b95945050505050565b600060208201905081810360008301526118a981846111d9565b905092915050565b600060208201905081810360008301526118cb8184611268565b905092915050565b600060208201905081810360008301526118ec816112d2565b9050919050565b6000602082019050818103600083015261190c81611312565b9050919050565b6000602082019050818103600083015261192c81611352565b9050919050565b6000602082019050818103600083015261194c81611392565b9050919050565b6000602082019050818103600083015261196c81611492565b9050919050565b6000602082019050818103600083015261198c816114f8565b9050919050565b600060208201905081810360008301526119ac81611538565b9050919050565b600060208201905081810360008301526119cc81611578565b9050919050565b600060208201905081810360008301526119ec816115de565b9050919050565b6000602082019050611a08600083018461161e565b92915050565b6000604051905081810181811067ffffffffffffffff82111715611a3157600080fd5b8060405250919050565b600067ffffffffffffffff821115611a5257600080fd5b601f19601f8301169050602081019050919050565b600081519050919050565b600081519050919050565b600082825260208201905092915050565b600081905092915050565b600082825260208201905092915050565b600081905092915050565b6000611ac082611aef565b9050919050565b6000611ad282611aef565b9050919050565b60008115159050919050565b6000819050919050565b600073ffffffffffffffffffffffffffffffffffffffff82169050919050565b6000819050919050565b600060ff82169050919050565b82818337600083830152505050565b60005b83811015611b53578082015181840152602081019050611b38565b83811115611b62576000848401525b50505050565b6000611b7382611b84565b9050919050565b6000819050919050565b6000611b8f82611ba7565b9050919050565b6000601f19601f8301169050919050565b60008160601b9050919050565b611bbd81611ab5565b8114611bc857600080fd5b50565b611bd481611ae5565b8114611bdf57600080fd5b50565b611beb81611b0f565b8114611bf657600080fd5b5056fe616464726573732066726f6d2c6164647265737320746f2c75696e743235362076616c75652c75696e74323536206761732c75696e74323536206e6f6e63652c62797465732064617461454950373132446f6d61696e28737472696e67206e616d652c737472696e672076657273696f6e2c75696e7432353620636861696e49642c6164647265737320766572696679696e67436f6e747261637429a2646970667358221220bbd58fe1a74851653874f8523824a744111de8521f093046827e0f60fb7b0fd164736f6c634300060c0033616464726573732066726f6d2c6164647265737320746f2c75696e743235362076616c75652c75696e74323536206761732c75696e74323536206e6f6e63652c62797465732064617461",
  "immutableReferences": {},
  "source": "// SPDX-License-Identifier:MIT\npragma solidity ^0.6.2;\npragma experimental ABIEncoderV2;\n\nimport \"@openzeppelin/contracts/cryptography/ECDSA.sol\";\nimport \"./IForwarder.sol\";\n\ncontract Forwarder is IForwarder {\n    using ECDSA for bytes32;\n\n    string public constant GENERIC_PARAMS = \"address from,address to,uint256 value,uint256 gas,uint256 nonce,bytes data\";\n\n    string public constant EIP712_DOMAIN_TYPE = \"EIP712Domain(string name,string version,uint256 chainId,address verifyingContract)\";\n\n    mapping(bytes32 => bool) public typeHashes;\n    mapping(bytes32 => bool) public domains;\n\n    // Nonces of senders, used to prevent replay attacks\n    mapping(address => uint256) private nonces;\n\n    // solhint-disable-next-line no-empty-blocks\n    receive() external payable {}\n\n    function getNonce(address from)\n    public view override\n    returns (uint256) {\n        return nonces[from];\n    }\n\n    constructor() public {\n\n        string memory requestType = string(abi.encodePacked(\"ForwardRequest(\", GENERIC_PARAMS, \")\"));\n        registerRequestTypeInternal(requestType);\n    }\n\n    function verify(\n        ForwardRequest memory req,\n        bytes32 domainSeparator,\n        bytes32 requestTypeHash,\n        bytes calldata suffixData,\n        bytes calldata sig)\n    external override view {\n\n        _verifyNonce(req);\n        _verifySig(req, domainSeparator, requestTypeHash, suffixData, sig);\n    }\n\n    function execute(\n        ForwardRequest memory req,\n        bytes32 domainSeparator,\n        bytes32 requestTypeHash,\n        bytes calldata suffixData,\n        bytes calldata sig\n    )\n    external payable\n    override\n    returns (bool success, bytes memory ret) {\n        _verifyNonce(req);\n        _verifySig(req, domainSeparator, requestTypeHash, suffixData, sig);\n        _updateNonce(req);\n\n        // solhint-disable-next-line avoid-low-level-calls\n        (success,ret) = req.to.call{gas : req.gas, value : req.value}(abi.encodePacked(req.data, req.from));\n        if ( address(this).balance>0 ) {\n            //can't fail: req.from signed (off-chain) the request, so it must be an EOA...\n            payable(req.from).transfer(address(this).balance);\n        }\n        return (success,ret);\n    }\n\n\n    function _verifyNonce(ForwardRequest memory req) internal view {\n        require(nonces[req.from] == req.nonce, \"nonce mismatch\");\n    }\n\n    function _updateNonce(ForwardRequest memory req) internal {\n        nonces[req.from]++;\n    }\n\n    function registerRequestType(string calldata typeName, string calldata typeSuffix) external override {\n\n        for (uint i = 0; i < bytes(typeName).length; i++) {\n            bytes1 c = bytes(typeName)[i];\n            require(c != \"(\" && c != \")\", \"invalid typename\");\n        }\n\n        string memory requestType = string(abi.encodePacked(typeName, \"(\", GENERIC_PARAMS, \",\", typeSuffix));\n        registerRequestTypeInternal(requestType);\n    }\n\n    function registerDomainSeparator(string calldata name, string calldata version) external override {\n        uint256 chainId;\n        /* solhint-disable-next-line no-inline-assembly */\n        assembly { chainId := chainid() }\n\n        bytes memory domainValue = abi.encode(\n            keccak256(bytes(EIP712_DOMAIN_TYPE)),\n            keccak256(bytes(name)),\n            keccak256(bytes(version)),\n            chainId,\n            address(this));\n\n        bytes32 domainHash = keccak256(domainValue);\n\n        domains[domainHash] = true;\n        emit DomainRegistered(domainHash, domainValue);\n    }\n\n    function registerRequestTypeInternal(string memory requestType) internal {\n\n        bytes32 requestTypehash = keccak256(bytes(requestType));\n        typeHashes[requestTypehash] = true;\n        emit RequestTypeRegistered(requestTypehash, requestType);\n    }\n\n    event DomainRegistered(bytes32 indexed domainSeparator, bytes domainValue);\n\n    event RequestTypeRegistered(bytes32 indexed typeHash, string typeStr);\n\n\n    function _verifySig(\n        ForwardRequest memory req,\n        bytes32 domainSeparator,\n        bytes32 requestTypeHash,\n        bytes memory suffixData,\n        bytes memory sig)\n    internal\n    view\n    {\n        require(domains[domainSeparator], \"unregistered domain separator\");\n        require(typeHashes[requestTypeHash], \"unregistered request typehash\");\n        bytes32 digest = keccak256(abi.encodePacked(\n                \"\\x19\\x01\", domainSeparator,\n                keccak256(_getEncoded(req, requestTypeHash, suffixData))\n            ));\n        require(digest.recover(sig) == req.from, \"signature mismatch\");\n    }\n\n    function _getEncoded(\n        ForwardRequest memory req,\n        bytes32 requestTypeHash,\n        bytes memory suffixData\n    )\n    public\n    pure\n    returns (\n        bytes memory\n    ) {\n        return abi.encodePacked(\n            requestTypeHash,\n            abi.encode(\n                req.from,\n                req.to,\n                req.value,\n                req.gas,\n                req.nonce,\n                keccak256(req.data)\n            ),\n            suffixData\n        );\n    }\n}\n",
  "sourcePath": "@opengsn\\gsn\\contracts\\forwarder\\Forwarder.sol",
  "compiler": {
    "name": "solc",
    "version": "0.6.12+commit.27d51765.Emscripten.clang"
  },
  "schemaVersion": "3.4.0",
  "updatedAt": "2022-02-24T08:47:52.676Z",
  "devdoc": {
    "kind": "dev",
    "methods": {
      "registerDomainSeparator(string,string)": {
        "params": {
          "name": "the domain's display name",
          "version": "the domain/protocol version"
        }
      },
      "registerRequestType(string,string)": {
        "params": {
          "typeName": "- the name of the request type.",
          "typeSuffix": "- anything after the generic params can be empty string (if no extra fields are needed)        if it does contain a value, then a comma is added first."
        }
      }
    },
    "version": 1
  },
  "userdoc": {
    "kind": "user",
    "methods": {
      "registerDomainSeparator(string,string)": {
        "notice": "Register a new domain separator. The domain separator must have the following fields: name,version,chainId, verifyingContract. the chainId is the current network's chainId, and the verifyingContract is this forwarder. This method is given the domain name and version to create and register the domain separator value."
      },
      "registerRequestType(string,string)": {
        "notice": "Register a new Request typehash."
      }
    },
    "version": 1
  }
}