{
  "contractName": "GsnCapableDocumentStore",
  "abi": [
    {
      "inputs": [
        {
          "internalType": "string",
          "name": "_name",
          "type": "string"
        },
        {
          "internalType": "address",
          "name": "_forwarder",
          "type": "address"
        }
      ],
      "stateMutability": "nonpayable",
      "type": "constructor"
    },
    {
      "anonymous": false,
      "inputs": [
        {
          "indexed": true,
          "internalType": "bytes",
          "name": "document",
          "type": "bytes"
        }
      ],
      "name": "DocumentIssued",
      "type": "event"
    },
    {
      "anonymous": false,
      "inputs": [
        {
          "indexed": true,
          "internalType": "bytes",
          "name": "document",
          "type": "bytes"
        }
      ],
      "name": "DocumentRevoked",
      "type": "event"
    },
    {
      "anonymous": false,
      "inputs": [
        {
          "indexed": true,
          "internalType": "address",
          "name": "previousOwner",
          "type": "address"
        },
        {
          "indexed": true,
          "internalType": "address",
          "name": "newOwner",
          "type": "address"
        }
      ],
      "name": "OwnershipTransferred",
      "type": "event"
    },
    {
      "anonymous": false,
      "inputs": [
        {
          "indexed": true,
          "internalType": "address",
          "name": "target",
          "type": "address"
        }
      ],
      "name": "PaymasterSet",
      "type": "event"
    },
    {
      "inputs": [
        {
          "internalType": "bytes[]",
          "name": "documents",
          "type": "bytes[]"
        }
      ],
      "name": "bulkIssue",
      "outputs": [],
      "stateMutability": "nonpayable",
      "type": "function"
    },
    {
      "inputs": [
        {
          "internalType": "bytes[]",
          "name": "documents",
          "type": "bytes[]"
        }
      ],
      "name": "bulkRevoke",
      "outputs": [],
      "stateMutability": "nonpayable",
      "type": "function"
    },
    {
      "inputs": [
        {
          "internalType": "bytes",
          "name": "",
          "type": "bytes"
        }
      ],
      "name": "documentIssued",
      "outputs": [
        {
          "internalType": "uint256",
          "name": "",
          "type": "uint256"
        }
      ],
      "stateMutability": "view",
      "type": "function"
    },
    {
      "inputs": [
        {
          "internalType": "bytes",
          "name": "",
          "type": "bytes"
        }
      ],
      "name": "documentRevoked",
      "outputs": [
        {
          "internalType": "uint256",
          "name": "",
          "type": "uint256"
        }
      ],
      "stateMutability": "view",
      "type": "function"
    },
    {
      "inputs": [],
      "name": "getPaymaster",
      "outputs": [
        {
          "internalType": "address",
          "name": "",
          "type": "address"
        }
      ],
      "stateMutability": "view",
      "type": "function"
    },
    {
      "inputs": [
        {
          "internalType": "string",
          "name": "_name",
          "type": "string"
        }
      ],
      "name": "initialize",
      "outputs": [],
      "stateMutability": "nonpayable",
      "type": "function"
    },
    {
      "inputs": [
        {
          "internalType": "bytes",
          "name": "document",
          "type": "bytes"
        }
      ],
      "name": "isIssued",
      "outputs": [
        {
          "internalType": "bool",
          "name": "",
          "type": "bool"
        }
      ],
      "stateMutability": "view",
      "type": "function"
    },
    {
      "inputs": [
        {
          "internalType": "bytes",
          "name": "document",
          "type": "bytes"
        }
      ],
      "name": "isRevoked",
      "outputs": [
        {
          "internalType": "bool",
          "name": "",
          "type": "bool"
        }
      ],
      "stateMutability": "view",
      "type": "function"
    },
    {
      "inputs": [
        {
          "internalType": "address",
          "name": "forwarder",
          "type": "address"
        }
      ],
      "name": "isTrustedForwarder",
      "outputs": [
        {
          "internalType": "bool",
          "name": "",
          "type": "bool"
        }
      ],
      "stateMutability": "view",
      "type": "function"
    },
    {
      "inputs": [
        {
          "internalType": "bytes",
          "name": "document",
          "type": "bytes"
        }
      ],
      "name": "issue",
      "outputs": [],
      "stateMutability": "nonpayable",
      "type": "function"
    },
    {
      "inputs": [],
      "name": "name",
      "outputs": [
        {
          "internalType": "string",
          "name": "",
          "type": "string"
        }
      ],
      "stateMutability": "view",
      "type": "function"
    },
    {
      "inputs": [],
      "name": "owner",
      "outputs": [
        {
          "internalType": "address",
          "name": "",
          "type": "address"
        }
      ],
      "stateMutability": "view",
      "type": "function"
    },
    {
      "inputs": [],
      "name": "paymaster",
      "outputs": [
        {
          "internalType": "address",
          "name": "",
          "type": "address"
        }
      ],
      "stateMutability": "view",
      "type": "function"
    },
    {
      "inputs": [],
      "name": "renounceOwnership",
      "outputs": [],
      "stateMutability": "nonpayable",
      "type": "function"
    },
    {
      "inputs": [
        {
          "internalType": "bytes",
          "name": "document",
          "type": "bytes"
        }
      ],
      "name": "revoke",
      "outputs": [
        {
          "internalType": "bool",
          "name": "",
          "type": "bool"
        }
      ],
      "stateMutability": "nonpayable",
      "type": "function"
    },
    {
      "inputs": [
        {
          "internalType": "address",
          "name": "target",
          "type": "address"
        }
      ],
      "name": "setPaymaster",
      "outputs": [],
      "stateMutability": "nonpayable",
      "type": "function"
    },
    {
      "inputs": [
        {
          "internalType": "bytes4",
          "name": "interfaceId",
          "type": "bytes4"
        }
      ],
      "name": "supportsInterface",
      "outputs": [
        {
          "internalType": "bool",
          "name": "",
          "type": "bool"
        }
      ],
      "stateMutability": "view",
      "type": "function"
    },
    {
      "inputs": [
        {
          "internalType": "address",
          "name": "newOwner",
          "type": "address"
        }
      ],
      "name": "transferOwnership",
      "outputs": [],
      "stateMutability": "nonpayable",
      "type": "function"
    },
    {
      "inputs": [],
      "name": "trustedForwarder",
      "outputs": [
        {
          "internalType": "address",
          "name": "",
          "type": "address"
        }
      ],
      "stateMutability": "view",
      "type": "function"
    },
    {
      "inputs": [],
      "name": "version",
      "outputs": [
        {
          "internalType": "string",
          "name": "",
          "type": "string"
        }
      ],
      "stateMutability": "view",
      "type": "function"
    },
    {
      "inputs": [],
      "name": "versionRecipient",
      "outputs": [
        {
          "internalType": "string",
          "name": "",
          "type": "string"
        }
      ],
      "stateMutability": "view",
      "type": "function"
    },
    {
      "inputs": [],
      "name": "getTrustedForwarder",
      "outputs": [
        {
          "internalType": "address",
          "name": "",
          "type": "address"
        }
      ],
      "stateMutability": "view",
      "type": "function"
    },
    {
      "inputs": [
        {
          "internalType": "address",
          "name": "_forwarder",
          "type": "address"
        }
      ],
      "name": "setTrustedForwarder",
      "outputs": [],
      "stateMutability": "nonpayable",
      "type": "function"
    }
  ],
  "bytecode": "0x60806040526040518060400160405280600581526020017f322e302e300000000000000000000000000000000000000000000000000000008152506009908051906020019062000051929190620004ee565b503480156200005f57600080fd5b506040516200246238038062002462833981810160405281019062000085919062000607565b816200009e6301ffc9a760e01b620001c760201b60201c565b6000620000b0620002a060201b60201c565b905080600660006101000a81548173ffffffffffffffffffffffffffffffffffffffff021916908373ffffffffffffffffffffffffffffffffffffffff1602179055508073ffffffffffffffffffffffffffffffffffffffff16600073ffffffffffffffffffffffffffffffffffffffff167f8be0079c531659141344cd1fd0a4f28419497f9722a3daafe3b4186f6b6457e060405160405180910390a3506200016581620002bc60201b62000fb51760201c565b506200017e63a5a2364060e01b620001c760201b60201c565b80600760006101000a81548173ffffffffffffffffffffffffffffffffffffffff021916908373ffffffffffffffffffffffffffffffffffffffff16021790555050506200083f565b63ffffffff60e01b817bffffffffffffffffffffffffffffffffffffffffffffffffffffffff1916141562000233576040517f08c379a00000000000000000000000000000000000000000000000000000000081526004016200022a906200070b565b60405180910390fd5b600160056000837bffffffffffffffffffffffffffffffffffffffffffffffffffffffff19167bffffffffffffffffffffffffffffffffffffffffffffffffffffffff1916815260200190815260200160002060006101000a81548160ff02191690831515021790555050565b6000620002b76200041b60201b6200112c1760201c565b905090565b600060019054906101000a900460ff1680620002e45750620002e36200046360201b60201c565b5b80620002fb575060008054906101000a900460ff16155b6200033d576040517f08c379a000000000000000000000000000000000000000000000000000000000815260040162000334906200072d565b60405180910390fd5b60008060019054906101000a900460ff1615905080156200038e576001600060016101000a81548160ff02191690831515021790555060016000806101000a81548160ff0219169083151502179055505b6040518060400160405280600581526020017f322e332e3000000000000000000000000000000000000000000000000000000081525060029080519060200190620003db929190620004ee565b508160019080519060200190620003f4929190620004ee565b508015620004175760008060016101000a81548160ff0219169083151502179055505b5050565b600060186000369050101580156200044057506200043f336200048160201b60201c565b5b156200045657601436033560601c90506200045f565b33905062000460565b5b90565b60006200047b30620004db60201b620011681760201c565b15905090565b6000600760009054906101000a900473ffffffffffffffffffffffffffffffffffffffff1673ffffffffffffffffffffffffffffffffffffffff168273ffffffffffffffffffffffffffffffffffffffff16149050919050565b600080823b905060008111915050919050565b828054600181600116156101000203166002900490600052602060002090601f016020900481019282601f106200053157805160ff191683800117855562000562565b8280016001018555821562000562579182015b828111156200056157825182559160200191906001019062000544565b5b50905062000571919062000575565b5090565b5b808211156200059057600081600090555060010162000576565b5090565b600081519050620005a58162000825565b92915050565b600082601f830112620005bd57600080fd5b8151620005d4620005ce826200077d565b6200074f565b91508082526020830160208301858383011115620005f157600080fd5b620005fe838284620007ef565b50505092915050565b600080604083850312156200061b57600080fd5b600083015167ffffffffffffffff8111156200063657600080fd5b6200064485828601620005ab565b9250506020620006578582860162000594565b9150509250929050565b600062000670601c83620007aa565b91507f4552433136353a20696e76616c696420696e74657266616365206964000000006000830152602082019050919050565b6000620006b2602e83620007aa565b91507f496e697469616c697a61626c653a20636f6e747261637420697320616c72656160008301527f647920696e697469616c697a65640000000000000000000000000000000000006020830152604082019050919050565b60006020820190508181036000830152620007268162000661565b9050919050565b600060208201905081810360008301526200074881620006a3565b9050919050565b6000604051905081810181811067ffffffffffffffff821117156200077357600080fd5b8060405250919050565b600067ffffffffffffffff8211156200079557600080fd5b601f19601f8301169050602081019050919050565b600082825260208201905092915050565b6000620007c882620007cf565b9050919050565b600073ffffffffffffffffffffffffffffffffffffffff82169050919050565b60005b838110156200080f578082015181840152602081019050620007f2565b838111156200081f576000848401525b50505050565b6200083081620007bb565b81146200083c57600080fd5b50565b611c13806200084f6000396000f3fe608060405234801561001057600080fd5b506004361061014d5760003560e01c80637da0a877116100c3578063ce1b815f1161007c578063ce1b815f146103a2578063d1d03d42146103c0578063da742228146103dc578063f2fde38b146103f8578063f62d188814610414578063fad280f7146104305761014d565b80637da0a877146102cc57806388e3ac15146102ea5780638da5cb5b1461031a5780638f35cc3714610338578063a91a3f3c14610356578063b613823d146103865761014d565b80632a97fa77116101155780632a97fa771461021e578063318868221461023a578063486ff0cd1461025657806354fd4d5014610274578063572b6c0514610292578063715018a6146102c25761014d565b806301ffc9a71461015257806305acc7a71461018257806306fdde03146101b25780630b467b9b146101d057806316e4cbf914610200575b600080fd5b61016c600480360381019061016791906115c5565b610460565b6040516101799190611911565b60405180910390f35b61019c600480360381019061019791906115ee565b6104c8565b6040516101a991906119ee565b60405180910390f35b6101ba6104f6565b6040516101c7919061192c565b60405180910390f35b6101ea60048036038101906101e591906115ee565b610594565b6040516101f79190611911565b60405180910390f35b61020861066d565b60405161021591906118f6565b60405180910390f35b6102386004803603810190610233919061155b565b610693565b005b610254600480360381019061024f91906115ee565b610796565b005b61025e610869565b60405161026b919061192c565b60405180910390f35b61027c610907565b604051610289919061192c565b60405180910390f35b6102ac60048036038101906102a7919061155b565b6109a5565b6040516102b99190611911565b60405180910390f35b6102ca6109ff565b005b6102d4610b3c565b6040516102e191906118f6565b60405180910390f35b61030460048036038101906102ff91906115ee565b610b62565b6040516103119190611911565b60405180910390f35b610322610b8d565b60405161032f91906118f6565b60405180910390f35b610340610bb7565b60405161034d91906118f6565b60405180910390f35b610370600480360381019061036b91906115ee565b610be1565b60405161037d91906119ee565b60405180910390f35b6103a0600480360381019061039b9190611584565b610c0f565b005b6103aa610c97565b6040516103b791906118f6565b60405180910390f35b6103da60048036038101906103d59190611584565b610cc1565b005b6103f660048036038101906103f1919061155b565b610d49565b005b610412600480360381019061040d919061155b565b610e09565b005b61042e6004803603810190610429919061162f565b610fb5565b005b61044a600480360381019061044591906115ee565b611101565b6040516104579190611911565b60405180910390f35b600060056000837bffffffffffffffffffffffffffffffffffffffffffffffffffffffff19167bffffffffffffffffffffffffffffffffffffffffffffffffffffffff1916815260200190815260200160002060009054906101000a900460ff169050919050565b6004818051602081018201805184825260208301602085012081835280955050505050506000915090505481565b60018054600181600116156101000203166002900480601f01602080910402602001604051908101604052809291908181526020018280546001816001161561010002031660029004801561058c5780601f106105615761010080835404028352916020019161058c565b820191906000526020600020905b81548152906001019060200180831161056f57829003601f168201915b505050505081565b600061059e61117b565b73ffffffffffffffffffffffffffffffffffffffff166105bc610b8d565b73ffffffffffffffffffffffffffffffffffffffff1614610612576040517f08c379a0000000000000000000000000000000000000000000000000000000008152600401610609906119ce565b60405180910390fd5b8161061c81610b62565b1561065c576040517f08c379a00000000000000000000000000000000000000000000000000000000081526004016106539061194e565b60405180910390fd5b6106658361118a565b915050919050565b600860009054906101000a900473ffffffffffffffffffffffffffffffffffffffff1681565b61069b61117b565b73ffffffffffffffffffffffffffffffffffffffff166106b9610b8d565b73ffffffffffffffffffffffffffffffffffffffff161461070f576040517f08c379a0000000000000000000000000000000000000000000000000000000008152600401610706906119ce565b60405180910390fd5b80600860006101000a81548173ffffffffffffffffffffffffffffffffffffffff021916908373ffffffffffffffffffffffffffffffffffffffff1602179055508073ffffffffffffffffffffffffffffffffffffffff167f8be32e66bcd4d1783b05affa4e89ba5fc5e37bea009c896d862c795acf9e842b60405160405180910390a250565b61079e61117b565b73ffffffffffffffffffffffffffffffffffffffff166107bc610b8d565b73ffffffffffffffffffffffffffffffffffffffff1614610812576040517f08c379a0000000000000000000000000000000000000000000000000000000008152600401610809906119ce565b60405180910390fd5b8061081c81611101565b1561085c576040517f08c379a00000000000000000000000000000000000000000000000000000000081526004016108539061198e565b60405180910390fd5b61086582611241565b5050565b60098054600181600116156101000203166002900480601f0160208091040260200160405190810160405280929190818152602001828054600181600116156101000203166002900480156108ff5780601f106108d4576101008083540402835291602001916108ff565b820191906000526020600020905b8154815290600101906020018083116108e257829003601f168201915b505050505081565b60028054600181600116156101000203166002900480601f01602080910402602001604051908101604052809291908181526020018280546001816001161561010002031660029004801561099d5780601f106109725761010080835404028352916020019161099d565b820191906000526020600020905b81548152906001019060200180831161098057829003601f168201915b505050505081565b6000600760009054906101000a900473ffffffffffffffffffffffffffffffffffffffff1673ffffffffffffffffffffffffffffffffffffffff168273ffffffffffffffffffffffffffffffffffffffff16149050919050565b610a0761117b565b73ffffffffffffffffffffffffffffffffffffffff16610a25610b8d565b73ffffffffffffffffffffffffffffffffffffffff1614610a7b576040517f08c379a0000000000000000000000000000000000000000000000000000000008152600401610a72906119ce565b60405180910390fd5b600073ffffffffffffffffffffffffffffffffffffffff16600660009054906101000a900473ffffffffffffffffffffffffffffffffffffffff1673ffffffffffffffffffffffffffffffffffffffff167f8be0079c531659141344cd1fd0a4f28419497f9722a3daafe3b4186f6b6457e060405160405180910390a36000600660006101000a81548173ffffffffffffffffffffffffffffffffffffffff021916908373ffffffffffffffffffffffffffffffffffffffff160217905550565b600760009054906101000a900473ffffffffffffffffffffffffffffffffffffffff1681565b600080600483604051610b7591906118df565b90815260200160405180910390205414159050919050565b6000600660009054906101000a900473ffffffffffffffffffffffffffffffffffffffff16905090565b6000600860009054906101000a900473ffffffffffffffffffffffffffffffffffffffff16905090565b6003818051602081018201805184825260208301602085012081835280955050505050506000915090505481565b610c1761117b565b73ffffffffffffffffffffffffffffffffffffffff16610c35610b8d565b73ffffffffffffffffffffffffffffffffffffffff1614610c8b576040517f08c379a0000000000000000000000000000000000000000000000000000000008152600401610c82906119ce565b60405180910390fd5b610c94816112f4565b50565b6000600760009054906101000a900473ffffffffffffffffffffffffffffffffffffffff16905090565b610cc961117b565b73ffffffffffffffffffffffffffffffffffffffff16610ce7610b8d565b73ffffffffffffffffffffffffffffffffffffffff1614610d3d576040517f08c379a0000000000000000000000000000000000000000000000000000000008152600401610d34906119ce565b60405180910390fd5b610d468161132e565b50565b610d5161117b565b73ffffffffffffffffffffffffffffffffffffffff16610d6f610b8d565b73ffffffffffffffffffffffffffffffffffffffff1614610dc5576040517f08c379a0000000000000000000000000000000000000000000000000000000008152600401610dbc906119ce565b60405180910390fd5b80600760006101000a81548173ffffffffffffffffffffffffffffffffffffffff021916908373ffffffffffffffffffffffffffffffffffffffff16021790555050565b610e1161117b565b73ffffffffffffffffffffffffffffffffffffffff16610e2f610b8d565b73ffffffffffffffffffffffffffffffffffffffff1614610e85576040517f08c379a0000000000000000000000000000000000000000000000000000000008152600401610e7c906119ce565b60405180910390fd5b600073ffffffffffffffffffffffffffffffffffffffff168173ffffffffffffffffffffffffffffffffffffffff161415610ef5576040517f08c379a0000000000000000000000000000000000000000000000000000000008152600401610eec9061196e565b60405180910390fd5b8073ffffffffffffffffffffffffffffffffffffffff16600660009054906101000a900473ffffffffffffffffffffffffffffffffffffffff1673ffffffffffffffffffffffffffffffffffffffff167f8be0079c531659141344cd1fd0a4f28419497f9722a3daafe3b4186f6b6457e060405160405180910390a380600660006101000a81548173ffffffffffffffffffffffffffffffffffffffff021916908373ffffffffffffffffffffffffffffffffffffffff16021790555050565b600060019054906101000a900460ff1680610fd45750610fd3611367565b5b80610fea575060008054906101000a900460ff16155b611029576040517f08c379a0000000000000000000000000000000000000000000000000000000008152600401611020906119ae565b60405180910390fd5b60008060019054906101000a900460ff161590508015611079576001600060016101000a81548160ff02191690831515021790555060016000806101000a81548160ff0219169083151502179055505b6040518060400160405280600581526020017f322e332e30000000000000000000000000000000000000000000000000000000815250600290805190602001906110c4929190611378565b5081600190805190602001906110db929190611378565b5080156110fd5760008060016101000a81548160ff0219169083151502179055505b5050565b60008060038360405161111491906118df565b90815260200160405180910390205414159050919050565b600060186000369050101580156111485750611147336109a5565b5b1561115c57601436033560601c9050611164565b339050611165565b5b90565b600080823b905060008111915050919050565b600061118561112c565b905090565b60008161119681610b62565b156111d6576040517f08c379a00000000000000000000000000000000000000000000000000000000081526004016111cd9061194e565b60405180910390fd5b426004846040516111e791906118df565b9081526020016040518091039020819055508260405161120791906118df565b60405180910390207fd06026efabefaf58d0e4209dab86e740de514d8862953f10a22f1af8c2f2909460405160405180910390a250919050565b8061124b81611101565b1561128b576040517f08c379a00000000000000000000000000000000000000000000000000000000081526004016112829061198e565b60405180910390fd5b4260038360405161129c91906118df565b908152602001604051809103902081905550816040516112bc91906118df565b60405180910390207fe733eb2ec0cbe632113b39e823b85fd4f8853b0de59757070e894c5cd983ef9f60405160405180910390a25050565b60005b815181101561132a5761131c82828151811061130f57fe5b602002602001015161118a565b5080806001019150506112f7565b5050565b60005b81518110156113635761135682828151811061134957fe5b6020026020010151611241565b8080600101915050611331565b5050565b600061137230611168565b15905090565b828054600181600116156101000203166002900490600052602060002090601f016020900481019282601f106113b957805160ff19168380011785556113e7565b828001600101855582156113e7579182015b828111156113e65782518255916020019190600101906113cb565b5b5090506113f491906113f8565b5090565b5b808211156114115760008160009055506001016113f9565b5090565b60008135905061142481611baf565b92915050565b600082601f83011261143b57600080fd5b813561144e61144982611a36565b611a09565b9150818183526020840193506020810190508360005b83811015611494578135860161147a88826114b3565b845260208401935060208301925050600181019050611464565b5050505092915050565b6000813590506114ad81611bc6565b92915050565b600082601f8301126114c457600080fd5b81356114d76114d282611a5e565b611a09565b915080825260208301602083018583830111156114f357600080fd5b6114fe838284611b5c565b50505092915050565b600082601f83011261151857600080fd5b813561152b61152682611a8a565b611a09565b9150808252602083016020830185838301111561154757600080fd5b611552838284611b5c565b50505092915050565b60006020828403121561156d57600080fd5b600061157b84828501611415565b91505092915050565b60006020828403121561159657600080fd5b600082013567ffffffffffffffff8111156115b057600080fd5b6115bc8482850161142a565b91505092915050565b6000602082840312156115d757600080fd5b60006115e58482850161149e565b91505092915050565b60006020828403121561160057600080fd5b600082013567ffffffffffffffff81111561161a57600080fd5b611626848285016114b3565b91505092915050565b60006020828403121561164157600080fd5b600082013567ffffffffffffffff81111561165b57600080fd5b61166784828501611507565b91505092915050565b61167981611ae8565b82525050565b61168881611afa565b82525050565b600061169982611ab6565b6116a38185611acc565b93506116b3818560208601611b6b565b80840191505092915050565b60006116ca82611ac1565b6116d48185611ad7565b93506116e4818560208601611b6b565b6116ed81611b9e565b840191505092915050565b6000611705602783611ad7565b91507f4572726f723a204861736820686173206265656e207265766f6b65642070726560008301527f76696f75736c79000000000000000000000000000000000000000000000000006020830152604082019050919050565b600061176b602683611ad7565b91507f4f776e61626c653a206e6577206f776e657220697320746865207a65726f206160008301527f64647265737300000000000000000000000000000000000000000000000000006020830152604082019050919050565b60006117d1603a83611ad7565b91507f4572726f723a204f6e6c792068617368657320746861742068617665206e6f7460008301527f206265656e206973737565642063616e206265206973737565640000000000006020830152604082019050919050565b6000611837602e83611ad7565b91507f496e697469616c697a61626c653a20636f6e747261637420697320616c72656160008301527f647920696e697469616c697a65640000000000000000000000000000000000006020830152604082019050919050565b600061189d602083611ad7565b91507f4f776e61626c653a2063616c6c6572206973206e6f7420746865206f776e65726000830152602082019050919050565b6118d981611b52565b82525050565b60006118eb828461168e565b915081905092915050565b600060208201905061190b6000830184611670565b92915050565b6000602082019050611926600083018461167f565b92915050565b6000602082019050818103600083015261194681846116bf565b905092915050565b60006020820190508181036000830152611967816116f8565b9050919050565b600060208201905081810360008301526119878161175e565b9050919050565b600060208201905081810360008301526119a7816117c4565b9050919050565b600060208201905081810360008301526119c78161182a565b9050919050565b600060208201905081810360008301526119e781611890565b9050919050565b6000602082019050611a0360008301846118d0565b92915050565b6000604051905081810181811067ffffffffffffffff82111715611a2c57600080fd5b8060405250919050565b600067ffffffffffffffff821115611a4d57600080fd5b602082029050602081019050919050565b600067ffffffffffffffff821115611a7557600080fd5b601f19601f8301169050602081019050919050565b600067ffffffffffffffff821115611aa157600080fd5b601f19601f8301169050602081019050919050565b600081519050919050565b600081519050919050565b600081905092915050565b600082825260208201905092915050565b6000611af382611b32565b9050919050565b60008115159050919050565b60007fffffffff0000000000000000000000000000000000000000000000000000000082169050919050565b600073ffffffffffffffffffffffffffffffffffffffff82169050919050565b6000819050919050565b82818337600083830152505050565b60005b83811015611b89578082015181840152602081019050611b6e565b83811115611b98576000848401525b50505050565b6000601f19601f8301169050919050565b611bb881611ae8565b8114611bc357600080fd5b50565b611bcf81611b06565b8114611bda57600080fd5b5056fea26469706673582212201f2d7b15009013cd2bfeecc6080ed19cf665ac0ef83c2a69b498ba8279f5a0bd64736f6c634300060c0033",
  "immutableReferences": {},
  "source": "// SPDX-License-Identifier: Apache-2.0\n\npragma solidity ^0.6.10;\npragma experimental ABIEncoderV2;\n\nimport \"@opengsn/gsn/contracts/BaseRelayRecipient.sol\";\nimport \"@opengsn/gsn/contracts/interfaces/IKnowForwarderAddress.sol\";\n\nimport \"./OwnableDocumentStore.sol\";\nimport \"./GsnCapable.sol\";\n\ncontract GsnCapableDocumentStore is OwnableDocumentStore, BaseRelayRecipient, IKnowForwarderAddress, GsnCapable {\n  string public override versionRecipient = \"2.0.0\";\n\n  constructor(string memory _name, address _forwarder) public OwnableDocumentStore(_name) {\n    trustedForwarder = _forwarder;\n  }\n\n  function _msgSender() internal view override(Context, BaseRelayRecipient) returns (address payable) {\n    return BaseRelayRecipient._msgSender();\n  }\n\n  function _msgData() internal view override(Context, BaseRelayRecipient) returns (bytes memory) {\n    return BaseRelayRecipient._msgData();\n  }\n\n  function getTrustedForwarder() public view override returns (address) {\n    return trustedForwarder;\n  }\n\n  function setTrustedForwarder(address _forwarder) public onlyOwner {\n    trustedForwarder = _forwarder;\n  }\n}\n",
  "sourcePath": "D://4.IMDA/2.hedera/TradeTrust/hedera-document-store/contracts/GsnCapableDocumentStore.sol",
  "compiler": {
    "name": "solc",
    "version": "0.6.12+commit.27d51765.Emscripten.clang"
  },
  "schemaVersion": "3.4.0",
  "updatedAt": "2022-02-24T08:47:52.647Z",
  "devdoc": {
    "kind": "dev",
    "methods": {
      "owner()": {
        "details": "Returns the address of the current owner."
      },
      "renounceOwnership()": {
        "details": "Leaves the contract without owner. It will not be possible to call `onlyOwner` functions anymore. Can only be called by the current owner. NOTE: Renouncing ownership will leave the contract without an owner, thereby removing any functionality that is only available to the owner."
      },
      "supportsInterface(bytes4)": {
        "details": "See {IERC165-supportsInterface}. Time complexity O(1), guaranteed to always use less than 30 000 gas."
      },
      "transferOwnership(address)": {
        "details": "Transfers ownership of the contract to a new account (`newOwner`). Can only be called by the current owner."
      }
    },
    "version": 1
  },
  "userdoc": {
    "kind": "user",
    "methods": {
      "documentIssued(bytes)": {
        "notice": "A mapping of the document hash to the block number that was issued"
      },
      "documentRevoked(bytes)": {
        "notice": "A mapping of the hash of the claim being revoked to the revocation block number"
      },
      "getTrustedForwarder()": {
        "notice": "return the forwarder we trust to forward relayed transactions to us. the forwarder is required to verify the sender's signature, and verify the call is not a replay."
      },
      "isTrustedForwarder(address)": {
        "notice": "return if the forwarder is trusted to forward relayed transactions to us. the forwarder is required to verify the sender's signature, and verify the call is not a replay."
      }
    },
    "version": 1
  }
}