{
  "contractName": "GsnEip712Library",
  "abi": [
    {
      "inputs": [],
      "name": "EIP712DOMAIN_TYPEHASH",
      "outputs": [
        {
          "internalType": "bytes32",
          "name": "",
          "type": "bytes32"
        }
      ],
      "stateMutability": "view",
      "type": "function"
    },
    {
      "inputs": [],
      "name": "GENERIC_PARAMS",
      "outputs": [
        {
          "internalType": "string",
          "name": "",
          "type": "string"
        }
      ],
      "stateMutability": "view",
      "type": "function"
    },
    {
      "inputs": [],
      "name": "RELAYDATA_TYPE",
      "outputs": [
        {
          "internalType": "bytes",
          "name": "",
          "type": "bytes"
        }
      ],
      "stateMutability": "view",
      "type": "function"
    },
    {
      "inputs": [],
      "name": "RELAYDATA_TYPEHASH",
      "outputs": [
        {
          "internalType": "bytes32",
          "name": "",
          "type": "bytes32"
        }
      ],
      "stateMutability": "view",
      "type": "function"
    },
    {
      "inputs": [],
      "name": "RELAY_REQUEST_NAME",
      "outputs": [
        {
          "internalType": "string",
          "name": "",
          "type": "string"
        }
      ],
      "stateMutability": "view",
      "type": "function"
    },
    {
      "inputs": [],
      "name": "RELAY_REQUEST_SUFFIX",
      "outputs": [
        {
          "internalType": "string",
          "name": "",
          "type": "string"
        }
      ],
      "stateMutability": "view",
      "type": "function"
    },
    {
      "inputs": [],
      "name": "RELAY_REQUEST_TYPE",
      "outputs": [
        {
          "internalType": "bytes",
          "name": "",
          "type": "bytes"
        }
      ],
      "stateMutability": "view",
      "type": "function"
    },
    {
      "inputs": [],
      "name": "RELAY_REQUEST_TYPEHASH",
      "outputs": [
        {
          "internalType": "bytes32",
          "name": "",
          "type": "bytes32"
        }
      ],
      "stateMutability": "view",
      "type": "function"
    }
  ],
  "bytecode": "0x6107ff610026600b82828239805160001a60731461001957fe5b30600052607381538281f3fe73000000000000000000000000000000000000000030146080604052600436106100925760003560e01c8063abf0d3f411610065578063abf0d3f41461010f578063c46cf83f1461012d578063c49f91d31461014b578063cc0c62b21461016957610092565b8063066a310c146100975780636225e61b146100b5578063931cd38f146100d3578063987673f7146100f1575b600080fd5b61009f610187565b6040516100ac9190610620565b60405180910390f35b6100bd6101a3565b6040516100ca91906105fe565b60405180910390f35b6100db61024e565b6040516100e89190610620565b60405180910390f35b6100f9610289565b6040516101069190610620565b60405180910390f35b6101176102c2565b60405161012491906105e3565b60405180910390f35b610135610374565b60405161014291906105fe565b60405180910390f35b610153610390565b60405161016091906105e3565b60405180910390f35b6101716103b4565b60405161017e91906105e3565b60405180910390f35b6040518060800160405280604a8152602001610780604a913981565b6040518060400160405280600c81526020017f52656c61795265717565737400000000000000000000000000000000000000008152506040518060800160405280604a8152602001610780604a91396040518060e0016040528060a181526020016106df60a1913960405160200161021b91906105c1565b60405160208183030381529060405260405160200161023c9392919061057a565b60405160208183030381529060405281565b6040518060e0016040528060a181526020016106df60a1913960405160200161027791906105c1565b60405160208183030381529060405281565b6040518060400160405280600c81526020017f52656c617952657175657374000000000000000000000000000000000000000081525081565b6040518060400160405280600c81526020017f52656c61795265717565737400000000000000000000000000000000000000008152506040518060800160405280604a8152602001610780604a91396040518060e0016040528060a181526020016106df60a1913960405160200161033a91906105c1565b60405160208183030381529060405260405160200161035b9392919061057a565b6040516020818303038152906040528051906020012081565b6040518060e0016040528060a181526020016106df60a1913981565b7f8b73c3c69bb8fe3d512ecc4cf759cc79239f7b179b0ffacaa9a75d522b39400f81565b6040518060e0016040528060a181526020016106df60a191398051906020012081565b6103e081610690565b82525050565b60006103f182610642565b6103fb8185610658565b935061040b81856020860161069a565b610414816106cd565b840191505092915050565b600061042a82610642565b6104348185610669565b935061044481856020860161069a565b80840191505092915050565b600061045b8261064d565b6104658185610674565b935061047581856020860161069a565b61047e816106cd565b840191505092915050565b60006104948261064d565b61049e8185610685565b93506104ae81856020860161069a565b80840191505092915050565b60006104c7600183610685565b91507f2c000000000000000000000000000000000000000000000000000000000000006000830152600182019050919050565b6000610507601483610685565b91507f52656c6179446174612072656c617944617461290000000000000000000000006000830152601482019050919050565b6000610547600183610685565b91507f28000000000000000000000000000000000000000000000000000000000000006000830152600182019050919050565b60006105868286610489565b91506105918261053a565b915061059d8285610489565b91506105a8826104ba565b91506105b48284610489565b9150819050949350505050565b60006105cc826104fa565b91506105d8828461041f565b915081905092915050565b60006020820190506105f860008301846103d7565b92915050565b6000602082019050818103600083015261061881846103e6565b905092915050565b6000602082019050818103600083015261063a8184610450565b905092915050565b600081519050919050565b600081519050919050565b600082825260208201905092915050565b600081905092915050565b600082825260208201905092915050565b600081905092915050565b6000819050919050565b60005b838110156106b857808201518184015260208101905061069d565b838111156106c7576000848401525b50505050565b6000601f19601f830116905091905056fe52656c6179446174612875696e743235362067617350726963652c75696e743235362070637452656c61794665652c75696e74323536206261736552656c61794665652c616464726573732072656c6179576f726b65722c61646472657373207061796d61737465722c6164647265737320666f727761726465722c6279746573207061796d6173746572446174612c75696e7432353620636c69656e74496429616464726573732066726f6d2c6164647265737320746f2c75696e743235362076616c75652c75696e74323536206761732c75696e74323536206e6f6e63652c62797465732064617461a2646970667358221220c3f6500e6407c4e26fa49d36e9c9b1cd4a1c02618ddac337fe8125ee2a8e0c9964736f6c634300060c0033",
  "immutableReferences": {},
  "source": "// SPDX-License-Identifier:MIT\npragma solidity ^0.6.2;\npragma experimental ABIEncoderV2;\n\nimport \"../interfaces/GsnTypes.sol\";\nimport \"../interfaces/IRelayRecipient.sol\";\nimport \"../forwarder/IForwarder.sol\";\n\nimport \"./GsnUtils.sol\";\n\n/**\n * Bridge Library to map GSN RelayRequest into a call of a Forwarder\n */\nlibrary GsnEip712Library {\n    // maximum length of return value/revert reason for 'execute' method. Will truncate result if exceeded.\n    uint256 private constant MAX_RETURN_SIZE = 1024;\n\n    //copied from Forwarder (can't reference string constants even from another library)\n    string public constant GENERIC_PARAMS = \"address from,address to,uint256 value,uint256 gas,uint256 nonce,bytes data\";\n\n    bytes public constant RELAYDATA_TYPE = \"RelayData(uint256 gasPrice,uint256 pctRelayFee,uint256 baseRelayFee,address relayWorker,address paymaster,address forwarder,bytes paymasterData,uint256 clientId)\";\n\n    string public constant RELAY_REQUEST_NAME = \"RelayRequest\";\n    string public constant RELAY_REQUEST_SUFFIX = string(abi.encodePacked(\"RelayData relayData)\", RELAYDATA_TYPE));\n\n    bytes public constant RELAY_REQUEST_TYPE = abi.encodePacked(\n        RELAY_REQUEST_NAME,\"(\",GENERIC_PARAMS,\",\", RELAY_REQUEST_SUFFIX);\n\n    bytes32 public constant RELAYDATA_TYPEHASH = keccak256(RELAYDATA_TYPE);\n    bytes32 public constant RELAY_REQUEST_TYPEHASH = keccak256(RELAY_REQUEST_TYPE);\n\n\n    struct EIP712Domain {\n        string name;\n        string version;\n        uint256 chainId;\n        address verifyingContract;\n    }\n\n    bytes32 public constant EIP712DOMAIN_TYPEHASH = keccak256(\n        \"EIP712Domain(string name,string version,uint256 chainId,address verifyingContract)\"\n    );\n\n    function splitRequest(\n        GsnTypes.RelayRequest calldata req\n    )\n    internal\n    pure\n    returns (\n        IForwarder.ForwardRequest memory forwardRequest,\n        bytes memory suffixData\n    ) {\n        forwardRequest = IForwarder.ForwardRequest(\n            req.request.from,\n            req.request.to,\n            req.request.value,\n            req.request.gas,\n            req.request.nonce,\n            req.request.data\n        );\n        suffixData = abi.encode(\n            hashRelayData(req.relayData));\n    }\n\n    //verify that the recipient trusts the given forwarder\n    // MUST be called by paymaster\n    function verifyForwarderTrusted(GsnTypes.RelayRequest calldata relayRequest) internal view {\n        (bool success, bytes memory ret) = relayRequest.request.to.staticcall(\n            abi.encodeWithSelector(\n                IRelayRecipient.isTrustedForwarder.selector, relayRequest.relayData.forwarder\n            )\n        );\n        require(success, \"isTrustedForwarder reverted\");\n        require(ret.length == 32, \"isTrustedForwarder returned invalid response\");\n        require(abi.decode(ret, (bool)), \"invalid forwarder for recipient\");\n    }\n\n    function verifySignature(GsnTypes.RelayRequest calldata relayRequest, bytes calldata signature) internal view {\n        (IForwarder.ForwardRequest memory forwardRequest, bytes memory suffixData) = splitRequest(relayRequest);\n        bytes32 domainSeparator = domainSeparator(relayRequest.relayData.forwarder);\n        IForwarder forwarder = IForwarder(payable(relayRequest.relayData.forwarder));\n        forwarder.verify(forwardRequest, domainSeparator, RELAY_REQUEST_TYPEHASH, suffixData, signature);\n    }\n\n    function verify(GsnTypes.RelayRequest calldata relayRequest, bytes calldata signature) internal view {\n        verifyForwarderTrusted(relayRequest);\n        verifySignature(relayRequest, signature);\n    }\n\n    function execute(GsnTypes.RelayRequest calldata relayRequest, bytes calldata signature) internal returns (bool forwarderSuccess, bool callSuccess, bytes memory ret) {\n        (IForwarder.ForwardRequest memory forwardRequest, bytes memory suffixData) = splitRequest(relayRequest);\n        bytes32 domainSeparator = domainSeparator(relayRequest.relayData.forwarder);\n        /* solhint-disable-next-line avoid-low-level-calls */\n        (forwarderSuccess, ret) = relayRequest.relayData.forwarder.call(\n            abi.encodeWithSelector(IForwarder.execute.selector,\n            forwardRequest, domainSeparator, RELAY_REQUEST_TYPEHASH, suffixData, signature\n        ));\n        if ( forwarderSuccess ) {\n\n          //decode return value of execute:\n          (callSuccess, ret) = abi.decode(ret, (bool, bytes));\n        }\n        truncateInPlace(ret);\n    }\n\n    //truncate the given parameter (in-place) if its length is above the given maximum length\n    // do nothing otherwise.\n    //NOTE: solidity warns unless the method is marked \"pure\", but it DOES modify its parameter.\n    function truncateInPlace(bytes memory data) internal pure {\n        MinLibBytes.truncateInPlace(data, MAX_RETURN_SIZE);\n    }\n\n    function domainSeparator(address forwarder) internal pure returns (bytes32) {\n        return hashDomain(EIP712Domain({\n            name : \"GSN Relayed Transaction\",\n            version : \"2\",\n            chainId : getChainID(),\n            verifyingContract : forwarder\n            }));\n    }\n\n    function getChainID() internal pure returns (uint256 id) {\n        /* solhint-disable no-inline-assembly */\n        assembly {\n            id := chainid()\n        }\n    }\n\n    function hashDomain(EIP712Domain memory req) internal pure returns (bytes32) {\n        return keccak256(abi.encode(\n                EIP712DOMAIN_TYPEHASH,\n                keccak256(bytes(req.name)),\n                keccak256(bytes(req.version)),\n                req.chainId,\n                req.verifyingContract));\n    }\n\n    function hashRelayData(GsnTypes.RelayData calldata req) internal pure returns (bytes32) {\n        return keccak256(abi.encode(\n                RELAYDATA_TYPEHASH,\n                req.gasPrice,\n                req.pctRelayFee,\n                req.baseRelayFee,\n                req.relayWorker,\n                req.paymaster,\n                req.forwarder,\n                keccak256(req.paymasterData),\n                req.clientId\n            ));\n    }\n\n\n}\n",
  "sourcePath": "@opengsn\\gsn\\contracts\\utils\\GsnEip712Library.sol",
  "compiler": {
    "name": "solc",
    "version": "0.6.12+commit.27d51765.Emscripten.clang"
  },
  "schemaVersion": "3.4.0",
  "updatedAt": "2022-02-24T08:47:52.706Z",
  "devdoc": {
    "kind": "dev",
    "methods": {},
    "version": 1
  },
  "userdoc": {
    "kind": "user",
    "methods": {},
    "notice": "Bridge Library to map GSN RelayRequest into a call of a Forwarder",
    "version": 1
  }
}