{
  "contractName": "NaivePaymaster",
  "abi": [
    {
      "inputs": [
        {
          "internalType": "string",
          "name": "_name",
          "type": "string"
        }
      ],
      "stateMutability": "nonpayable",
      "type": "constructor"
    },
    {
      "anonymous": false,
      "inputs": [
        {
          "indexed": true,
          "internalType": "address",
          "name": "previousOwner",
          "type": "address"
        },
        {
          "indexed": true,
          "internalType": "address",
          "name": "newOwner",
          "type": "address"
        }
      ],
      "name": "OwnershipTransferred",
      "type": "event"
    },
    {
      "anonymous": false,
      "inputs": [
        {
          "indexed": false,
          "internalType": "uint256",
          "name": "",
          "type": "uint256"
        }
      ],
      "name": "PostRelayed",
      "type": "event"
    },
    {
      "anonymous": false,
      "inputs": [
        {
          "indexed": false,
          "internalType": "uint256",
          "name": "",
          "type": "uint256"
        }
      ],
      "name": "PreRelayed",
      "type": "event"
    },
    {
      "anonymous": false,
      "inputs": [
        {
          "indexed": true,
          "internalType": "address",
          "name": "target",
          "type": "address"
        }
      ],
      "name": "TargetRemoved",
      "type": "event"
    },
    {
      "anonymous": false,
      "inputs": [
        {
          "indexed": true,
          "internalType": "address",
          "name": "target",
          "type": "address"
        }
      ],
      "name": "TargetSet",
      "type": "event"
    },
    {
      "inputs": [],
      "name": "FORWARDER_HUB_OVERHEAD",
      "outputs": [
        {
          "internalType": "uint256",
          "name": "",
          "type": "uint256"
        }
      ],
      "stateMutability": "view",
      "type": "function"
    },
    {
      "inputs": [],
      "name": "PAYMASTER_ACCEPTANCE_BUDGET",
      "outputs": [
        {
          "internalType": "uint256",
          "name": "",
          "type": "uint256"
        }
      ],
      "stateMutability": "view",
      "type": "function"
    },
    {
      "inputs": [],
      "name": "POST_RELAYED_CALL_GAS_LIMIT",
      "outputs": [
        {
          "internalType": "uint256",
          "name": "",
          "type": "uint256"
        }
      ],
      "stateMutability": "view",
      "type": "function"
    },
    {
      "inputs": [],
      "name": "PRE_RELAYED_CALL_GAS_LIMIT",
      "outputs": [
        {
          "internalType": "uint256",
          "name": "",
          "type": "uint256"
        }
      ],
      "stateMutability": "view",
      "type": "function"
    },
    {
      "inputs": [
        {
          "components": [
            {
              "components": [
                {
                  "internalType": "address",
                  "name": "from",
                  "type": "address"
                },
                {
                  "internalType": "address",
                  "name": "to",
                  "type": "address"
                },
                {
                  "internalType": "uint256",
                  "name": "value",
                  "type": "uint256"
                },
                {
                  "internalType": "uint256",
                  "name": "gas",
                  "type": "uint256"
                },
                {
                  "internalType": "uint256",
                  "name": "nonce",
                  "type": "uint256"
                },
                {
                  "internalType": "bytes",
                  "name": "data",
                  "type": "bytes"
                }
              ],
              "internalType": "struct IForwarder.ForwardRequest",
              "name": "request",
              "type": "tuple"
            },
            {
              "components": [
                {
                  "internalType": "uint256",
                  "name": "gasPrice",
                  "type": "uint256"
                },
                {
                  "internalType": "uint256",
                  "name": "pctRelayFee",
                  "type": "uint256"
                },
                {
                  "internalType": "uint256",
                  "name": "baseRelayFee",
                  "type": "uint256"
                },
                {
                  "internalType": "address",
                  "name": "relayWorker",
                  "type": "address"
                },
                {
                  "internalType": "address",
                  "name": "paymaster",
                  "type": "address"
                },
                {
                  "internalType": "bytes",
                  "name": "paymasterData",
                  "type": "bytes"
                },
                {
                  "internalType": "uint256",
                  "name": "clientId",
                  "type": "uint256"
                },
                {
                  "internalType": "address",
                  "name": "forwarder",
                  "type": "address"
                }
              ],
              "internalType": "struct GsnTypes.RelayData",
              "name": "relayData",
              "type": "tuple"
            }
          ],
          "internalType": "struct GsnTypes.RelayRequest",
          "name": "relayRequest",
          "type": "tuple"
        }
      ],
      "name": "_verifyForwarder",
      "outputs": [],
      "stateMutability": "view",
      "type": "function"
    },
    {
      "inputs": [],
      "name": "getGasLimits",
      "outputs": [
        {
          "components": [
            {
              "internalType": "uint256",
              "name": "acceptanceBudget",
              "type": "uint256"
            },
            {
              "internalType": "uint256",
              "name": "preRelayedCallGasLimit",
              "type": "uint256"
            },
            {
              "internalType": "uint256",
              "name": "postRelayedCallGasLimit",
              "type": "uint256"
            }
          ],
          "internalType": "struct IPaymaster.GasLimits",
          "name": "limits",
          "type": "tuple"
        }
      ],
      "stateMutability": "view",
      "type": "function"
    },
    {
      "inputs": [],
      "name": "getHubAddr",
      "outputs": [
        {
          "internalType": "address",
          "name": "",
          "type": "address"
        }
      ],
      "stateMutability": "view",
      "type": "function"
    },
    {
      "inputs": [],
      "name": "getRelayHubDeposit",
      "outputs": [
        {
          "internalType": "uint256",
          "name": "",
          "type": "uint256"
        }
      ],
      "stateMutability": "view",
      "type": "function"
    },
    {
      "inputs": [],
      "name": "name",
      "outputs": [
        {
          "internalType": "string",
          "name": "",
          "type": "string"
        }
      ],
      "stateMutability": "view",
      "type": "function"
    },
    {
      "inputs": [],
      "name": "owner",
      "outputs": [
        {
          "internalType": "address",
          "name": "",
          "type": "address"
        }
      ],
      "stateMutability": "view",
      "type": "function"
    },
    {
      "inputs": [],
      "name": "renounceOwnership",
      "outputs": [],
      "stateMutability": "nonpayable",
      "type": "function"
    },
    {
      "inputs": [
        {
          "internalType": "contract IRelayHub",
          "name": "hub",
          "type": "address"
        }
      ],
      "name": "setRelayHub",
      "outputs": [],
      "stateMutability": "nonpayable",
      "type": "function"
    },
    {
      "inputs": [
        {
          "internalType": "contract IForwarder",
          "name": "forwarder",
          "type": "address"
        }
      ],
      "name": "setTrustedForwarder",
      "outputs": [],
      "stateMutability": "nonpayable",
      "type": "function"
    },
    {
      "inputs": [
        {
          "internalType": "address",
          "name": "newOwner",
          "type": "address"
        }
      ],
      "name": "transferOwnership",
      "outputs": [],
      "stateMutability": "nonpayable",
      "type": "function"
    },
    {
      "inputs": [],
      "name": "trustedForwarder",
      "outputs": [
        {
          "internalType": "contract IForwarder",
          "name": "",
          "type": "address"
        }
      ],
      "stateMutability": "view",
      "type": "function"
    },
    {
      "inputs": [],
      "name": "version",
      "outputs": [
        {
          "internalType": "string",
          "name": "",
          "type": "string"
        }
      ],
      "stateMutability": "view",
      "type": "function"
    },
    {
      "inputs": [
        {
          "internalType": "uint256",
          "name": "amount",
          "type": "uint256"
        },
        {
          "internalType": "address payable",
          "name": "target",
          "type": "address"
        }
      ],
      "name": "withdrawRelayHubDepositTo",
      "outputs": [],
      "stateMutability": "nonpayable",
      "type": "function"
    },
    {
      "stateMutability": "payable",
      "type": "receive"
    },
    {
      "inputs": [
        {
          "internalType": "address",
          "name": "target",
          "type": "address"
        }
      ],
      "name": "setTarget",
      "outputs": [],
      "stateMutability": "nonpayable",
      "type": "function"
    },
    {
      "inputs": [
        {
          "internalType": "address",
          "name": "target",
          "type": "address"
        }
      ],
      "name": "removeTarget",
      "outputs": [],
      "stateMutability": "nonpayable",
      "type": "function"
    },
    {
      "inputs": [
        {
          "internalType": "address",
          "name": "target",
          "type": "address"
        }
      ],
      "name": "supportsAddress",
      "outputs": [
        {
          "internalType": "bool",
          "name": "",
          "type": "bool"
        }
      ],
      "stateMutability": "view",
      "type": "function"
    },
    {
      "inputs": [
        {
          "components": [
            {
              "components": [
                {
                  "internalType": "address",
                  "name": "from",
                  "type": "address"
                },
                {
                  "internalType": "address",
                  "name": "to",
                  "type": "address"
                },
                {
                  "internalType": "uint256",
                  "name": "value",
                  "type": "uint256"
                },
                {
                  "internalType": "uint256",
                  "name": "gas",
                  "type": "uint256"
                },
                {
                  "internalType": "uint256",
                  "name": "nonce",
                  "type": "uint256"
                },
                {
                  "internalType": "bytes",
                  "name": "data",
                  "type": "bytes"
                }
              ],
              "internalType": "struct IForwarder.ForwardRequest",
              "name": "request",
              "type": "tuple"
            },
            {
              "components": [
                {
                  "internalType": "uint256",
                  "name": "gasPrice",
                  "type": "uint256"
                },
                {
                  "internalType": "uint256",
                  "name": "pctRelayFee",
                  "type": "uint256"
                },
                {
                  "internalType": "uint256",
                  "name": "baseRelayFee",
                  "type": "uint256"
                },
                {
                  "internalType": "address",
                  "name": "relayWorker",
                  "type": "address"
                },
                {
                  "internalType": "address",
                  "name": "paymaster",
                  "type": "address"
                },
                {
                  "internalType": "bytes",
                  "name": "paymasterData",
                  "type": "bytes"
                },
                {
                  "internalType": "uint256",
                  "name": "clientId",
                  "type": "uint256"
                },
                {
                  "internalType": "address",
                  "name": "forwarder",
                  "type": "address"
                }
              ],
              "internalType": "struct GsnTypes.RelayData",
              "name": "relayData",
              "type": "tuple"
            }
          ],
          "internalType": "struct GsnTypes.RelayRequest",
          "name": "relayRequest",
          "type": "tuple"
        },
        {
          "internalType": "bytes",
          "name": "signature",
          "type": "bytes"
        },
        {
          "internalType": "bytes",
          "name": "approvalData",
          "type": "bytes"
        },
        {
          "internalType": "uint256",
          "name": "maxPossibleGas",
          "type": "uint256"
        }
      ],
      "name": "preRelayedCall",
      "outputs": [
        {
          "internalType": "bytes",
          "name": "context",
          "type": "bytes"
        },
        {
          "internalType": "bool",
          "name": "",
          "type": "bool"
        }
      ],
      "stateMutability": "nonpayable",
      "type": "function"
    },
    {
      "inputs": [
        {
          "internalType": "bytes",
          "name": "context",
          "type": "bytes"
        },
        {
          "internalType": "bool",
          "name": "success",
          "type": "bool"
        },
        {
          "internalType": "uint256",
          "name": "gasUseWithoutPost",
          "type": "uint256"
        },
        {
          "components": [
            {
              "internalType": "uint256",
              "name": "gasPrice",
              "type": "uint256"
            },
            {
              "internalType": "uint256",
              "name": "pctRelayFee",
              "type": "uint256"
            },
            {
              "internalType": "uint256",
              "name": "baseRelayFee",
              "type": "uint256"
            },
            {
              "internalType": "address",
              "name": "relayWorker",
              "type": "address"
            },
            {
              "internalType": "address",
              "name": "paymaster",
              "type": "address"
            },
            {
              "internalType": "bytes",
              "name": "paymasterData",
              "type": "bytes"
            },
            {
              "internalType": "uint256",
              "name": "clientId",
              "type": "uint256"
            },
            {
              "internalType": "address",
              "name": "forwarder",
              "type": "address"
            }
          ],
          "internalType": "struct GsnTypes.RelayData",
          "name": "relayData",
          "type": "tuple"
        }
      ],
      "name": "postRelayedCall",
      "outputs": [],
      "stateMutability": "nonpayable",
      "type": "function"
    },
    {
      "inputs": [],
      "name": "versionPaymaster",
      "outputs": [
        {
          "internalType": "string",
          "name": "",
          "type": "string"
        }
      ],
      "stateMutability": "view",
      "type": "function"
    }
  ],
  "bytecode": "0x60806040526040518060400160405280600581526020017f312e302e3000000000000000000000000000000000000000000000000000000081525060049080519060200190620000519291906200015d565b503480156200005f57600080fd5b50604051620024c7380380620024c783398181016040528101906200008591906200025f565b6000620000976200015560201b60201c565b9050806000806101000a81548173ffffffffffffffffffffffffffffffffffffffff021916908373ffffffffffffffffffffffffffffffffffffffff1602179055508073ffffffffffffffffffffffffffffffffffffffff16600073ffffffffffffffffffffffffffffffffffffffff167f8be0079c531659141344cd1fd0a4f28419497f9722a3daafe3b4186f6b6457e060405160405180910390a35080600390805190602001906200014d9291906200015d565b505062000335565b600033905090565b828054600181600116156101000203166002900490600052602060002090601f016020900481019282601f10620001a057805160ff1916838001178555620001d1565b82800160010185558215620001d1579182015b82811115620001d0578251825591602001919060010190620001b3565b5b509050620001e09190620001e4565b5090565b5b80821115620001ff576000816000905550600101620001e5565b5090565b600082601f8301126200021557600080fd5b81516200022c6200022682620002d2565b620002a4565b915080825260208301602083018583830111156200024957600080fd5b62000256838284620002ff565b50505092915050565b6000602082840312156200027257600080fd5b600082015167ffffffffffffffff8111156200028d57600080fd5b6200029b8482850162000203565b91505092915050565b6000604051905081810181811067ffffffffffffffff82111715620002c857600080fd5b8060405250919050565b600067ffffffffffffffff821115620002ea57600080fd5b601f19601f8301169050602081019050919050565b60005b838110156200031f57808201518184015260208101905062000302565b838111156200032f576000848401525b50505050565b61218280620003456000396000f3fe6080604052600436106101445760003560e01c80638da5cb5b116100b6578063d5d7ff3c1161006f578063d5d7ff3c1461053f578063da74222814610568578063df463a6614610591578063e5c12446146105bc578063f2fde38b146105fa578063f9c002f7146106235761026b565b80638da5cb5b146104415780638e9483b01461046c578063921276ea146104955780639ea09211146104c0578063b90b41cf146104e9578063bbdaa3c9146105145761026b565b80635ea54eee116101085780635ea54eee14610357578063715018a61461038257806374e861d614610399578063776d1a01146103c45780637bb05264146103ed5780637da0a877146104165761026b565b806306fdde03146102705780631f110fd51461029b5780632afe31c1146102d85780632d14c4b71461030357806354fd4d501461032c5761026b565b3661026b57600073ffffffffffffffffffffffffffffffffffffffff16600160009054906101000a900473ffffffffffffffffffffffffffffffffffffffff1673ffffffffffffffffffffffffffffffffffffffff1614156101db576040517f08c379a00000000000000000000000000000000000000000000000000000000081526004016101d290611e1b565b60405180910390fd5b600160009054906101000a900473ffffffffffffffffffffffffffffffffffffffff1673ffffffffffffffffffffffffffffffffffffffff1663aa67c91934306040518363ffffffff1660e01b81526004016102379190611d38565b6000604051808303818588803b15801561025057600080fd5b505af1158015610264573d6000803e3d6000fd5b5050505050005b600080fd5b34801561027c57600080fd5b5061028561064e565b6040516102929190611db9565b60405180910390f35b3480156102a757600080fd5b506102c260048036038101906102bd91906116ee565b6106ec565b6040516102cf9190611d53565b60405180910390f35b3480156102e457600080fd5b506102ed610742565b6040516102fa9190611ed6565b60405180910390f35b34801561030f57600080fd5b5061032a60048036038101906103259190611970565b6107f4565b005b34801561033857600080fd5b50610341610902565b60405161034e9190611db9565b60405180910390f35b34801561036357600080fd5b5061036c6109a0565b6040516103799190611ebb565b60405180910390f35b34801561038e57600080fd5b506103976109d5565b005b3480156103a557600080fd5b506103ae610b0f565b6040516103bb9190611d1d565b60405180910390f35b3480156103d057600080fd5b506103eb60048036038101906103e691906116ee565b610b39565b005b3480156103f957600080fd5b50610414600480360381019061040f9190611801565b610c53565b005b34801561042257600080fd5b5061042b610d13565b6040516104389190611d9e565b60405180910390f35b34801561044d57600080fd5b50610456610d39565b6040516104639190611d1d565b60405180910390f35b34801561047857600080fd5b50610493600480360381019061048e9190611740565b610d62565b005b3480156104a157600080fd5b506104aa610dae565b6040516104b79190611db9565b60405180910390f35b3480156104cc57600080fd5b506104e760048036038101906104e2919061182a565b610e50565b005b3480156104f557600080fd5b506104fe610f0d565b60405161050b9190611ed6565b60405180910390f35b34801561052057600080fd5b50610529610f13565b6040516105369190611ed6565b60405180910390f35b34801561054b57600080fd5b50610566600480360381019061056191906116ee565b610f1a565b005b34801561057457600080fd5b5061058f600480360381019061058a91906117d8565b611034565b005b34801561059d57600080fd5b506105a66110f4565b6040516105b39190611ed6565b60405180910390f35b3480156105c857600080fd5b506105e360048036038101906105de919061186b565b6110ff565b6040516105f1929190611d6e565b60405180910390f35b34801561060657600080fd5b50610621600480360381019061061c91906116ee565b6111eb565b005b34801561062f57600080fd5b50610638611394565b6040516106459190611ed6565b60405180910390f35b60038054600181600116156101000203166002900480601f0160208091040260200160405190810160405280929190818152602001828054600181600116156101000203166002900480156106e45780601f106106b9576101008083540402835291602001916106e4565b820191906000526020600020905b8154815290600101906020018083116106c757829003601f168201915b505050505081565b6000600560008373ffffffffffffffffffffffffffffffffffffffff1673ffffffffffffffffffffffffffffffffffffffff16815260200190815260200160002060009054906101000a900460ff169050919050565b6000600160009054906101000a900473ffffffffffffffffffffffffffffffffffffffff1673ffffffffffffffffffffffffffffffffffffffff166370a08231306040518263ffffffff1660e01b815260040161079f9190611d38565b60206040518083038186803b1580156107b757600080fd5b505afa1580156107cb573d6000803e3d6000fd5b505050506040513d601f19601f820116820180604052508101906107ef9190611947565b905090565b6107fc61139b565b73ffffffffffffffffffffffffffffffffffffffff1661081a610d39565b73ffffffffffffffffffffffffffffffffffffffff1614610870576040517f08c379a000000000000000000000000000000000000000000000000000000000815260040161086790611e9b565b60405180910390fd5b600160009054906101000a900473ffffffffffffffffffffffffffffffffffffffff1673ffffffffffffffffffffffffffffffffffffffff1662f714ce83836040518363ffffffff1660e01b81526004016108cc929190611ef1565b600060405180830381600087803b1580156108e657600080fd5b505af11580156108fa573d6000803e3d6000fd5b505050505050565b60048054600181600116156101000203166002900480601f0160208091040260200160405190810160405280929190818152602001828054600181600116156101000203166002900480156109985780601f1061096d57610100808354040283529160200191610998565b820191906000526020600020905b81548152906001019060200180831161097b57829003601f168201915b505050505081565b6109a86115a4565b604051806060016040528061c350620186a0018152602001620186a081526020016201adb0815250905090565b6109dd61139b565b73ffffffffffffffffffffffffffffffffffffffff166109fb610d39565b73ffffffffffffffffffffffffffffffffffffffff1614610a51576040517f08c379a0000000000000000000000000000000000000000000000000000000008152600401610a4890611e9b565b60405180910390fd5b600073ffffffffffffffffffffffffffffffffffffffff1660008054906101000a900473ffffffffffffffffffffffffffffffffffffffff1673ffffffffffffffffffffffffffffffffffffffff167f8be0079c531659141344cd1fd0a4f28419497f9722a3daafe3b4186f6b6457e060405160405180910390a360008060006101000a81548173ffffffffffffffffffffffffffffffffffffffff021916908373ffffffffffffffffffffffffffffffffffffffff160217905550565b6000600160009054906101000a900473ffffffffffffffffffffffffffffffffffffffff16905090565b610b4161139b565b73ffffffffffffffffffffffffffffffffffffffff16610b5f610d39565b73ffffffffffffffffffffffffffffffffffffffff1614610bb5576040517f08c379a0000000000000000000000000000000000000000000000000000000008152600401610bac90611e9b565b60405180910390fd5b6001600560008373ffffffffffffffffffffffffffffffffffffffff1673ffffffffffffffffffffffffffffffffffffffff16815260200190815260200160002060006101000a81548160ff0219169083151502179055508073ffffffffffffffffffffffffffffffffffffffff167f3bfb4bbf112628248058745a3c57e35b13369386e474b8e56c552f3063a4a19660405160405180910390a250565b610c5b61139b565b73ffffffffffffffffffffffffffffffffffffffff16610c79610d39565b73ffffffffffffffffffffffffffffffffffffffff1614610ccf576040517f08c379a0000000000000000000000000000000000000000000000000000000008152600401610cc690611e9b565b60405180910390fd5b80600160006101000a81548173ffffffffffffffffffffffffffffffffffffffff021916908373ffffffffffffffffffffffffffffffffffffffff16021790555050565b600260009054906101000a900473ffffffffffffffffffffffffffffffffffffffff1681565b60008060009054906101000a900473ffffffffffffffffffffffffffffffffffffffff16905090565b7f142c6d2c03c5b3fcbb162bc0e230bbaae8c9032eb624a8fd44658e00efa63c908585810190610d92919061191e565b604051610d9f9190611ed6565b60405180910390a15050505050565b606060048054600181600116156101000203166002900480601f016020809104026020016040519081016040528092919081815260200182805460018160011615610100020316600290048015610e465780601f10610e1b57610100808354040283529160200191610e46565b820191906000526020600020905b815481529060010190602001808311610e2957829003601f168201915b5050505050905090565b808060200190610e609190611f3e565b60e0016020810190610e7291906116ee565b73ffffffffffffffffffffffffffffffffffffffff16600260009054906101000a900473ffffffffffffffffffffffffffffffffffffffff1673ffffffffffffffffffffffffffffffffffffffff1614610f01576040517f08c379a0000000000000000000000000000000000000000000000000000000008152600401610ef890611e3b565b60405180910390fd5b610f0a816113a3565b50565b61c35081565b6201adb081565b610f2261139b565b73ffffffffffffffffffffffffffffffffffffffff16610f40610d39565b73ffffffffffffffffffffffffffffffffffffffff1614610f96576040517f08c379a0000000000000000000000000000000000000000000000000000000008152600401610f8d90611e9b565b60405180910390fd5b6000600560008373ffffffffffffffffffffffffffffffffffffffff1673ffffffffffffffffffffffffffffffffffffffff16815260200190815260200160002060006101000a81548160ff0219169083151502179055508073ffffffffffffffffffffffffffffffffffffffff167fe553c8d5c5394d64d3220f3548c51ee149f9d77f3052d1e18ce62f0926a1608060405160405180910390a250565b61103c61139b565b73ffffffffffffffffffffffffffffffffffffffff1661105a610d39565b73ffffffffffffffffffffffffffffffffffffffff16146110b0576040517f08c379a00000000000000000000000000000000000000000000000000000000081526004016110a790611e9b565b60405180910390fd5b80600260006101000a81548173ffffffffffffffffffffffffffffffffffffffff021916908373ffffffffffffffffffffffffffffffffffffffff16021790555050565b61c350620186a00181565b6060600061110c88610e50565b600560008980600001906111209190611f1a565b602001602081019061113291906116ee565b73ffffffffffffffffffffffffffffffffffffffff1673ffffffffffffffffffffffffffffffffffffffff16815260200190815260200160002060009054906101000a900460ff1661118357600080fd5b7f1fab8d24eefec3578055fc7f1c7cce1b10153c6731e0b5ca8147e8916d884b45426040516111b29190611ed6565b60405180910390a1426040516020016111cb9190611ed6565b604051602081830303815290604052600091509150965096945050505050565b6111f361139b565b73ffffffffffffffffffffffffffffffffffffffff16611211610d39565b73ffffffffffffffffffffffffffffffffffffffff1614611267576040517f08c379a000000000000000000000000000000000000000000000000000000000815260040161125e90611e9b565b60405180910390fd5b600073ffffffffffffffffffffffffffffffffffffffff168173ffffffffffffffffffffffffffffffffffffffff1614156112d7576040517f08c379a00000000000000000000000000000000000000000000000000000000081526004016112ce90611dfb565b60405180910390fd5b8073ffffffffffffffffffffffffffffffffffffffff1660008054906101000a900473ffffffffffffffffffffffffffffffffffffffff1673ffffffffffffffffffffffffffffffffffffffff167f8be0079c531659141344cd1fd0a4f28419497f9722a3daafe3b4186f6b6457e060405160405180910390a3806000806101000a81548173ffffffffffffffffffffffffffffffffffffffff021916908373ffffffffffffffffffffffffffffffffffffffff16021790555050565b620186a081565b600033905090565b600060608280600001906113b79190611f1a565b60200160208101906113c991906116ee565b73ffffffffffffffffffffffffffffffffffffffff1663572b6c0560e01b8480602001906113f79190611f3e565b60e001602081019061140991906116ee565b6040516024016114199190611d1d565b604051602081830303815290604052907bffffffffffffffffffffffffffffffffffffffffffffffffffffffff19166020820180517bffffffffffffffffffffffffffffffffffffffffffffffffffffffff83818316178352505050506040516114839190611d06565b600060405180830381855afa9150503d80600081146114be576040519150601f19603f3d011682016040523d82523d6000602084013e6114c3565b606091505b509150915081611508576040517f08c379a00000000000000000000000000000000000000000000000000000000081526004016114ff90611e7b565b60405180910390fd5b602081511461154c576040517f08c379a000000000000000000000000000000000000000000000000000000000815260040161154390611e5b565b60405180910390fd5b808060200190518101906115609190611717565b61159f576040517f08c379a000000000000000000000000000000000000000000000000000000000815260040161159690611ddb565b60405180910390fd5b505050565b60405180606001604052806000815260200160008152602001600081525090565b6000813590506115d4816120c2565b92915050565b6000813590506115e9816120d9565b92915050565b6000813590506115fe816120f0565b92915050565b600081519050611613816120f0565b92915050565b60008083601f84011261162b57600080fd5b8235905067ffffffffffffffff81111561164457600080fd5b60208301915083600182028301111561165c57600080fd5b9250929050565b60008135905061167281612107565b92915050565b6000813590506116878161211e565b92915050565b600061010082840312156116a057600080fd5b81905092915050565b6000604082840312156116bb57600080fd5b81905092915050565b6000813590506116d381612135565b92915050565b6000815190506116e881612135565b92915050565b60006020828403121561170057600080fd5b600061170e848285016115c5565b91505092915050565b60006020828403121561172957600080fd5b600061173784828501611604565b91505092915050565b60008060008060006080868803121561175857600080fd5b600086013567ffffffffffffffff81111561177257600080fd5b61177e88828901611619565b95509550506020611791888289016115ef565b93505060406117a2888289016116c4565b925050606086013567ffffffffffffffff8111156117bf57600080fd5b6117cb8882890161168d565b9150509295509295909350565b6000602082840312156117ea57600080fd5b60006117f884828501611663565b91505092915050565b60006020828403121561181357600080fd5b600061182184828501611678565b91505092915050565b60006020828403121561183c57600080fd5b600082013567ffffffffffffffff81111561185657600080fd5b611862848285016116a9565b91505092915050565b6000806000806000806080878903121561188457600080fd5b600087013567ffffffffffffffff81111561189e57600080fd5b6118aa89828a016116a9565b965050602087013567ffffffffffffffff8111156118c757600080fd5b6118d389828a01611619565b9550955050604087013567ffffffffffffffff8111156118f257600080fd5b6118fe89828a01611619565b9350935050606061191189828a016116c4565b9150509295509295509295565b60006020828403121561193057600080fd5b600061193e848285016116c4565b91505092915050565b60006020828403121561195957600080fd5b6000611967848285016116d9565b91505092915050565b6000806040838503121561198357600080fd5b6000611991858286016116c4565b92505060206119a2858286016115da565b9150509250929050565b6119b581612024565b82525050565b6119c481611fb8565b82525050565b6119d381611fa6565b82525050565b6119e281611fca565b82525050565b60006119f382611f63565b6119fd8185611f79565b9350611a0d81856020860161207e565b611a16816120b1565b840191505092915050565b6000611a2c82611f63565b611a368185611f8a565b9350611a4681856020860161207e565b80840191505092915050565b611a5b81612036565b82525050565b6000611a6c82611f6e565b611a768185611f95565b9350611a8681856020860161207e565b611a8f816120b1565b840191505092915050565b6000611aa7601f83611f95565b91507f696e76616c696420666f7277617264657220666f7220726563697069656e74006000830152602082019050919050565b6000611ae7602683611f95565b91507f4f776e61626c653a206e6577206f776e657220697320746865207a65726f206160008301527f64647265737300000000000000000000000000000000000000000000000000006020830152604082019050919050565b6000611b4d601983611f95565b91507f72656c6179206875622061646472657373206e6f7420736574000000000000006000830152602082019050919050565b6000611b8d601883611f95565b91507f466f72776172646572206973206e6f74207472757374656400000000000000006000830152602082019050919050565b6000611bcd602c83611f95565b91507f697354727573746564466f727761726465722072657475726e656420696e766160008301527f6c696420726573706f6e736500000000000000000000000000000000000000006020830152604082019050919050565b6000611c33601b83611f95565b91507f697354727573746564466f7277617264657220726576657274656400000000006000830152602082019050919050565b6000611c73602083611f95565b91507f4f776e61626c653a2063616c6c6572206973206e6f7420746865206f776e65726000830152602082019050919050565b606082016000820151611cbc6000850182611ce8565b506020820151611ccf6020850182611ce8565b506040820151611ce26040850182611ce8565b50505050565b611cf18161201a565b82525050565b611d008161201a565b82525050565b6000611d128284611a21565b915081905092915050565b6000602082019050611d3260008301846119ca565b92915050565b6000602082019050611d4d60008301846119ac565b92915050565b6000602082019050611d6860008301846119d9565b92915050565b60006040820190508181036000830152611d8881856119e8565b9050611d9760208301846119d9565b9392505050565b6000602082019050611db36000830184611a52565b92915050565b60006020820190508181036000830152611dd38184611a61565b905092915050565b60006020820190508181036000830152611df481611a9a565b9050919050565b60006020820190508181036000830152611e1481611ada565b9050919050565b60006020820190508181036000830152611e3481611b40565b9050919050565b60006020820190508181036000830152611e5481611b80565b9050919050565b60006020820190508181036000830152611e7481611bc0565b9050919050565b60006020820190508181036000830152611e9481611c26565b9050919050565b60006020820190508181036000830152611eb481611c66565b9050919050565b6000606082019050611ed06000830184611ca6565b92915050565b6000602082019050611eeb6000830184611cf7565b92915050565b6000604082019050611f066000830185611cf7565b611f1360208301846119bb565b9392505050565b60008235600160c003833603038112611f3257600080fd5b80830191505092915050565b60008235600161010003833603038112611f5757600080fd5b80830191505092915050565b600081519050919050565b600081519050919050565b600082825260208201905092915050565b600081905092915050565b600082825260208201905092915050565b6000611fb182611ffa565b9050919050565b6000611fc382611ffa565b9050919050565b60008115159050919050565b6000611fe182611fa6565b9050919050565b6000611ff382611fa6565b9050919050565b600073ffffffffffffffffffffffffffffffffffffffff82169050919050565b6000819050919050565b600061202f8261205a565b9050919050565b600061204182612048565b9050919050565b600061205382611ffa565b9050919050565b60006120658261206c565b9050919050565b600061207782611ffa565b9050919050565b60005b8381101561209c578082015181840152602081019050612081565b838111156120ab576000848401525b50505050565b6000601f19601f8301169050919050565b6120cb81611fa6565b81146120d657600080fd5b50565b6120e281611fb8565b81146120ed57600080fd5b50565b6120f981611fca565b811461210457600080fd5b50565b61211081611fd6565b811461211b57600080fd5b50565b61212781611fe8565b811461213257600080fd5b50565b61213e8161201a565b811461214957600080fd5b5056fea264697066735822122045dbd40439657144659be36e6ca0b7618eda67ef51593d92d7f9ab1cecdfc2ed64736f6c634300060c0033",
  "immutableReferences": {},
  "source": "// SPDX-License-Identifier: MIT\n\npragma solidity ^0.6.10;\npragma experimental ABIEncoderV2;\n\nimport \"@opengsn/gsn/contracts/forwarder/IForwarder.sol\";\nimport \"@opengsn/gsn/contracts/BasePaymaster.sol\";\n\n/**\n * @dev Implementation of the {BasePaymaster} interface.\n *\n * Contracts may inherit from this and call {setTarget}, {removeTarget} to declare\n * if they are willing to pay for relay call to given address.\n */\ncontract NaivePaymaster is BasePaymaster {\n  string public name;\n  string public version = \"1.0.0\";\n\n  // TODO: Do we need a withdraw function?\n\n  /**\n   * @dev Mapping of the addresses we are willing to pay for.\n   */\n  mapping(address => bool) private targetAddresses;\n\n  constructor(string memory _name) public {\n    name = _name;\n  }\n\n  event TargetSet(address indexed target);\n  event TargetRemoved(address indexed target);\n\n  /**\n   * @dev Registers the contract paymaster is willing to pay for.\n   */\n  function setTarget(address target) external onlyOwner {\n    targetAddresses[target] = true;\n    emit TargetSet(target);\n  }\n\n  /**\n   * @dev Revoke the contract paymaster no longer willing to pay.\n   */\n  function removeTarget(address target) external onlyOwner {\n    targetAddresses[target] = false;\n    emit TargetRemoved(target);\n  }\n\n  /**\n   * @dev Returns true if this paymaster willing to pay for relayed transaction\n   * This function call must use less than 30 000 gas.\n   */\n  function supportsAddress(address target) external view returns (bool) {\n    return targetAddresses[target];\n  }\n\n  event PreRelayed(uint256);\n  event PostRelayed(uint256);\n\n  function preRelayedCall(\n    GsnTypes.RelayRequest calldata relayRequest,\n    bytes calldata signature,\n    bytes calldata approvalData,\n    uint256 maxPossibleGas\n  ) external virtual override returns (bytes memory context, bool) {\n    _verifyForwarder(relayRequest);\n    (signature, approvalData, maxPossibleGas);\n\n    // check if relayed request is to a accepted address\n    require(targetAddresses[relayRequest.request.to]);\n    emit PreRelayed(now);\n    return (abi.encode(now), false);\n  }\n\n  function postRelayedCall(\n    bytes calldata context,\n    bool success,\n    uint256 gasUseWithoutPost,\n    GsnTypes.RelayData calldata relayData\n  ) external virtual override {\n    (context, success, gasUseWithoutPost, relayData);\n    emit PostRelayed(abi.decode(context, (uint256)));\n  }\n\n  function versionPaymaster() external view virtual override returns (string memory) {\n    return version;\n  }\n}\n",
  "sourcePath": "D://4.IMDA/2.hedera/TradeTrust/hedera-document-store/contracts/NaivePaymaster.sol",
  "compiler": {
    "name": "solc",
    "version": "0.6.12+commit.27d51765.Emscripten.clang"
  },
  "schemaVersion": "3.4.0",
  "updatedAt": "2022-02-24T08:47:52.650Z",
  "devdoc": {
    "details": "Implementation of the {BasePaymaster} interface. Contracts may inherit from this and call {setTarget}, {removeTarget} to declare if they are willing to pay for relay call to given address.",
    "kind": "dev",
    "methods": {
      "owner()": {
        "details": "Returns the address of the current owner."
      },
      "postRelayedCall(bytes,bool,uint256,(uint256,uint256,uint256,address,address,bytes,uint256,address))": {
        "params": {
          "context": "- the call context, as returned by the preRelayedCall",
          "gasUseWithoutPost": "- the actual amount of gas used by the entire transaction, EXCEPT        the gas used by the postRelayedCall itself.",
          "relayData": "- the relay params of the request. can be used by relayHub.calculateCharge() Revert in this functions causes a revert of the client's relayed call (and preRelayedCall(), but the Paymaster is still committed to pay the relay for the entire transaction.",
          "success": "- true if the relayed call succeeded, false if it reverted"
        }
      },
      "preRelayedCall(((address,address,uint256,uint256,uint256,bytes),(uint256,uint256,uint256,address,address,bytes,uint256,address)),bytes,bytes,uint256)": {
        "params": {
          "approvalData": "- extra dapp-specific data (e.g. signature from trusted party)",
          "maxPossibleGas": "- based on values returned from {@link getGasLimits},         the RelayHub will calculate the maximum possible amount of gas the user may be charged for.         In order to convert this value to wei, the Paymaster has to call \"relayHub.calculateCharge()\"  return:      a context to be passed to postRelayedCall      rejectOnRecipientRevert - TRUE if paymaster want to reject the TX if the recipient reverts.          FALSE means that rejects by the recipient will be completed on chain, and paid by the paymaster.          (note that in the latter case, the preRelayedCall and postRelayedCall are not reverted).",
          "relayRequest": "- the full relay request structure",
          "signature": "- user's EIP712-compatible signature of the {@link relayRequest}.              Note that in most cases the paymaster shouldn't try use it at all. It is always checked              by the forwarder immediately after preRelayedCall returns."
        }
      },
      "removeTarget(address)": {
        "details": "Revoke the contract paymaster no longer willing to pay."
      },
      "renounceOwnership()": {
        "details": "Leaves the contract without owner. It will not be possible to call `onlyOwner` functions anymore. Can only be called by the current owner. NOTE: Renouncing ownership will leave the contract without an owner, thereby removing any functionality that is only available to the owner."
      },
      "setTarget(address)": {
        "details": "Registers the contract paymaster is willing to pay for."
      },
      "supportsAddress(address)": {
        "details": "Returns true if this paymaster willing to pay for relayed transaction This function call must use less than 30 000 gas."
      },
      "transferOwnership(address)": {
        "details": "Transfers ownership of the contract to a new account (`newOwner`). Can only be called by the current owner."
      }
    },
    "stateVariables": {
      "targetAddresses": {
        "details": "Mapping of the addresses we are willing to pay for."
      }
    },
    "version": 1
  },
  "userdoc": {
    "kind": "user",
    "methods": {
      "getGasLimits()": {
        "notice": "Return the GasLimits constants used by the Paymaster."
      },
      "getHubAddr()": {
        "notice": "return the relayHub of this contract."
      },
      "getRelayHubDeposit()": {
        "notice": "check current deposit on relay hub."
      },
      "postRelayedCall(bytes,bool,uint256,(uint256,uint256,uint256,address,address,bytes,uint256,address))": {
        "notice": "This method is called after the actual relayed function call. It may be used to record the transaction (e.g. charge the caller by some contract logic) for this call. MUST be protected with relayHubOnly() in case it modifies state."
      },
      "preRelayedCall(((address,address,uint256,uint256,uint256,bytes),(uint256,uint256,uint256,address,address,bytes,uint256,address)),bytes,bytes,uint256)": {
        "notice": "Called by Relay (and RelayHub), to validate if the paymaster agrees to pay for this call. MUST be protected with relayHubOnly() in case it modifies state. The Paymaster rejects by the following \"revert\" operations  - preRelayedCall() method reverts  - the forwarder reverts because of nonce or signature error  - the paymaster returned \"rejectOnRecipientRevert\", and the recipient contract reverted. In any of the above cases, all paymaster calls (and recipient call) are reverted. In any other case, the paymaster agrees to pay for the gas cost of the transaction (note  that this includes also postRelayedCall revert) The rejectOnRecipientRevert flag means the Paymaster \"delegate\" the rejection to the recipient  code.  It also means the Paymaster trust the recipient to reject fast: both preRelayedCall,  forwarder check and receipient checks must fit into the GasLimits.acceptanceBudget,  otherwise the TX is paid by the Paymaster."
      },
      "withdrawRelayHubDepositTo(uint256,address)": {
        "notice": "withdraw deposit from relayHub"
      }
    },
    "version": 1
  }
}