{
  "contractName": "OwnableDocumentStore",
  "abi": [
    {
      "inputs": [
        {
          "internalType": "string",
          "name": "_name",
          "type": "string"
        }
      ],
      "stateMutability": "nonpayable",
      "type": "constructor"
    },
    {
      "anonymous": false,
      "inputs": [
        {
          "indexed": true,
          "internalType": "bytes",
          "name": "document",
          "type": "bytes"
        }
      ],
      "name": "DocumentIssued",
      "type": "event"
    },
    {
      "anonymous": false,
      "inputs": [
        {
          "indexed": true,
          "internalType": "bytes",
          "name": "document",
          "type": "bytes"
        }
      ],
      "name": "DocumentRevoked",
      "type": "event"
    },
    {
      "anonymous": false,
      "inputs": [
        {
          "indexed": true,
          "internalType": "address",
          "name": "previousOwner",
          "type": "address"
        },
        {
          "indexed": true,
          "internalType": "address",
          "name": "newOwner",
          "type": "address"
        }
      ],
      "name": "OwnershipTransferred",
      "type": "event"
    },
    {
      "inputs": [
        {
          "internalType": "bytes",
          "name": "",
          "type": "bytes"
        }
      ],
      "name": "documentIssued",
      "outputs": [
        {
          "internalType": "uint256",
          "name": "",
          "type": "uint256"
        }
      ],
      "stateMutability": "view",
      "type": "function"
    },
    {
      "inputs": [
        {
          "internalType": "bytes",
          "name": "",
          "type": "bytes"
        }
      ],
      "name": "documentRevoked",
      "outputs": [
        {
          "internalType": "uint256",
          "name": "",
          "type": "uint256"
        }
      ],
      "stateMutability": "view",
      "type": "function"
    },
    {
      "inputs": [
        {
          "internalType": "string",
          "name": "_name",
          "type": "string"
        }
      ],
      "name": "initialize",
      "outputs": [],
      "stateMutability": "nonpayable",
      "type": "function"
    },
    {
      "inputs": [
        {
          "internalType": "bytes",
          "name": "document",
          "type": "bytes"
        }
      ],
      "name": "isIssued",
      "outputs": [
        {
          "internalType": "bool",
          "name": "",
          "type": "bool"
        }
      ],
      "stateMutability": "view",
      "type": "function"
    },
    {
      "inputs": [
        {
          "internalType": "bytes",
          "name": "document",
          "type": "bytes"
        }
      ],
      "name": "isRevoked",
      "outputs": [
        {
          "internalType": "bool",
          "name": "",
          "type": "bool"
        }
      ],
      "stateMutability": "view",
      "type": "function"
    },
    {
      "inputs": [],
      "name": "name",
      "outputs": [
        {
          "internalType": "string",
          "name": "",
          "type": "string"
        }
      ],
      "stateMutability": "view",
      "type": "function"
    },
    {
      "inputs": [],
      "name": "owner",
      "outputs": [
        {
          "internalType": "address",
          "name": "",
          "type": "address"
        }
      ],
      "stateMutability": "view",
      "type": "function"
    },
    {
      "inputs": [],
      "name": "renounceOwnership",
      "outputs": [],
      "stateMutability": "nonpayable",
      "type": "function"
    },
    {
      "inputs": [
        {
          "internalType": "address",
          "name": "newOwner",
          "type": "address"
        }
      ],
      "name": "transferOwnership",
      "outputs": [],
      "stateMutability": "nonpayable",
      "type": "function"
    },
    {
      "inputs": [],
      "name": "version",
      "outputs": [
        {
          "internalType": "string",
          "name": "",
          "type": "string"
        }
      ],
      "stateMutability": "view",
      "type": "function"
    },
    {
      "inputs": [
        {
          "internalType": "bytes",
          "name": "document",
          "type": "bytes"
        }
      ],
      "name": "issue",
      "outputs": [],
      "stateMutability": "nonpayable",
      "type": "function"
    },
    {
      "inputs": [
        {
          "internalType": "bytes[]",
          "name": "documents",
          "type": "bytes[]"
        }
      ],
      "name": "bulkIssue",
      "outputs": [],
      "stateMutability": "nonpayable",
      "type": "function"
    },
    {
      "inputs": [
        {
          "internalType": "bytes",
          "name": "document",
          "type": "bytes"
        }
      ],
      "name": "revoke",
      "outputs": [
        {
          "internalType": "bool",
          "name": "",
          "type": "bool"
        }
      ],
      "stateMutability": "nonpayable",
      "type": "function"
    },
    {
      "inputs": [
        {
          "internalType": "bytes[]",
          "name": "documents",
          "type": "bytes[]"
        }
      ],
      "name": "bulkRevoke",
      "outputs": [],
      "stateMutability": "nonpayable",
      "type": "function"
    }
  ],
  "bytecode": "0x60806040523480156200001157600080fd5b5060405162001b1b38038062001b1b83398181016040528101906200003791906200039f565b6000620000496200010560201b60201c565b905080600560006101000a81548173ffffffffffffffffffffffffffffffffffffffff021916908373ffffffffffffffffffffffffffffffffffffffff1602179055508073ffffffffffffffffffffffffffffffffffffffff16600073ffffffffffffffffffffffffffffffffffffffff167f8be0079c531659141344cd1fd0a4f28419497f9722a3daafe3b4186f6b6457e060405160405180910390a350620000fe816200010d60201b62000a611760201c565b5062000510565b600033905090565b600060019054906101000a900460ff1680620001355750620001346200026c60201b60201c565b5b806200014c575060008054906101000a900460ff16155b6200018e576040517f08c379a000000000000000000000000000000000000000000000000000000000815260040162000185906200044c565b60405180910390fd5b60008060019054906101000a900460ff161590508015620001df576001600060016101000a81548160ff02191690831515021790555060016000806101000a81548160ff0219169083151502179055505b6040518060400160405280600581526020017f322e332e30000000000000000000000000000000000000000000000000000000815250600290805190602001906200022c9291906200029d565b508160019080519060200190620002459291906200029d565b508015620002685760008060016101000a81548160ff0219169083151502179055505b5050565b600062000284306200028a60201b62000bd81760201c565b15905090565b600080823b905060008111915050919050565b828054600181600116156101000203166002900490600052602060002090601f016020900481019282601f10620002e057805160ff191683800117855562000311565b8280016001018555821562000311579182015b8281111562000310578251825591602001919060010190620002f3565b5b50905062000320919062000324565b5090565b5b808211156200033f57600081600090555060010162000325565b5090565b600082601f8301126200035557600080fd5b81516200036c62000366826200049c565b6200046e565b915080825260208301602083018583830111156200038957600080fd5b62000396838284620004da565b50505092915050565b600060208284031215620003b257600080fd5b600082015167ffffffffffffffff811115620003cd57600080fd5b620003db8482850162000343565b91505092915050565b6000620003f3602e83620004c9565b91507f496e697469616c697a61626c653a20636f6e747261637420697320616c72656160008301527f647920696e697469616c697a65640000000000000000000000000000000000006020830152604082019050919050565b600060208201905081810360008301526200046781620003e4565b9050919050565b6000604051905081810181811067ffffffffffffffff821117156200049257600080fd5b8060405250919050565b600067ffffffffffffffff821115620004b457600080fd5b601f19601f8301169050602081019050919050565b600082825260208201905092915050565b60005b83811015620004fa578082015181840152602081019050620004dd565b838111156200050a576000848401525b50505050565b6115fb80620005206000396000f3fe608060405234801561001057600080fd5b50600436106100ea5760003560e01c80638da5cb5b1161008c578063d1d03d4211610066578063d1d03d421461024b578063f2fde38b14610267578063f62d188814610283578063fad280f71461029f576100ea565b80638da5cb5b146101e1578063a91a3f3c146101ff578063b613823d1461022f576100ea565b806331886822116100c8578063318868221461016d57806354fd4d5014610189578063715018a6146101a757806388e3ac15146101b1576100ea565b806305acc7a7146100ef57806306fdde031461011f5780630b467b9b1461013d575b600080fd5b61010960048036038101906101049190611019565b6102cf565b6040516101169190611419565b60405180910390f35b6101276102fd565b6040516101349190611357565b60405180910390f35b61015760048036038101906101529190611019565b61039b565b604051610164919061133c565b60405180910390f35b61018760048036038101906101829190611019565b610474565b005b610191610547565b60405161019e9190611357565b60405180910390f35b6101af6105e5565b005b6101cb60048036038101906101c69190611019565b610722565b6040516101d8919061133c565b60405180910390f35b6101e961074d565b6040516101f69190611321565b60405180910390f35b61021960048036038101906102149190611019565b610777565b6040516102269190611419565b60405180910390f35b61024960048036038101906102449190610fd8565b6107a5565b005b61026560048036038101906102609190610fd8565b61082d565b005b610281600480360381019061027c9190610faf565b6108b5565b005b61029d6004803603810190610298919061105a565b610a61565b005b6102b960048036038101906102b49190611019565b610bad565b6040516102c6919061133c565b60405180910390f35b6004818051602081018201805184825260208301602085012081835280955050505050506000915090505481565b60018054600181600116156101000203166002900480601f0160208091040260200160405190810160405280929190818152602001828054600181600116156101000203166002900480156103935780601f1061036857610100808354040283529160200191610393565b820191906000526020600020905b81548152906001019060200180831161037657829003601f168201915b505050505081565b60006103a5610beb565b73ffffffffffffffffffffffffffffffffffffffff166103c361074d565b73ffffffffffffffffffffffffffffffffffffffff1614610419576040517f08c379a0000000000000000000000000000000000000000000000000000000008152600401610410906113f9565b60405180910390fd5b8161042381610722565b15610463576040517f08c379a000000000000000000000000000000000000000000000000000000000815260040161045a90611379565b60405180910390fd5b61046c83610bf3565b915050919050565b61047c610beb565b73ffffffffffffffffffffffffffffffffffffffff1661049a61074d565b73ffffffffffffffffffffffffffffffffffffffff16146104f0576040517f08c379a00000000000000000000000000000000000000000000000000000000081526004016104e7906113f9565b60405180910390fd5b806104fa81610bad565b1561053a576040517f08c379a0000000000000000000000000000000000000000000000000000000008152600401610531906113b9565b60405180910390fd5b61054382610caa565b5050565b60028054600181600116156101000203166002900480601f0160208091040260200160405190810160405280929190818152602001828054600181600116156101000203166002900480156105dd5780601f106105b2576101008083540402835291602001916105dd565b820191906000526020600020905b8154815290600101906020018083116105c057829003601f168201915b505050505081565b6105ed610beb565b73ffffffffffffffffffffffffffffffffffffffff1661060b61074d565b73ffffffffffffffffffffffffffffffffffffffff1614610661576040517f08c379a0000000000000000000000000000000000000000000000000000000008152600401610658906113f9565b60405180910390fd5b600073ffffffffffffffffffffffffffffffffffffffff16600560009054906101000a900473ffffffffffffffffffffffffffffffffffffffff1673ffffffffffffffffffffffffffffffffffffffff167f8be0079c531659141344cd1fd0a4f28419497f9722a3daafe3b4186f6b6457e060405160405180910390a36000600560006101000a81548173ffffffffffffffffffffffffffffffffffffffff021916908373ffffffffffffffffffffffffffffffffffffffff160217905550565b600080600483604051610735919061130a565b90815260200160405180910390205414159050919050565b6000600560009054906101000a900473ffffffffffffffffffffffffffffffffffffffff16905090565b6003818051602081018201805184825260208301602085012081835280955050505050506000915090505481565b6107ad610beb565b73ffffffffffffffffffffffffffffffffffffffff166107cb61074d565b73ffffffffffffffffffffffffffffffffffffffff1614610821576040517f08c379a0000000000000000000000000000000000000000000000000000000008152600401610818906113f9565b60405180910390fd5b61082a81610d5d565b50565b610835610beb565b73ffffffffffffffffffffffffffffffffffffffff1661085361074d565b73ffffffffffffffffffffffffffffffffffffffff16146108a9576040517f08c379a00000000000000000000000000000000000000000000000000000000081526004016108a0906113f9565b60405180910390fd5b6108b281610d97565b50565b6108bd610beb565b73ffffffffffffffffffffffffffffffffffffffff166108db61074d565b73ffffffffffffffffffffffffffffffffffffffff1614610931576040517f08c379a0000000000000000000000000000000000000000000000000000000008152600401610928906113f9565b60405180910390fd5b600073ffffffffffffffffffffffffffffffffffffffff168173ffffffffffffffffffffffffffffffffffffffff1614156109a1576040517f08c379a000000000000000000000000000000000000000000000000000000000815260040161099890611399565b60405180910390fd5b8073ffffffffffffffffffffffffffffffffffffffff16600560009054906101000a900473ffffffffffffffffffffffffffffffffffffffff1673ffffffffffffffffffffffffffffffffffffffff167f8be0079c531659141344cd1fd0a4f28419497f9722a3daafe3b4186f6b6457e060405160405180910390a380600560006101000a81548173ffffffffffffffffffffffffffffffffffffffff021916908373ffffffffffffffffffffffffffffffffffffffff16021790555050565b600060019054906101000a900460ff1680610a805750610a7f610dd0565b5b80610a96575060008054906101000a900460ff16155b610ad5576040517f08c379a0000000000000000000000000000000000000000000000000000000008152600401610acc906113d9565b60405180910390fd5b60008060019054906101000a900460ff161590508015610b25576001600060016101000a81548160ff02191690831515021790555060016000806101000a81548160ff0219169083151502179055505b6040518060400160405280600581526020017f322e332e3000000000000000000000000000000000000000000000000000000081525060029080519060200190610b70929190610de1565b508160019080519060200190610b87929190610de1565b508015610ba95760008060016101000a81548160ff0219169083151502179055505b5050565b600080600383604051610bc0919061130a565b90815260200160405180910390205414159050919050565b600080823b905060008111915050919050565b600033905090565b600081610bff81610722565b15610c3f576040517f08c379a0000000000000000000000000000000000000000000000000000000008152600401610c3690611379565b60405180910390fd5b42600484604051610c50919061130a565b90815260200160405180910390208190555082604051610c70919061130a565b60405180910390207fd06026efabefaf58d0e4209dab86e740de514d8862953f10a22f1af8c2f2909460405160405180910390a250919050565b80610cb481610bad565b15610cf4576040517f08c379a0000000000000000000000000000000000000000000000000000000008152600401610ceb906113b9565b60405180910390fd5b42600383604051610d05919061130a565b90815260200160405180910390208190555081604051610d25919061130a565b60405180910390207fe733eb2ec0cbe632113b39e823b85fd4f8853b0de59757070e894c5cd983ef9f60405160405180910390a25050565b60005b8151811015610d9357610d85828281518110610d7857fe5b6020026020010151610bf3565b508080600101915050610d60565b5050565b60005b8151811015610dcc57610dbf828281518110610db257fe5b6020026020010151610caa565b8080600101915050610d9a565b5050565b6000610ddb30610bd8565b15905090565b828054600181600116156101000203166002900490600052602060002090601f016020900481019282601f10610e2257805160ff1916838001178555610e50565b82800160010185558215610e50579182015b82811115610e4f578251825591602001919060010190610e34565b5b509050610e5d9190610e61565b5090565b5b80821115610e7a576000816000905550600101610e62565b5090565b600081359050610e8d816115ae565b92915050565b600082601f830112610ea457600080fd5b8135610eb7610eb282611461565b611434565b9150818183526020840193506020810190508360005b83811015610efd5781358601610ee38882610f07565b845260208401935060208301925050600181019050610ecd565b5050505092915050565b600082601f830112610f1857600080fd5b8135610f2b610f2682611489565b611434565b91508082526020830160208301858383011115610f4757600080fd5b610f5283828461155b565b50505092915050565b600082601f830112610f6c57600080fd5b8135610f7f610f7a826114b5565b611434565b91508082526020830160208301858383011115610f9b57600080fd5b610fa683828461155b565b50505092915050565b600060208284031215610fc157600080fd5b6000610fcf84828501610e7e565b91505092915050565b600060208284031215610fea57600080fd5b600082013567ffffffffffffffff81111561100457600080fd5b61101084828501610e93565b91505092915050565b60006020828403121561102b57600080fd5b600082013567ffffffffffffffff81111561104557600080fd5b61105184828501610f07565b91505092915050565b60006020828403121561106c57600080fd5b600082013567ffffffffffffffff81111561108657600080fd5b61109284828501610f5b565b91505092915050565b6110a481611513565b82525050565b6110b381611525565b82525050565b60006110c4826114e1565b6110ce81856114f7565b93506110de81856020860161156a565b80840191505092915050565b60006110f5826114ec565b6110ff8185611502565b935061110f81856020860161156a565b6111188161159d565b840191505092915050565b6000611130602783611502565b91507f4572726f723a204861736820686173206265656e207265766f6b65642070726560008301527f76696f75736c79000000000000000000000000000000000000000000000000006020830152604082019050919050565b6000611196602683611502565b91507f4f776e61626c653a206e6577206f776e657220697320746865207a65726f206160008301527f64647265737300000000000000000000000000000000000000000000000000006020830152604082019050919050565b60006111fc603a83611502565b91507f4572726f723a204f6e6c792068617368657320746861742068617665206e6f7460008301527f206265656e206973737565642063616e206265206973737565640000000000006020830152604082019050919050565b6000611262602e83611502565b91507f496e697469616c697a61626c653a20636f6e747261637420697320616c72656160008301527f647920696e697469616c697a65640000000000000000000000000000000000006020830152604082019050919050565b60006112c8602083611502565b91507f4f776e61626c653a2063616c6c6572206973206e6f7420746865206f776e65726000830152602082019050919050565b61130481611551565b82525050565b600061131682846110b9565b915081905092915050565b6000602082019050611336600083018461109b565b92915050565b600060208201905061135160008301846110aa565b92915050565b6000602082019050818103600083015261137181846110ea565b905092915050565b6000602082019050818103600083015261139281611123565b9050919050565b600060208201905081810360008301526113b281611189565b9050919050565b600060208201905081810360008301526113d2816111ef565b9050919050565b600060208201905081810360008301526113f281611255565b9050919050565b60006020820190508181036000830152611412816112bb565b9050919050565b600060208201905061142e60008301846112fb565b92915050565b6000604051905081810181811067ffffffffffffffff8211171561145757600080fd5b8060405250919050565b600067ffffffffffffffff82111561147857600080fd5b602082029050602081019050919050565b600067ffffffffffffffff8211156114a057600080fd5b601f19601f8301169050602081019050919050565b600067ffffffffffffffff8211156114cc57600080fd5b601f19601f8301169050602081019050919050565b600081519050919050565b600081519050919050565b600081905092915050565b600082825260208201905092915050565b600061151e82611531565b9050919050565b60008115159050919050565b600073ffffffffffffffffffffffffffffffffffffffff82169050919050565b6000819050919050565b82818337600083830152505050565b60005b8381101561158857808201518184015260208101905061156d565b83811115611597576000848401525b50505050565b6000601f19601f8301169050919050565b6115b781611513565b81146115c257600080fd5b5056fea26469706673582212200f02e3bdf400fc0289b37321e6e5abadcd239ba38a77e486366bd0db5db50dc164736f6c634300060c0033",
  "immutableReferences": {},
  "source": "// SPDX-License-Identifier: Apache-2.0\n\npragma solidity ^0.6.10;\npragma experimental ABIEncoderV2;\n\nimport \"@openzeppelin/contracts/access/Ownable.sol\";\n\nimport \"./BaseDocumentStore.sol\";\n\ncontract OwnableDocumentStore is BaseDocumentStore, Ownable {\n  constructor(string memory _name) public {\n    BaseDocumentStore.initialize(_name);\n  }\n\n  function issue(bytes memory document) public onlyOwner onlyNotIssued(document) {\n    BaseDocumentStore._issue(document);\n  }\n\n  function bulkIssue(bytes[] memory documents) public onlyOwner {\n    BaseDocumentStore._bulkIssue(documents);\n  }\n\n  function revoke(bytes memory document) public onlyOwner onlyNotRevoked(document) returns (bool) {\n    return BaseDocumentStore._revoke(document);\n  }\n\n  function bulkRevoke(bytes[] memory documents) public onlyOwner {\n    return BaseDocumentStore._bulkRevoke(documents);\n  }\n}\n",
  "sourcePath": "D:\\\\4.IMDA\\2.hedera\\TradeTrust\\hedera-document-store\\contracts\\OwnableDocumentStore.sol",
  "compiler": {
    "name": "solc",
    "version": "0.6.12+commit.27d51765.Emscripten.clang"
  },
  "schemaVersion": "3.4.0",
  "updatedAt": "2022-02-24T08:47:52.655Z",
  "devdoc": {
    "kind": "dev",
    "methods": {
      "owner()": {
        "details": "Returns the address of the current owner."
      },
      "renounceOwnership()": {
        "details": "Leaves the contract without owner. It will not be possible to call `onlyOwner` functions anymore. Can only be called by the current owner. NOTE: Renouncing ownership will leave the contract without an owner, thereby removing any functionality that is only available to the owner."
      },
      "transferOwnership(address)": {
        "details": "Transfers ownership of the contract to a new account (`newOwner`). Can only be called by the current owner."
      }
    },
    "version": 1
  },
  "userdoc": {
    "kind": "user",
    "methods": {
      "documentIssued(bytes)": {
        "notice": "A mapping of the document hash to the block number that was issued"
      },
      "documentRevoked(bytes)": {
        "notice": "A mapping of the hash of the claim being revoked to the revocation block number"
      }
    },
    "version": 1
  }
}