{
  "contractName": "UpgradableDocumentStore",
  "abi": [
    {
      "anonymous": false,
      "inputs": [
        {
          "indexed": true,
          "internalType": "bytes",
          "name": "document",
          "type": "bytes"
        }
      ],
      "name": "DocumentIssued",
      "type": "event"
    },
    {
      "anonymous": false,
      "inputs": [
        {
          "indexed": true,
          "internalType": "bytes",
          "name": "document",
          "type": "bytes"
        }
      ],
      "name": "DocumentRevoked",
      "type": "event"
    },
    {
      "anonymous": false,
      "inputs": [
        {
          "indexed": true,
          "internalType": "address",
          "name": "previousOwner",
          "type": "address"
        },
        {
          "indexed": true,
          "internalType": "address",
          "name": "newOwner",
          "type": "address"
        }
      ],
      "name": "OwnershipTransferred",
      "type": "event"
    },
    {
      "inputs": [
        {
          "internalType": "bytes",
          "name": "",
          "type": "bytes"
        }
      ],
      "name": "documentIssued",
      "outputs": [
        {
          "internalType": "uint256",
          "name": "",
          "type": "uint256"
        }
      ],
      "stateMutability": "view",
      "type": "function"
    },
    {
      "inputs": [
        {
          "internalType": "bytes",
          "name": "",
          "type": "bytes"
        }
      ],
      "name": "documentRevoked",
      "outputs": [
        {
          "internalType": "uint256",
          "name": "",
          "type": "uint256"
        }
      ],
      "stateMutability": "view",
      "type": "function"
    },
    {
      "inputs": [
        {
          "internalType": "bytes",
          "name": "document",
          "type": "bytes"
        }
      ],
      "name": "isIssued",
      "outputs": [
        {
          "internalType": "bool",
          "name": "",
          "type": "bool"
        }
      ],
      "stateMutability": "view",
      "type": "function"
    },
    {
      "inputs": [
        {
          "internalType": "bytes",
          "name": "document",
          "type": "bytes"
        }
      ],
      "name": "isRevoked",
      "outputs": [
        {
          "internalType": "bool",
          "name": "",
          "type": "bool"
        }
      ],
      "stateMutability": "view",
      "type": "function"
    },
    {
      "inputs": [],
      "name": "name",
      "outputs": [
        {
          "internalType": "string",
          "name": "",
          "type": "string"
        }
      ],
      "stateMutability": "view",
      "type": "function"
    },
    {
      "inputs": [],
      "name": "owner",
      "outputs": [
        {
          "internalType": "address",
          "name": "",
          "type": "address"
        }
      ],
      "stateMutability": "view",
      "type": "function"
    },
    {
      "inputs": [],
      "name": "renounceOwnership",
      "outputs": [],
      "stateMutability": "nonpayable",
      "type": "function"
    },
    {
      "inputs": [
        {
          "internalType": "address",
          "name": "newOwner",
          "type": "address"
        }
      ],
      "name": "transferOwnership",
      "outputs": [],
      "stateMutability": "nonpayable",
      "type": "function"
    },
    {
      "inputs": [],
      "name": "version",
      "outputs": [
        {
          "internalType": "string",
          "name": "",
          "type": "string"
        }
      ],
      "stateMutability": "view",
      "type": "function"
    },
    {
      "inputs": [
        {
          "internalType": "string",
          "name": "_name",
          "type": "string"
        },
        {
          "internalType": "address",
          "name": "owner",
          "type": "address"
        }
      ],
      "name": "initialize",
      "outputs": [],
      "stateMutability": "nonpayable",
      "type": "function"
    },
    {
      "inputs": [
        {
          "internalType": "string",
          "name": "_name",
          "type": "string"
        }
      ],
      "name": "initialize",
      "outputs": [],
      "stateMutability": "nonpayable",
      "type": "function"
    },
    {
      "inputs": [
        {
          "internalType": "bytes",
          "name": "document",
          "type": "bytes"
        }
      ],
      "name": "issue",
      "outputs": [],
      "stateMutability": "nonpayable",
      "type": "function"
    },
    {
      "inputs": [
        {
          "internalType": "bytes[]",
          "name": "documents",
          "type": "bytes[]"
        }
      ],
      "name": "bulkIssue",
      "outputs": [],
      "stateMutability": "nonpayable",
      "type": "function"
    },
    {
      "inputs": [
        {
          "internalType": "bytes",
          "name": "document",
          "type": "bytes"
        }
      ],
      "name": "revoke",
      "outputs": [
        {
          "internalType": "bool",
          "name": "",
          "type": "bool"
        }
      ],
      "stateMutability": "nonpayable",
      "type": "function"
    },
    {
      "inputs": [
        {
          "internalType": "bytes[]",
          "name": "documents",
          "type": "bytes[]"
        }
      ],
      "name": "bulkRevoke",
      "outputs": [],
      "stateMutability": "nonpayable",
      "type": "function"
    }
  ],
  "bytecode": "0x608060405234801561001057600080fd5b50611aeb806100206000396000f3fe608060405234801561001057600080fd5b50600436106100f55760003560e01c806388e3ac1511610097578063d1d03d4211610066578063d1d03d4214610272578063f2fde38b1461028e578063f62d1888146102aa578063fad280f7146102c6576100f5565b806388e3ac15146101d85780638da5cb5b14610208578063a91a3f3c14610226578063b613823d14610256576100f5565b806331886822116100d3578063318868221461017857806354fd4d5014610194578063715018a6146101b25780637ab4339d146101bc576100f5565b806305acc7a7146100fa57806306fdde031461012a5780630b467b9b14610148575b600080fd5b610114600480360381019061010f91906114b5565b6102f6565b6040516101219190611909565b60405180910390f35b610132610324565b60405161013f9190611847565b60405180910390f35b610162600480360381019061015d91906114b5565b6103c2565b60405161016f919061182c565b60405180910390f35b610192600480360381019061018d91906114b5565b61049b565b005b61019c61056e565b6040516101a99190611847565b60405180910390f35b6101ba61060c565b005b6101d660048036038101906101d19190611537565b610749565b005b6101f260048036038101906101ed91906114b5565b61084d565b6040516101ff919061182c565b60405180910390f35b610210610878565b60405161021d9190611811565b60405180910390f35b610240600480360381019061023b91906114b5565b6108a2565b60405161024d9190611909565b60405180910390f35b610270600480360381019061026b9190611474565b6108d0565b005b61028c60048036038101906102879190611474565b610958565b005b6102a860048036038101906102a3919061144b565b6109e0565b005b6102c460048036038101906102bf91906114f6565b610b8c565b005b6102e060048036038101906102db91906114b5565b610cd8565b6040516102ed919061182c565b60405180910390f35b6004818051602081018201805184825260208301602085012081835280955050505050506000915090505481565b60018054600181600116156101000203166002900480601f0160208091040260200160405190810160405280929190818152602001828054600181600116156101000203166002900480156103ba5780601f1061038f576101008083540402835291602001916103ba565b820191906000526020600020905b81548152906001019060200180831161039d57829003601f168201915b505050505081565b60006103cc610d03565b73ffffffffffffffffffffffffffffffffffffffff166103ea610878565b73ffffffffffffffffffffffffffffffffffffffff1614610440576040517f08c379a0000000000000000000000000000000000000000000000000000000008152600401610437906118e9565b60405180910390fd5b8161044a8161084d565b1561048a576040517f08c379a000000000000000000000000000000000000000000000000000000000815260040161048190611869565b60405180910390fd5b61049383610d0b565b915050919050565b6104a3610d03565b73ffffffffffffffffffffffffffffffffffffffff166104c1610878565b73ffffffffffffffffffffffffffffffffffffffff1614610517576040517f08c379a000000000000000000000000000000000000000000000000000000000815260040161050e906118e9565b60405180910390fd5b8061052181610cd8565b15610561576040517f08c379a0000000000000000000000000000000000000000000000000000000008152600401610558906118a9565b60405180910390fd5b61056a82610dc2565b5050565b60028054600181600116156101000203166002900480601f0160208091040260200160405190810160405280929190818152602001828054600181600116156101000203166002900480156106045780601f106105d957610100808354040283529160200191610604565b820191906000526020600020905b8154815290600101906020018083116105e757829003601f168201915b505050505081565b610614610d03565b73ffffffffffffffffffffffffffffffffffffffff16610632610878565b73ffffffffffffffffffffffffffffffffffffffff1614610688576040517f08c379a000000000000000000000000000000000000000000000000000000000815260040161067f906118e9565b60405180910390fd5b600073ffffffffffffffffffffffffffffffffffffffff16603760009054906101000a900473ffffffffffffffffffffffffffffffffffffffff1673ffffffffffffffffffffffffffffffffffffffff167f8be0079c531659141344cd1fd0a4f28419497f9722a3daafe3b4186f6b6457e060405160405180910390a36000603760006101000a81548173ffffffffffffffffffffffffffffffffffffffff021916908373ffffffffffffffffffffffffffffffffffffffff160217905550565b600060019054906101000a900460ff16806107685750610767610e75565b5b8061077e575060008054906101000a900460ff16155b6107bd576040517f08c379a00000000000000000000000000000000000000000000000000000000081526004016107b4906118c9565b60405180910390fd5b60008060019054906101000a900460ff16159050801561080d576001600060016101000a81548160ff02191690831515021790555060016000806101000a81548160ff0219169083151502179055505b610815610e86565b61081e826109e0565b61082783610b8c565b80156108485760008060016101000a81548160ff0219169083151502179055505b505050565b60008060048360405161086091906117fa565b90815260200160405180910390205414159050919050565b6000603760009054906101000a900473ffffffffffffffffffffffffffffffffffffffff16905090565b6003818051602081018201805184825260208301602085012081835280955050505050506000915090505481565b6108d8610d03565b73ffffffffffffffffffffffffffffffffffffffff166108f6610878565b73ffffffffffffffffffffffffffffffffffffffff161461094c576040517f08c379a0000000000000000000000000000000000000000000000000000000008152600401610943906118e9565b60405180910390fd5b61095581610f7e565b50565b610960610d03565b73ffffffffffffffffffffffffffffffffffffffff1661097e610878565b73ffffffffffffffffffffffffffffffffffffffff16146109d4576040517f08c379a00000000000000000000000000000000000000000000000000000000081526004016109cb906118e9565b60405180910390fd5b6109dd81610fb8565b50565b6109e8610d03565b73ffffffffffffffffffffffffffffffffffffffff16610a06610878565b73ffffffffffffffffffffffffffffffffffffffff1614610a5c576040517f08c379a0000000000000000000000000000000000000000000000000000000008152600401610a53906118e9565b60405180910390fd5b600073ffffffffffffffffffffffffffffffffffffffff168173ffffffffffffffffffffffffffffffffffffffff161415610acc576040517f08c379a0000000000000000000000000000000000000000000000000000000008152600401610ac390611889565b60405180910390fd5b8073ffffffffffffffffffffffffffffffffffffffff16603760009054906101000a900473ffffffffffffffffffffffffffffffffffffffff1673ffffffffffffffffffffffffffffffffffffffff167f8be0079c531659141344cd1fd0a4f28419497f9722a3daafe3b4186f6b6457e060405160405180910390a380603760006101000a81548173ffffffffffffffffffffffffffffffffffffffff021916908373ffffffffffffffffffffffffffffffffffffffff16021790555050565b600060019054906101000a900460ff1680610bab5750610baa610e75565b5b80610bc1575060008054906101000a900460ff16155b610c00576040517f08c379a0000000000000000000000000000000000000000000000000000000008152600401610bf7906118c9565b60405180910390fd5b60008060019054906101000a900460ff161590508015610c50576001600060016101000a81548160ff02191690831515021790555060016000806101000a81548160ff0219169083151502179055505b6040518060400160405280600581526020017f322e332e3000000000000000000000000000000000000000000000000000000081525060029080519060200190610c9b92919061127d565b508160019080519060200190610cb292919061127d565b508015610cd45760008060016101000a81548160ff0219169083151502179055505b5050565b600080600383604051610ceb91906117fa565b90815260200160405180910390205414159050919050565b600033905090565b600081610d178161084d565b15610d57576040517f08c379a0000000000000000000000000000000000000000000000000000000008152600401610d4e90611869565b60405180910390fd5b42600484604051610d6891906117fa565b90815260200160405180910390208190555082604051610d8891906117fa565b60405180910390207fd06026efabefaf58d0e4209dab86e740de514d8862953f10a22f1af8c2f2909460405160405180910390a250919050565b80610dcc81610cd8565b15610e0c576040517f08c379a0000000000000000000000000000000000000000000000000000000008152600401610e03906118a9565b60405180910390fd5b42600383604051610e1d91906117fa565b90815260200160405180910390208190555081604051610e3d91906117fa565b60405180910390207fe733eb2ec0cbe632113b39e823b85fd4f8853b0de59757070e894c5cd983ef9f60405160405180910390a25050565b6000610e8030610ff1565b15905090565b600060019054906101000a900460ff1680610ea55750610ea4610e75565b5b80610ebb575060008054906101000a900460ff16155b610efa576040517f08c379a0000000000000000000000000000000000000000000000000000000008152600401610ef1906118c9565b60405180910390fd5b60008060019054906101000a900460ff161590508015610f4a576001600060016101000a81548160ff02191690831515021790555060016000806101000a81548160ff0219169083151502179055505b610f52611004565b610f5a6110ec565b8015610f7b5760008060016101000a81548160ff0219169083151502179055505b50565b60005b8151811015610fb457610fa6828281518110610f9957fe5b6020026020010151610d0b565b508080600101915050610f81565b5050565b60005b8151811015610fed57610fe0828281518110610fd357fe5b6020026020010151610dc2565b8080600101915050610fbb565b5050565b600080823b905060008111915050919050565b600060019054906101000a900460ff16806110235750611022610e75565b5b80611039575060008054906101000a900460ff16155b611078576040517f08c379a000000000000000000000000000000000000000000000000000000000815260040161106f906118c9565b60405180910390fd5b60008060019054906101000a900460ff1615905080156110c8576001600060016101000a81548160ff02191690831515021790555060016000806101000a81548160ff0219169083151502179055505b80156110e95760008060016101000a81548160ff0219169083151502179055505b50565b600060019054906101000a900460ff168061110b575061110a610e75565b5b80611121575060008054906101000a900460ff16155b611160576040517f08c379a0000000000000000000000000000000000000000000000000000000008152600401611157906118c9565b60405180910390fd5b60008060019054906101000a900460ff1615905080156111b0576001600060016101000a81548160ff02191690831515021790555060016000806101000a81548160ff0219169083151502179055505b60006111ba610d03565b905080603760006101000a81548173ffffffffffffffffffffffffffffffffffffffff021916908373ffffffffffffffffffffffffffffffffffffffff1602179055508073ffffffffffffffffffffffffffffffffffffffff16600073ffffffffffffffffffffffffffffffffffffffff167f8be0079c531659141344cd1fd0a4f28419497f9722a3daafe3b4186f6b6457e060405160405180910390a350801561127a5760008060016101000a81548160ff0219169083151502179055505b50565b828054600181600116156101000203166002900490600052602060002090601f016020900481019282601f106112be57805160ff19168380011785556112ec565b828001600101855582156112ec579182015b828111156112eb5782518255916020019190600101906112d0565b5b5090506112f991906112fd565b5090565b5b808211156113165760008160009055506001016112fe565b5090565b60008135905061132981611a9e565b92915050565b600082601f83011261134057600080fd5b813561135361134e82611951565b611924565b9150818183526020840193506020810190508360005b83811015611399578135860161137f88826113a3565b845260208401935060208301925050600181019050611369565b5050505092915050565b600082601f8301126113b457600080fd5b81356113c76113c282611979565b611924565b915080825260208301602083018583830111156113e357600080fd5b6113ee838284611a4b565b50505092915050565b600082601f83011261140857600080fd5b813561141b611416826119a5565b611924565b9150808252602083016020830185838301111561143757600080fd5b611442838284611a4b565b50505092915050565b60006020828403121561145d57600080fd5b600061146b8482850161131a565b91505092915050565b60006020828403121561148657600080fd5b600082013567ffffffffffffffff8111156114a057600080fd5b6114ac8482850161132f565b91505092915050565b6000602082840312156114c757600080fd5b600082013567ffffffffffffffff8111156114e157600080fd5b6114ed848285016113a3565b91505092915050565b60006020828403121561150857600080fd5b600082013567ffffffffffffffff81111561152257600080fd5b61152e848285016113f7565b91505092915050565b6000806040838503121561154a57600080fd5b600083013567ffffffffffffffff81111561156457600080fd5b611570858286016113f7565b92505060206115818582860161131a565b9150509250929050565b61159481611a03565b82525050565b6115a381611a15565b82525050565b60006115b4826119d1565b6115be81856119e7565b93506115ce818560208601611a5a565b80840191505092915050565b60006115e5826119dc565b6115ef81856119f2565b93506115ff818560208601611a5a565b61160881611a8d565b840191505092915050565b60006116206027836119f2565b91507f4572726f723a204861736820686173206265656e207265766f6b65642070726560008301527f76696f75736c79000000000000000000000000000000000000000000000000006020830152604082019050919050565b60006116866026836119f2565b91507f4f776e61626c653a206e6577206f776e657220697320746865207a65726f206160008301527f64647265737300000000000000000000000000000000000000000000000000006020830152604082019050919050565b60006116ec603a836119f2565b91507f4572726f723a204f6e6c792068617368657320746861742068617665206e6f7460008301527f206265656e206973737565642063616e206265206973737565640000000000006020830152604082019050919050565b6000611752602e836119f2565b91507f496e697469616c697a61626c653a20636f6e747261637420697320616c72656160008301527f647920696e697469616c697a65640000000000000000000000000000000000006020830152604082019050919050565b60006117b86020836119f2565b91507f4f776e61626c653a2063616c6c6572206973206e6f7420746865206f776e65726000830152602082019050919050565b6117f481611a41565b82525050565b600061180682846115a9565b915081905092915050565b6000602082019050611826600083018461158b565b92915050565b6000602082019050611841600083018461159a565b92915050565b6000602082019050818103600083015261186181846115da565b905092915050565b6000602082019050818103600083015261188281611613565b9050919050565b600060208201905081810360008301526118a281611679565b9050919050565b600060208201905081810360008301526118c2816116df565b9050919050565b600060208201905081810360008301526118e281611745565b9050919050565b60006020820190508181036000830152611902816117ab565b9050919050565b600060208201905061191e60008301846117eb565b92915050565b6000604051905081810181811067ffffffffffffffff8211171561194757600080fd5b8060405250919050565b600067ffffffffffffffff82111561196857600080fd5b602082029050602081019050919050565b600067ffffffffffffffff82111561199057600080fd5b601f19601f8301169050602081019050919050565b600067ffffffffffffffff8211156119bc57600080fd5b601f19601f8301169050602081019050919050565b600081519050919050565b600081519050919050565b600081905092915050565b600082825260208201905092915050565b6000611a0e82611a21565b9050919050565b60008115159050919050565b600073ffffffffffffffffffffffffffffffffffffffff82169050919050565b6000819050919050565b82818337600083830152505050565b60005b83811015611a78578082015181840152602081019050611a5d565b83811115611a87576000848401525b50505050565b6000601f19601f8301169050919050565b611aa781611a03565b8114611ab257600080fd5b5056fea26469706673582212206ae2d673faf0dccbc64fe6375ed7e67fe0ddf4afeab77171e9f79ce9bec1ab1564736f6c634300060c0033",
  "immutableReferences": {},
  "source": "// SPDX-License-Identifier: Apache-2.0\n\npragma solidity ^0.6.10;\npragma experimental ABIEncoderV2;\n\nimport \"@openzeppelin/contracts-upgradeable/access/OwnableUpgradeable.sol\";\nimport \"@openzeppelin/contracts-upgradeable/proxy/Initializable.sol\";\n\nimport \"./BaseDocumentStore.sol\";\n\ncontract UpgradableDocumentStore is BaseDocumentStore, OwnableUpgradeable {\n  function initialize(string memory _name, address owner) public initializer {\n    super.__Ownable_init();\n    super.transferOwnership(owner);\n    BaseDocumentStore.initialize(_name);\n  }\n\n  function issue(bytes memory document) public onlyOwner onlyNotIssued(document) {\n    BaseDocumentStore._issue(document);\n  }\n\n  function bulkIssue(bytes[] memory documents) public onlyOwner {\n    BaseDocumentStore._bulkIssue(documents);\n  }\n\n  function revoke(bytes memory document) public onlyOwner onlyNotRevoked(document) returns (bool) {\n    return BaseDocumentStore._revoke(document);\n  }\n\n  function bulkRevoke(bytes[] memory documents) public onlyOwner {\n    return BaseDocumentStore._bulkRevoke(documents);\n  }\n}\n",
  "sourcePath": "D:\\\\4.IMDA\\2.hedera\\TradeTrust\\hedera-document-store\\contracts\\UpgradableDocumentStore.sol",
  "compiler": {
    "name": "solc",
    "version": "0.6.12+commit.27d51765.Emscripten.clang"
  },
  "schemaVersion": "3.4.0",
  "updatedAt": "2022-02-24T08:47:52.659Z",
  "devdoc": {
    "kind": "dev",
    "methods": {
      "owner()": {
        "details": "Returns the address of the current owner."
      },
      "renounceOwnership()": {
        "details": "Leaves the contract without owner. It will not be possible to call `onlyOwner` functions anymore. Can only be called by the current owner. NOTE: Renouncing ownership will leave the contract without an owner, thereby removing any functionality that is only available to the owner."
      },
      "transferOwnership(address)": {
        "details": "Transfers ownership of the contract to a new account (`newOwner`). Can only be called by the current owner."
      }
    },
    "version": 1
  },
  "userdoc": {
    "kind": "user",
    "methods": {
      "documentIssued(bytes)": {
        "notice": "A mapping of the document hash to the block number that was issued"
      },
      "documentRevoked(bytes)": {
        "notice": "A mapping of the hash of the claim being revoked to the revocation block number"
      }
    },
    "version": 1
  }
}